:020000040800F2
:1000000000000220C96B00082521000827210008F4
:10001000292100082B2100082D21000800000000E4
:100020000000000000000000000000002F21000878
:1000300031210008000000003321000835210008AC
:10004000196C0008196C0008196C0008196C00087C
:10005000196C0008196C0008196C0008196C00086C
:10006000196C0008196C0008196C00083D21000883
:100070004D210008196C00085D210008196C00086A
:10008000196C0008196C0008196C0008196C00083C
:10009000196C0008196C0008196C0008196C00082C
:1000A000196C0008196C0008196C0008196C00081C
:1000B000196C0008196C0008196C0008196C00080C
:1000C000196C0008196C0008196C0008196C0008FC
:1000D000196C00086D210008196C000885210008C2
:1000E000196C0008196C0008196C0008196C0008DC
:1000F000196C0008196C0008196C0008196C0008CC
:10010000196C0008196C0008196C0008196C0008BB
:10011000196C0008196C0008196C00089D21000872
:10012000AD210008196C0008BD210008196C0008F9
:10013000196C00080000000000000000196C0008A5
:10014000196C0008196C0008196C0008196C00087B
:10015000CD210008196C0008DD210008196C000889
:10016000196C0008196C0008196C0008196C00085B
:10017000196C0008196C0008000000000000000065
:08018000196C0008196C00085D
:1001900010F8012B11F8013B012A28BF9A42F7D031
:1001A000D01A7047034613F8012B002AFBD1181A06
:1001B000013870470000000000000000000000004F
:1001C00001F0FF01102A2BDB10F0070F08D010F808
:1001D000013B013A8B422DD010F0070F42B3F6D10C
:1001E000F0B441EA012141EA014122F007047FF025
:1001F00000070023F0E80256083C85EA010586EA7C
:10020000010685FA47F5A3FA87F586FA47F6A5FAB7
:1002100087F68EB9EED1F0BC01F0FF0102F00702C3
:1002200032B110F8013B013A83EA010313B1F8D16E
:100230000020704701387047002D06BF354603384F
:10024000073815F0010F07D1013015F4807F02BF88
:10025000013015F4C03F0130F0BC0138704700BFD9
:1002600081F0004102E000BF83F0004330B54FEA67
:1002700041044FEA430594EA050F08BF90EA020FD4
:100280001FBF54EA000C55EA020C7FEA645C7FEA67
:10029000655C00F0E2804FEA5454D4EB5555B8BF8A
:1002A0006D420CDD2C4480EA020281EA030382EAFB
:1002B000000083EA010180EA020281EA0303362D8D
:1002C00088BF30BD11F0004F4FEA01314FF4801C60
:1002D0004CEA113102D0404261EB410113F0004F72
:1002E0004FEA03334CEA133302D0524263EB430329
:1002F00094EA050F00F0A780A4F10104D5F1200EC7
:100300000DDB02FA0EFC22FA05F2801841F1000121
:1003100003FA0EF2801843FA05F359410EE0A5F1F5
:1003200020050EF1200E012A03FA0EFC28BF4CF026
:10033000020C43FA05F3C01851EBE37101F00045DC
:1003400007D54FF0000EDCF1000C7EEB00006EEBE9
:100350000101B1F5801F1BD3B1F5001F0CD3490873
:100360005FEA30004FEA3C0C04F101044FEA4452CA
:1003700012F5800F80F09A80BCF1004F08BF5FEA51
:10038000500C50F1000041EB045141EA050130BD31
:100390005FEA4C0C404141EB0101013C28BFB1F543
:1003A000801FE9D291F0000F04BF01460020B1FA8E
:1003B00081F308BF2033A3F10B03B3F120020CDA61
:1003C0000C3208DD02F1140CC2F10C0201FA0CF03F
:1003D00021FA02F10CE002F11402D8BFC2F1200CA4
:1003E00001FA02F120FA0CFCDCBF41EA0C0190405A
:1003F000E41AA2BF01EB0451294330BD6FEA0404A3
:100400001F3C1CDA0C340EDC04F11404C4F120028D
:1004100020FA04F001FA02F340EA030021FA04F39F
:1004200045EA030130BDC4F10C04C4F1200220FAF6
:1004300002F001FA04F340EA0300294630BD21FA34
:1004400004F0294630BD94F0000F83F4801306BFFA
:1004500081F480110134013D4EE77FEA645C18BFEE
:100460007FEA655C29D094EA050F08BF90EA020F85
:1004700005D054EA000C04BF1946104630BD91EA7D
:10048000030F1EBF0021002030BD5FEA545C05D180
:100490004000494128BF41F0004130BD14F58004BF
:1004A0003CBF01F5801130BD01F0004545F0FE4133
:1004B00041F470014FF0000030BD7FEA645C1ABF68
:1004C000194610467FEA655C1CBF0B46024650EA9F
:1004D000013406BF52EA033591EA030F41F40021CB
:1004E00030BD00BF90F0000F04BF0021704730B551
:1004F0004FF4806404F132044FF000054FF0000126
:1005000050E700BF90F0000F04BF0021704730B5E6
:100510004FF4806404F1320410F0004548BF4042BB
:100520004FF000013EE700BF42004FEAE2014FEA10
:1005300031014FEA02701FBF12F07F4393F07F4FEB
:1005400081F06051704732F07F4208BF704793F0EE
:100550007F4F04BF41F40021704730B54FF4607401
:1005600001F0004521F000411CE700BF50EA010204
:1005700008BF704730B54FF000050AE050EA0102AD
:1005800008BF704730B511F0004502D5404261EB1D
:1005900041014FF4806404F132045FEA915C3FF45E
:1005A000D8AE4FF003025FEADC0C18BF03325FEAFB
:1005B000DC0C18BF033202EBDC02C2F1200300FAAC
:1005C00003FC20FA02F001FA03FE40EA0E0021FAD1
:1005D00002F11444BDE600BF70B54FF0FF0C4CF4BF
:1005E000E06C1CEA11541DBF1CEA135594EA0C0F71
:1005F00095EA0C0F00F0DEF82C4481EA030621EAAC
:100600004C5123EA4C5350EA013518BF52EA0335E6
:1006100041F4801143F4801338D0A0FB02CE4FF098
:100620000005E1FB02E506F00042E0FB03E54FF0C8
:100630000006E1FB03569CF0000F18BF4EF0010EC0
:10064000A4F1FF04B6F5007F64F5407404D25FEABC
:100650004E0E6D4146EB060642EAC62141EA55516F
:100660004FEAC52040EA5E504FEACE2EB4F1FD0CB1
:1006700088BFBCF5E06F1ED8BEF1004F08BF5FEA2F
:10068000500E50F1000041EB045170BD06F00046E1
:1006900046EA010140EA020081EA0301B4EB5C048E
:1006A000C2BFD4EB0C0541EA045170BD41F4801186
:1006B0004FF0000E013C00F3AB8014F1360FDEBFAB
:1006C000002001F0004170BDC4F10004203C35DA87
:1006D0000C341BDC04F11404C4F1200500FA05F30A
:1006E00020FA04F001FA05F240EA020001F00042AB
:1006F00021F0004110EBD37021FA04F642EB060121
:100700005EEA430E08BF20EAD37070BDC4F10C044A
:10071000C4F1200500FA04F320FA05F001FA04F20E
:1007200040EA020001F0004110EBD37041F10001FA
:100730005EEA430E08BF20EAD37070BDC4F1200505
:1007400000FA05F24EEA020E20FA04F301FA05F26D
:1007500043EA020321FA04F001F0004121FA04F215
:1007600020EA020000EBD3705EEA430E08BF20EAE5
:10077000D37070BD94F0000F0FD101F0004640001F
:1007800041EB010111F4801F08BF013CF7D041EAA1
:10079000060195F0000F18BF704703F000465200A5
:1007A00043EB030313F4801F08BF013DF7D043EA76
:1007B0000603704794EA0C0F0CEA135518BF95EA2C
:1007C0000C0F0CD050EA410618BF52EA4306D1D1B3
:1007D00081EA030101F000414FF0000070BD50EAD2
:1007E000410606BF1046194652EA430619D094EA5C
:1007F0000C0F02D150EA013613D195EA0C0F05D146
:1008000052EA03361CBF104619460AD181EA030199
:1008100001F0004141F0FE4141F470014FF0000051
:1008200070BD41F0FE4141F4780170BD70B54FF0EC
:10083000FF0C4CF4E06C1CEA11541DBF1CEA13556C
:1008400094EA0C0F95EA0C0F00F0A7F8A4EB05044E
:1008500081EA030E52EA03354FEA013100F0888045
:100860004FEA03334FF0805545EA131343EA12630E
:100870004FEA022245EA111545EA10654FEA0026C3
:100880000EF000419D4208BF964244F1FD0404F57C
:10089000407402D25B084FEA3202B61A65EB0305D8
:1008A0005B084FEA32024FF480104FF4002CB6EB95
:1008B000020E75EB030E22BFB61A754640EA0C0015
:1008C0005B084FEA3202B6EB020E75EB030E22BF55
:1008D000B61A754640EA5C005B084FEA3202B6EB96
:1008E000020E75EB030E22BFB61A754640EA9C0055
:1008F0005B084FEA3202B6EB020E75EB030E22BF25
:10090000B61A754640EADC0055EA060E18D04FEAE2
:10091000051545EA16754FEA06164FEAC30343EA82
:1009200052734FEAC2025FEA1C1CC0D111F4801F4F
:100930000BD141EA00014FF000004FF0004CB6E748
:1009400011F4801F04BF01430020B4F1FD0C88BFE7
:10095000BCF5E06F3FF6AFAEB5EB030C04BFB6EBF2
:10096000020C5FEA500C50F1000041EB045170BDE5
:100970000EF0004E4EEA113114EB5C04C2BFD4EB12
:100980000C0541EA045170BD41F480114FF0000E96
:10099000013C90E645EA060E8DE60CEA135594EA12
:1009A0000C0F08BF95EA0C0F3FF43BAF94EA0C0F15
:1009B0000AD150EA01347FF434AF95EA0C0F7FF48A
:1009C00025AF104619462CE795EA0C0F06D152EADE
:1009D00003353FF4FDAE1046194622E750EA4106C2
:1009E00018BF52EA43067FF4C5AE50EA41047FF4D3
:1009F0000DAF52EA43057FF4EBAE12E74FF0FF3C38
:100A000006E000BF4FF0010C02E000BF4FF0010C08
:100A10004DF804CD4FEA410C7FEA6C5C4FEA430C81
:100A200018BF7FEA6C5C1BD001B050EA410C0CBFD0
:100A300052EA430C91EA030F02BF90EA020F002032
:100A4000704710F1000F91EA030F58BF994208BF99
:100A500090422CBFD8176FEAE37040F00100704756
:100A60004FEA410C7FEA6C5C02D150EA013C07D1AD
:100A70004FEA430C7FEA6C5CD6D152EA033CD3D0F8
:100A80005DF8040B704700BF8446104662468C46F2
:100A90001946634600E000BF01B5FFF7B7FF002825
:100AA00048BF10F1000F01BD4DF808EDFFF7F4FF4E
:100AB0000CBF012000205DF808FB00BF4DF808EDD9
:100AC000FFF7EAFF34BF012000205DF808FB00BFFC
:100AD0004DF808EDFFF7E0FF94BF012000205DF81E
:100AE00008FB00BF4DF808EDFFF7CEFF94BF0120D3
:100AF00000205DF808FB00BF4DF808EDFFF7C4FFCC
:100B000034BF012000205DF808FB00BF4FEA410C14
:100B10007FEA6C5C02D150EA013C0AD14FEA430CF7
:100B20007FEA6C5C02D152EA033C02D14FF0000034
:100B300070474FF0010070474FEA410212F5001272
:100B400015D211D56FF47873B3EB625212D94FEA14
:100B5000C12343F0004343EA505311F0004F23FAFE
:100B600002F018BF404270474FF00000704750EA53
:100B7000013005D111F0004008BF6FF00040704710
:100B80004FF00000704700BF4A0011D212F500126A
:100B900011D20DD56FF47873B3EB62520ED44FEAD5
:100BA000C12343F0004343EA505323FA02F0704755
:100BB0004FF00000704750EA013002D14FF0FF3093
:100BC00070474FF0000070474FEA4102B2F1E04336
:100BD00024BFB3F5001CDCF1FE5C0DD901F0004C24
:100BE0004FEAC0024CEA5070B2F1004F40EB830074
:100BF00008BF20F00100704711F0804F21D113F1A0
:100C00003872BCBF01F00040704741F480114FEAD8
:100C10005252C2F11802C2F1200C10FA0CF320FA61
:100C200002F018BF40F001004FEAC1234FEAD3237E
:100C300003FA0CFC40EA0C0023FA02F34FEA4303E8
:100C4000CCE77FEA625307D150EA01331EBF4FF071
:100C5000FE4040F44000704701F0004040F0FE408C
:100C600040F40000704700BF53B94AB9002908BFDB
:100C700000281CBF4FF0FF314FF0FF3000F00CB8E0
:100C8000ADF1080C6DE904CE06F05CFEDDF804E081
:100C9000DDE9022304B07047704700BF0348044BEE
:100CA000834202D0034B03B118477047E80000208D
:100CB000E8000020000000000548064B1B1AD90F71
:100CC00001EBA301491002D0034B03B11847704751
:100CD000E8000020E80000200000000010B5064CED
:100CE000237843B9FFF7DAFF044B13B10448AFF39D
:100CF00000800123237010BDE800002000000000E8
:100D0000187C000808B5054B1BB105490548AFF331
:100D10000080BDE80840FFF7CFBF00BF0000000023
:100D2000EC000020187C000830B58BB0002405943E
:100D300006940794089409940094274B1A6B42F088
:100D400004021A631A6B02F004020092009A0194E2
:100D50001A6B42F080021A631A6B02F08002019251
:100D6000019A02941A6B42F001021A631A6B02F0A4
:100D700001020292029A03941A6B42F002021A6371
:100D80001A6B02F002020392039A04941A6B42F067
:100D900008021A631B6B03F008030493049B0F4DB6
:100DA00022464FF48041284602F0B6F94FF4005332
:100DB00005930694079405A9284602F01DF84FF400
:100DC00080430593012306930794089405A92846B8
:100DD00002F012F80BB030BD0038024000080240AB
:100DE00000B585B000230093019302930393174845
:100DF000174A02604FF480324260836003610376D9
:100E000080F820304FF08052C2624FF00062826260
:100E1000C3600123C36180F83030436101F09CFA64
:100E200068B90A23009301230193032302936946BF
:100E3000064801F0D7FB28B905B05DF804FB05F0C2
:100E4000EBFCEEE705F0E8FCF6E700BF1C01002034
:100E50000020014000B585B0002300930193029368
:100E600003931748174A02604FF480324260836050
:100E70000361037680F820304FF08052C2624FF059
:100E800060628262C3600123C36180F830304361D5
:100E900001F062FA68B90B23009301230193032345
:100EA00002936946064801F09DFB28B905B05DF83C
:100EB00004FB05F0B1FCEEE705F0AEFCF6E700BF81
:100EC000640100200021014030B58BB004460023AE
:100ED000059306930793089309930368404A934246
:100EE00004D0404A93423DD00BB030BD002501955F
:100EF0003D4B5A6C42F480725A645A6C02F4807210
:100F00000192019A02951A6B42F004021A631B6B5C
:100F100003F004030293029B052305930323069326
:100F200005A9324801F068FF3148324B0360456043
:100F30008560C5604FF4806303614FF400634361D3
:100F40004FF4005383614FF48073C36105624562BF
:100F500002F068F918B9264BA3639C63C4E705F057
:100F60005BFCF8E7002503951F4B5A6C42F40072B6
:100F70005A645A6C02F400720392039A04951A6B35
:100F800042F004021A631B6B03F004030493049BF6
:100F9000022305930323069305A9144801F02CFFAF
:100FA0001548164B03604FF0007343608560C560C1
:100FB0004FF4806303614FF4006343614FF40053C7
:100FC00083614FF48073C3610562456202F02AF9C0
:100FD00018B9094BA3639C6386E705F01DFCF8E78D
:100FE000002001400021014000380240000802407A
:100FF000AC010020106402400C020020406402405A
:1010000010B504460368114A934203D0104A934234
:101010000ED010BD02F58C32536C23F480735364F0
:1010200005210C4801F0DEFFA06B02F061F9F0E74A
:10103000094A536C23F4007353640221054801F0FC
:10104000D1FFA06B02F054F9E3E700BF002001409C
:101050000021014000080240003802400368384A7D
:101060001268934204D0374A1268934231D07047D5
:10107000354BB3F90030002B0FDB4FF0010C334B35
:101080001B685B6A9BB2324A138013889BB2B3F52C
:10109000167F05D30120002214E04FF6FF7CEEE717
:1010A0000020F8E700EB42012A4B33F811309BB2E5
:1010B0002949B1F900105B1A13FB0CF3274921F8F9
:1010C00012300132042AEDDD254A13680133136022
:1010D000704700B5234BB3F90030002B10DB4FF005
:1010E000010E214B1B685B6A9BB2204A1380138858
:1010F0009BB2B3F5167F06D34FF0010C002216E029
:101100004FF6FF7EEDE74FF0000CF7E70CEB4201E6
:10111000174B33F811309BB20F49B1F902105B1A2B
:10112000501D13FB0EF30D4921F810300132042A33
:10113000ECDD0B4A5368013353605DF804FB00BFDC
:101140001C01002064010020300B002080030020DF
:1011500074020020000B0020180100200401002070
:101160006C020020380B0020A00400207602002032
:10117000140B002000B5002108468E460FE0174AE8
:1011800032F913C0604403F1050C32F91C201144FC
:101190000133042BF3DD0EF1010E1FFA8EFEBEF5B6
:1011A000FA6F0CD20E4B1B68002BFBD00C4B5B680C
:1011B000002BF7D00A4A002313605360E9E7094A7D
:1011C000A2FB000343F34F3307480380A2FB012334
:1011D00043F34F3343805DF804FB00BF040100205C
:1011E0006C0200205917B7D11801002010B582B049
:1011F00000240094264B1A6B42F400121A631A6BF7
:1012000002F400120092009A01941A6B42F48002D8
:101210001A631B6B03F480030193019B2246214652
:101220000B2002F029FA0B2002F05EFA224621463A
:101230000C2002F021FA0C2002F056FA2246214638
:101240000E2002F019FA0E2002F04EFA2246214634
:10125000382002F011FA382002F046FA22462146E0
:101260003A2002F009FA3A2002F03EFA22462146DC
:10127000442002F001FA442002F036FA22462146C8
:10128000462002F0F9F9462002F02EFA02B010BD15
:101290000038024000B58DB02422002103A805F0DB
:1012A000EFFC00230193029312484FF0804202604A
:1012B000436083604FF0FF32C260036183610323A8
:1012C000039301230593099303A902F0B7FD50B9D5
:1012D00000230193029301A9064803F0E1F928B91C
:1012E0000DB05DF804FB05F097FAF1E705F094FA0C
:1012F000F6E700BF3803002000B58DB0242200219E
:1013000003A805F0BDFC0023019302931148124A83
:101310000260436083604FF0FF32C260036183610B
:101320000323039301230593099303A902F086FD88
:1013300050B900230193029301A9064803F0B0F9C4
:1013400028B90DB05DF804FB05F066FAF1E705F089
:1013500063FAF6E710040020000C004000B583B0EB
:101360000023009301930F480F4A0260532242600A
:10137000836041F28732C260836102F007FD50B999
:101380000023009301936946064803F089F928B9C0
:1013900003B05DF804FB05F03FFAF1E705F03CFA15
:1013A000F6E700BF580400200014004070B58AB072
:1013B0000023059306930793089309930368B3F1F9
:1013C000804F04D02D4A934238D00AB070BD00241B
:1013D000009403F50E331A6C42F001021A641A6C81
:1013E00002F001020092009A01941A6B42F001028D
:1013F0001A631A6B02F001020192019A02941A6BAD
:1014000042F002021A631B6B03F002030293029B79
:101410004FF400430593022606960125099505A978
:10142000174801F0E9FC08230593069607940894F1
:10143000099505A9134801F0DFFCC6E700210391D7
:10144000114B1A6C42F008021A641A6C02F008027E
:101450000392039A04911A6B42F001021A631B6B08
:1014600003F001030493049B0323059302230693D3
:10147000099305A9024801F0BFFCA6E7000C004053
:1014800000000240000402400038024010B584B061
:101490000368444A93420BD00446434A934214D013
:1014A000424A93425CD0424A93426DD004B010BD90
:1014B000002300933F4B1A6C42F002021A641B6C2B
:1014C00003F002030093009BF0E70023019302F571
:1014D0000C32116C41F004011164126C02F0040230
:1014E0000192019A3448354A02604FF080624260AE
:1014F00040228260C3604FF4806202614FF4006258
:1015000042614FF400528261C3610362436201F0A1
:1015100089FEF8B9284B63629C632948294B036014
:101520004FF080634360402383600023C3604FF427
:10153000806202614FF4006242614FF400528261A6
:10154000C3610362436201F06DFE30B91C4BA362BC
:101550009C63ABE705F060F9DCE705F05DF9F5E7C2
:1015600000210291134B1A6C42F020021A641B6C8A
:1015700003F020030293029B0A46372002F07CF816
:10158000372002F0B1F891E700230393094B5A6C1E
:1015900042F002025A645B6C03F002030393039B64
:1015A00084E700BF00040040000800400014004031
:1015B0000004014000380240780200201060024020
:1015C000D80200205860024000B589B00023039380
:1015D00004930593069307930368274A934208D020
:1015E000264A93421BD0264A93422ED009B05DF87A
:1015F00004FB00230093234B1A6B42F001021A6391
:101600001B6B03F001030093009BC0230393022391
:101610000493079303A91C4801F0EEFBE6E70023BF
:101620000193184B1A6B42F002021A631B6B03F012
:1016300002030193019BC0230393022304930793A6
:1016400003A9124801F0D8FBD0E7002302930D4B09
:101650001A6B42F004021A631B6B03F0040302933B
:10166000029BC0230393022304930323079303A93C
:10167000074801F0C1FBB9E7000400400008004042
:101680000004014000380240000002400004024013
:101690000008024000B58FB000230A930B930C930F
:1016A0000D93089309930193029303930493059375
:1016B000069307932648274A0260436020228260EF
:1016C00041F26702C2600361836102F05FFB60BBAD
:1016D0004FF480530A930AA91D4802F0BAFC38BBA4
:1016E0001B4802F07FFB30BB2023089300230993A3
:1016F00008A9174802F0D4FF00BB60230193002221
:1017000002920392059201A9114802F027FCC0B988
:1017100004220DEB02010E4802F020FCA0B90C4897
:10172000FFF752FF0FB05DF804FB05F075F8CFE747
:1017300005F072F8D4E705F06FF8D5E705F06CF81E
:10174000DBE705F069F8E3E705F066F8E7E700BFD7
:10175000800300200004004000B58FB000230A93EE
:101760000B930C930D9308930993019302930393A6
:1017700004930593069307932548264A02600322A3
:10178000426083601922C2600361836102F0FEFA45
:1017900060BB4FF480530A930AA91D4802F059FC1C
:1017A00038BB1B4802F01EFB30BB00230893099393
:1017B00008A9174802F074FF08BB602301930623B1
:1017C000029300220392059201A9114802F0C6FB80
:1017D000C0B904220DEB02010D4802F0BFFBA0B915
:1017E0000B48FFF7F1FE0FB05DF804FB05F014F8AD
:1017F000CFE705F011F8D4E705F00EF8D5E705F0CE
:101800000BF8DAE705F008F8E3E705F005F8E7E795
:10181000C80300200008004030B597B0002412949F
:101820001394149415941094119409940A940B949D
:101830000C940D940E940F9420252A46214601A85D
:1018400005F01EFA3248334B036001234360856084
:1018500041F26703C36004614461846102F096FA57
:1018600000283FD14FF48053129312A9284802F068
:10187000F0FB002839D1264802F0B4FA002837D10D
:10188000202310930023119310A9214802F008FF90
:10189000002830D16023099300220A920B920C9207
:1018A0000D920E920F9209A9194802F057FB28BB1E
:1018B000042209A9164802F051FB10BB0023019332
:1018C00002930393049305934FF4005206920893F6
:1018D00001A90F4802F02AFFB0B90D48FFF774FEC6
:1018E00017B030BD04F098FFBCE704F095FFC2E7E5
:1018F00004F092FFC4E704F08FFFCBE704F08CFF05
:10190000D6E704F089FFD9E704F086FFE5E700BFDA
:10191000A00400200004014003681A4A93420BD03F
:1019200010B50446184A93420DD0184A934217D076
:10193000174A93421ED010BD02F50D32136C23F0EE
:1019400002031364704702F50C32136C23F0040396
:101950001364406A01F0CCFCA06A01F0C9FCEAE71C
:1019600002F50932136C23F020031364372001F0D1
:10197000C9FEE0E702F59A32536C23F00203536488
:10198000D9E700BF000400400008004000140040F8
:101990000004014008B50268034B1B689A4200D05E
:1019A00008BD04F08BFEFBE75804002008B5037F58
:1019B000012B02D0022B04D008BD002102F090FDC3
:1019C000FAE7042102F08CFDF6E710B5044608465C
:1019D00011462388002210E073460CF1010CBCF183
:1019E000070F09D84FEA430E13F4004FF4D08EF4DA
:1019F000815383F00103F0E701328A4206D210F8E6
:101A000002C083EA0C234FF0000CE8E7238010BDEE
:101A100008B50A480A4B03604FF461234360002372
:101A20008360C36003610C2242618361C36102F081
:101A30009FFF00B908BD04F0EFFEFBE7200800207F
:101A4000004C004008B50A480A4B03604FF461237C
:101A5000436000238360C36003610C2242618361A1
:101A6000C36102F085FF00B908BD04F0D5FEFBE7B5
:101A7000640800200050004008B50A480A4B036083
:101A80004FF46123436000238360C36003610C2231
:101A900042618361C36102F06BFF00B908BD04F0CD
:101AA000BBFEFBE7980700200010014008B50A487C
:101AB0000A4B03604FF46123436000238360C360DB
:101AC00003610C2242618361C36102F051FF00B9DE
:101AD00008BD04F0A1FEFBE7DC0700200048004041
:101AE000F0B58FB0002309930A930B930C930D93D9
:101AF0000368894A93420CD00446884A93422CD00A
:101B0000874A934261D0874A934200F0BE800FB06B
:101B1000F0BD00210091844B1A6C42F400221A643B
:101B20001A6C02F400220092009A01911A6B42F0A2
:101B300004021A631B6B03F004030193019B4FF42F
:101B40004063099302230A9303230C9308230D9304
:101B500009A9764801F050F9D9E700240294724BA4
:101B60001A6C42F480121A641A6C02F48012029207
:101B7000029A03941A6B42F004021A631A6B02F081
:101B800004020392039A04941A6B42F008021A6347
:101B90001B6B03F008030493049B4FF480530993D9
:101BA00002270A9703260C9608250D9509A95F4878
:101BB00001F022F9042309930A970B940C960D95D2
:101BC00009A95B4801F018F9A1E700250595564BD6
:101BD0005A6C42F010025A645A6C02F010020592DC
:101BE000059A06951A6B42F001021A631B6B03F00B
:101BF00001030693069B4FF4C063099302230A93E3
:101C000003230C9307230D9309A94A4801F0F4F824
:101C100049484A4B03604FF0006343608560C560EC
:101C20004FF48063036145618561C561056245626A
:101C300001F0F8FA18BB404BA3639C634048414B4A
:101C400003604FF000634360402383600023C36060
:101C50004FF48062026143618361C3610362436246
:101C600001F0E0FA70B9364B63639C6300221146C1
:101C7000252001F001FD252001F036FD47E704F0A5
:101C8000CBFDD8E704F0C8FDEDE700250795264B0E
:101C90001A6C42F480221A641A6C02F480220792B1
:101CA000079A08951A6B42F002021A631B6B03F045
:101CB00002030893089B4FF44063099302230A939D
:101CC00003230C9307230D9309A91F4801F094F8EF
:101CD0001E481F4B03604FF0006343608560C56082
:101CE0004FF48063036145618561C5614FF48033C2
:101CF0000362456201F096FA58B9144BA3639C63E2
:101D000000221146272001F0B7FC272001F0ECFC4F
:101D1000FDE604F081FDF0E7004C0040005000407B
:101D20000010014000480040003802400008024016
:101D3000000C024000000240780600208864024047
:101D4000D8060020B8640240000402403807002092
:101D50002860024010B50368284A93420AD004461E
:101D6000274A934212D0274A93421FD0264A9342D1
:101D700031D010BD02F5F632136C23F40023136446
:101D80004FF44061214801F02DF9F2E702F5F432F9
:101D9000136C23F4801313644FF480511B4801F03B
:101DA00021F904211A4801F01DF9E2E702F5943205
:101DB000536C23F0100353644FF4C061154801F0D5
:101DC00011F9A06B01F094FA606B01F091FA2520F3
:101DD00001F098FCCDE702F5F832136C23F4802370
:101DE00013644FF440610C4801F0FCF8A06B01F063
:101DF0007FFA272001F086FCBBE700BF004C0040C3
:101E0000005000400010014000480040000802401F
:101E1000000C0240000002400004024003685A69BE
:101E200090F83E30DBB2222B01D00020704710B575
:101E3000044602F040027AB3226802F1140353E828
:101E4000003F23F04003143242E800310029F3D16F
:101E5000A06B08B101F0B3FA226802F10C0353E859
:101E6000003F23F490730C3242E800310029F3D193
:101E7000226802F1140353E8003F23F001031432F7
:101E800042E800310029F3D1236B012B06D0202337
:101E900084F83E3000232363002010BD226802F145
:101EA0000C0353E8003F23F010030C3242E80031EA
:101EB0000029F3D1EBE700002DE9F0470446007854
:101EC0005A285ED10F4616461D466378A52B01D0D1
:101ED000002057E0A378E27843EA0223DFF8A890D5
:101EE000A9F800302379627943EA0223DFF89CA045
:101EF000AAF80030DFF898800023A8F80030042208
:101F000021464046FFF761FDB9F80020A11D40467B
:101F1000FFF75BFDB8F80020BAF800309A422CD0E9
:101F200000202FE023185A78997842EA01222A806B
:101F3000DA78197942EA01226A805A799B7942EA71
:101F40000323AB800130BB1F834218DD0346225CB4
:101F5000B02AE7D0D02AF5D123445A78997842EABA
:101F600001223280DA78197942EA012272805A79A4
:101F70009B7942EA0323B380E4E70620E3E70120EC
:101F800000E00020BDE8F0870205002000050020E9
:101F9000FA04002010B582B00368384A12689342F0
:101FA00005D0374A1268934232D002B010BD1A6889
:101FB00012F0100FF9D0002200921A6800925B68AC
:101FC0000093009B2F4B1B685B689BB22E4A1380CB
:101FD000632BEAD8FFF722FF2B4B1A88C2F1640269
:101FE00092B22A4C6280237843F0010304F8043B48
:101FF0002146274803F0E4F8642221461F4803F0F5
:1020000009F80028D1D0234A136801331360CCE7C4
:102010001A6812F0100FC8D01A685A68002201928C
:102020001A6801925B680193019B1B4B1B685B68FC
:102030009BB21A4A1380312BB7D8FFF7EFFE174B2C
:102040001988C1F1320189B2154B1980142905D0C4
:10205000322214490A4802F0DDFFA6E7124B134A68
:102060001048FFF729FF20B9114A13880133138064
:10207000EEE7104A138801331380E9E79807002040
:10208000DC07002078060020040500201006002050
:1020900008050020A808002038070020E8040020D8
:1020A000AC080020CC0A0020F4040020EC0400203E
:1020B000FC040020FE04002038B50368134A1268AF
:1020C000934204D0124A1268934206D038BD32229D
:1020D00010490E4802F09EFFF8E70F4B1B685B6843
:1020E000C3F164030D4D6B802B7843F001032C4644
:1020F00004F8043B64222146054802F08BFF6A88FD
:102100002146074803F05CF8E0E700BFDC07002049
:1021100098070020CC0A0020780600201006002036
:1021200008050020FEE7FEE7FEE7FEE7FEE7704752
:102130007047704708B501F04BFB08BD08B5024871
:1021400001F09AF908BD00BF7802002008B50248E6
:1021500001F092F908BD00BF3807002008B5024819
:1021600001F08AF908BD00BFD802002010B5044C68
:10217000204602F05DFD2046FFF70CFF10BD00BFBA
:102180009807002010B5044C204602F051FD20466F
:10219000FFF700FF10BD00BFDC07002008B50248B4
:1021A00001F0A4FC08BD00BF5804002008B5024897
:1021B00001F062F908BD00BFAC01002008B502487B
:1021C00001F05AF908BD00BF0C02002008B5024812
:1021D00001F052F908BD00BF7806002008B502489A
:1021E00001F04AF908BD00BFD806002082B00021E6
:1021F00000910B4B5A6C42F480425A645A6C02F4C0
:1022000080420092009A01911A6C42F080521A6446
:102210001B6C03F080530193019B02B0704700BF19
:10222000003802404A4B5A6822F440325A605A68D9
:1022300041680A435A600268536823F4807353600C
:1022400002685368016943EA0123536002685368D6
:1022500023F0407353600268536881680B435360F6
:102260000268936823F40063936002689368C1680E
:102270000B439360826A374B9A4257D00268936847
:1022800023F07063936002689368816A0B439360E4
:102290000268936823F04053936002689368C16AB0
:1022A0000B4393600268936823F002039360026813
:1022B0009368017E43EA4103936090F82030002B3D
:1022C0003FD00268536843F4006353600268536868
:1022D00023F46043536001684B68426A013A43EA61
:1022E00042334B600268D36A23F47003D3620168FF
:1022F000CB6AC269013A43EA0253CB62026893682F
:1023000023F4007393600268936890F8301043EAF6
:10231000412393600268936823F4806393600268AA
:102320009368416943EA8123936070470268936828
:1023300023F0706393600268936823F040539360C6
:10234000B0E70268536823F400635360CAE700BF34
:10235000002301400100000F38B310B50446036CA0
:1023600043B1236C13F0100F0BD00120002384F82D
:102370003C3010BDFEF7A8FD0023636484F83C30B8
:10238000EFE7236C23F4885323F0020343F00203A6
:1023900023642046FFF746FF00206064236C23F08F
:1023A000030343F001032364E0E7012070470000CA
:1023B00010B582B013460022019290F83C20012A09
:1023C00000F0AE800446012280F83C20026890684C
:1023D00010F0010F13D1906840F001009060534A53
:1023E0001068534AA2FB0020800C00EB40000190D3
:1023F00002E001980138019001980028F9D1226883
:10240000906810F4807F03D0906820F48070906012
:102410002268906810F0010F77D0206C20F4E06003
:1024200020F0010040F480702064526812F4806F44
:1024300005D0226C22F4405242F480522264226C75
:1024400012F4805F36D0626C22F0060262640022D1
:1024500084F83C20A26B3748D063A26B36481064E6
:10246000A26B3648D06422686FF0220010602068AA
:10247000426842F0806242602068826842F4807262
:10248000826020680A4600F14C01A06B00F062FFF8
:102490002B4B5B6813F01F0F27D12368294A934207
:1024A00011D002F58072934207D0274A934214D08C
:1024B000002033E000226264C9E702F5007252682E
:1024C00012F01F0FF1D19A6812F0405F2AD19A687A
:1024D00042F080429A60002020E002F5807252684B
:1024E00012F0100FEFD0002018E02368154A934235
:1024F00001D0002012E09A6812F0405F14D19A686F
:1025000042F080429A60002008E0236C43F0100300
:102510002364636C43F001036364002002B010BDC8
:102520000220FBE70020F9E70020F7E70800002081
:1025300083DE1B43712500084F2500085B2500083A
:10254000002301400020014000220140704708B5EF
:10255000806BFFF7FBFF08BD704708B5806B402319
:102560000364436C43F004034364FFF7F5FF08BDC5
:1025700008B50346806B026C12F0500F25D1036C36
:1025800043F40073036403689A6812F0405F19D142
:10259000027EBAB9DA6A12F4700F03D09A6812F4A4
:1025A000806F0FD15A6822F020025A60036C23F426
:1025B00080730364036C13F4805F03D1036C43F0F6
:1025C00001030364FEF74AFD08BD026C12F0100F10
:1025D00004D1826BD26C18469047F5E7FFF7BCFF39
:1025E000F2E7000030B482B00022019290F83C2063
:1025F000012A00F0B6800346012280F83C200A68D8
:10260000092A40D90468E06892B202EB42021E3AFD
:102610004FF0070C0CFA02F220EA0202E2601C689A
:10262000E0680A8802EB42021E3A8D6805FA02F25F
:102630000243E2604A68062A3CD81C68606B02EBE1
:102640008202053A4FF01F0C0CFA02F220EA020255
:1026500062631C68606B4A6802EB8202053AB1F85B
:1026600000C00CFA02F20243626318683E4A9042CC
:1026700050D018683C4A904255D0002083F83C0066
:1026800002B030BC70470468206992B202EB42028B
:102690004FF0070C0CFA02F220EA020222611C68D9
:1026A00020690A8802EB42028D6805FA02F20243B1
:1026B0002261BFE70C2A16D81D68286B02EB820244
:1026C000233A1F2404FA02F220EA02022A631D6858
:1026D000286B4A6802EB8202233A0C8804FA02F261
:1026E00002432A63C1E71D68E86A02EB8202413AAD
:1026F0001F2404FA02F220EA0202EA621D68E86A74
:102700004A6802EB8202413A0C8804FA02F2024360
:10271000EA62AAE70A68122AABD11448426842F476
:1027200080024260A5E70A68103A012AA5D80F483E
:10273000426842F4000242600A68102A9DD10C4AA5
:1027400012680C49A1FB0212920C02EB82025200A9
:10275000019202E0019A013A0192019A002AF9D10C
:102760008BE702208CE700BF0020014000230140DE
:102770000800002083DE1B43002800F0E08170B5D4
:1027800082B00446036813F0010F3BD09F4B9B6857
:1027900003F00C03042B2CD09C4B9B6803F00C0320
:1027A000082B21D06368B3F5803F4FD0B3F5A02F3D
:1027B00052D0964B1A6822F480321A601A6822F4BA
:1027C00080221A606368002B50D001F00DF8054696
:1027D0008E4B1B6813F4003F14D101F005F8401B29
:1027E0006428F5D90320B1E1884B5B6813F4800FAE
:1027F000D8D0864B1B6813F4003F03D06368002BCE
:1028000000F09F81236813F0020F54D07F4B9B6828
:1028100013F00C0F3ED07D4B9B6803F00C03082B8C
:1028200033D0E368002B68D0794B01221A6000F0A6
:10283000DBFF0546754B1B6813F0020F54D100F007
:10284000D3FF401B0228F5D903207FE16F4A1368AC
:1028500043F480331360B5E76C4B1A6842F480226E
:102860001A601A6842F480321A60ABE700F0BCFFCD
:102870000546664B1B6813F4003FC3D000F0B4FF5D
:10288000401B6428F5D9032060E1604B5B6813F4BA
:10289000800FC6D15D4B1B6813F0020F03D0E368B5
:1028A000012B40F05081594A136823F0F803216945
:1028B00043EAC1031360236813F0080F42D0636931
:1028C0006BB3534B0122C3F8802E00F08DFF0546F9
:1028D0004E4B5B6F13F0020F34D100F085FF401BAD
:1028E0000228F5D9032031E1484A136823F0F803A0
:1028F000216943EAC1031360DDE7454B00221A60FA
:1029000000F072FF0546414B1B6813F0020FD2D056
:1029100000F06AFF401B0228F5D9032016E13C4B6A
:102920000022C3F8802E00F05FFF0546374B5B6F37
:1029300013F0020F06D000F057FF401B0228F5D914
:10294000032003E1236813F0040F77D02F4B1B6C97
:1029500013F0805F33D1002301932C4B1A6C42F0AB
:1029600080521A641B6C03F080530193019B012574
:10297000284B1B6813F4807F23D0A368012B34D02D
:10298000052B38D0214B1A6F22F001021A671A6FFB
:1029900022F004021A67A368002B3DD000F024FF48
:1029A00006461A4B1B6F13F0020F46D100F01CFFB6
:1029B000801B41F288339842F3D90320C6E00025FA
:1029C000D6E7144A136843F48073136000F00CFFD9
:1029D0000646104B1B6813F4807FCED100F004FF35
:1029E000801B0228F5D90320B0E0084A136F43F09A
:1029F00001031367CFE7054B1A6F42F004021A6711
:102A00001A6F42F001021A67C5E700BF00380240A2
:102A1000000047420070004000F0E6FE0646524BC0
:102A20001B6F13F0020F08D000F0DEFE801B41F296
:102A300088339842F3D9032088E0EDB9A369002BCD
:102A400000F08380484A926802F00C02082A51D0B4
:102A5000022B17D0454B00221A6600F0C5FE044633
:102A6000414B1B6813F0007F42D000F0BDFE001BFD
:102A70000228F5D9032069E03B4A136C23F0805308
:102A80001364DBE7394B00221A6600F0ADFE054601
:102A9000354B1B6813F0007F06D000F0A5FE401BED
:102AA0000228F5D9032051E0E369226A1343626AE0
:102AB00043EA8213A26A5208013A43EA0243E26AF5
:102AC00043EA0263284A5360284B01221A6600F049
:102AD0008BFE0446244B1B6813F0007F06D100F0E8
:102AE00083FE001B0228F5D903202FE000202DE0F3
:102AF00000202BE0012B2BD01B4B5B6803F48001E3
:102B0000E269914226D103F03F02216A8A4223D131
:102B1000616A47F6C0721A40B2EB811F1ED103F4FE
:102B20004031A26A5208013AB1EB024F18D103F0CA
:102B30007063E26AB3EB026F14D1002006E001205B
:102B40007047012002E0012000E0002002B070BDCB
:102B50000120FBE70120F9E70120F7E70120F5E775
:102B60000120F3E70120F1E700380240000047426E
:102B700008B5334B9B6803F00C03042B5BD0082B88
:102B80005BD12F4B5A6802F03F025B6813F4800F51
:102B90002CD02B4B5868C0F388104FEA401CBCEB7C
:102BA000000C6EEB0E0E4FEA8E1343EA9C634FEA65
:102BB0008C11B1EB0C0163EB0E03DB0043EA5173A4
:102BC000C90011EB000C43F10003590200234FEA46
:102BD0004C2041EADC51FEF747F8194B5B68C3F320
:102BE000014301335B00B0FBF3F027E0144B58685E
:102BF000C0F388104FEA401CBCEB000C6EEB0E0ECD
:102C00004FEA8E1343EA9C634FEA8C11B1EB0C013F
:102C100063EB0E03DB0043EA5173C90011EB000CB8
:102C200043F10003990200234FEA8C2041EA9C51B2
:102C3000FEF71AF8D1E7034800E0034808BD00BFDB
:102C40000038024000127A000024F400002800F04E
:102C50009B8070B50D4604464F4B1B6803F007037D
:102C60008B4208D2CBB24C4A1370136803F00703AF
:102C70008B4240F08B80236813F0020F17D013F0C3
:102C8000040F04D0454A936843F4E05393602368EB
:102C900013F0080F04D0414A936843F460439360F3
:102CA0003E4A936823F0F003A1680B4393602368C6
:102CB00013F0010F32D06368012B21D09A1E012A34
:102CC00025D9364A126812F0020F61D033498A685A
:102CD00022F0030213438B6000F086FD06462F4B63
:102CE0009B6803F00C036268B3EB820F16D000F010
:102CF0007BFD801B41F288339842F0D9032042E0EB
:102D0000264A126812F4003FE0D101203BE0234A3A
:102D1000126812F0007FD9D1012034E01E4B1B68ED
:102D200003F00703AB4207D9EAB21B4B1A701B68CA
:102D300003F00703AB422DD1236813F0040F06D034
:102D4000164A936823F4E053E1680B4393602368C9
:102D500013F0080F07D0114A936823F460432169E8
:102D600043EAC1039360FFF703FF0C4B9B68C3F377
:102D700003130B4AD35CD8400A4B18600A4B1868FF
:102D800000F0E6FC002070BD012070470120FAE74A
:102D90000120F8E70120F6E7003C0240003802403D
:102DA000387C00080800002004000020014B18684F
:102DB000704700BF0800002008B5FFF7F7FF044B7D
:102DC0009B68C3F38223034AD35CD84008BD00BF8D
:102DD00000380240487C000808B5FFF7E7FF044BC5
:102DE0009B68C3F34233034AD35CD84008BD00BF9D
:102DF00000380240487C000800230F2B00F2E980D5
:102E000070B582B065E085684FEA430E032404FA8A
:102E10000EF425EA0405CC6804FA0EF42C43846011
:102E2000446824EA02044A68C2F300129A4022432A
:102E300042605CE0DC08083450F8242003F0070509
:102E4000AD004FF00F0E0EFA05FE22EA0E0E0A69D3
:102E5000AA4042EA0E0240F824205CE0072200E08B
:102E6000002202FA0EF22A4302345A4D45F8242079
:102E7000594A94686FEA0C0224EA0C054E6816F46D
:102E8000801F01D04CEA0405534CA560E46802EAB7
:102E900004054E6816F4001F01D04CEA04054E4CA0
:102EA000E560646802EA04054E6816F4003F01D04C
:102EB0004CEA0405484C6560246822404D6815F4CE
:102EC000803F01D04CEA0402434C226001330F2BB7
:102ED0007DD801229A400C6804EA020C32EA04040C
:102EE000F4D14C6804F00304013C012C8BD94A68EE
:102EF00002F00302032A09D0C4685D000322AA403D
:102F000024EA02048A68AA402243C2604A6802F0A6
:102F10000302022A8ED004684FEA430E032202FA0B
:102F20000EF224EA02044A6802F0030202FA0EF2E8
:102F3000224302604A6812F4403FC7D00022019247
:102F4000264A546C44F480445464526C02F4804227
:102F50000192019A9C08A51C1E4A52F8255003F0C4
:102F6000030E4FEA8E0E0F2202FA0EF225EA020538
:102F70001B4A90423FF474AF02F5806290421AD02F
:102F800002F58062904218D002F58062904216D01D
:102F900002F58062904214D002F58062904212D015
:102FA00002F58062904210D002F5806290423FF4B8
:102FB00055AF082255E7012253E7022251E70322C9
:102FC0004FE704224DE705224BE7062249E702B00E
:102FD00070BD704700380140003C0140003802409D
:102FE0000000024000230F2B00F28F80F0B52DE08F
:102FF000072500E0002505FA0CF5A54269D0046814
:103000005D004FF0030C0CFA05FC24EA0C0404608C
:103010004FEAD30E0EF1080E50F82E4003F00706CB
:10302000B6000F25B54024EA050440F82E40C468D8
:1030300024EA0C04C460446824EA02024260826804
:1030400022EA0C02826001330F2B5DD801229A40E4
:1030500002EA010632EA0104F5D14FEA930E0EF1BD
:1030600002052A4C54F8254003F0030C4FEA8C0C5F
:103070000F2505FA0CF73C40254DA842BAD005F5BE
:103080008065A84219D005F58065A84217D005F5DE
:103090008065A84215D005F58065A84213D005F5D6
:1030A0008065A84211D005F58065A8420FD005F5CE
:1030B0008065A8429CD008259DE701259BE7022555
:1030C00099E7032597E7042595E7052593E7062566
:1030D00091E7104C256825EA06052560656825EA14
:1030E00006056560E56825EA0605E560A56825EA48
:1030F0000605A560054E0EF1020456F8245025EA97
:10310000070546F824507AE7F0BD704700380140C3
:1031100000000240003C01400AB18161704709048F
:103120008161704730B405682C6824F480242C60D9
:10313000046863608368402B05D003689960036866
:10314000DA6030BC704703689A600368D960F8E7BA
:1031500010B40368D9B210390C4AA2FB014212091B
:103160000B4CA25CC2655F2909D923F47F7323F05D
:10317000030304338365806D5DF8044B704723F4CB
:103180007F7323F003038365F5E700BFABAAAAAA08
:10319000307C0008836A826992B9012B0AD0022B25
:1031A00002D00BB100207047C36A13F0807F28D192
:1031B00000207047C36AB3F1C07F24D0002070475D
:1031C000B2F5005F09D0022B25D9032B25D1C36AA4
:1031D00013F0807F23D100207047032B03D8DFE852
:1031E00003F01404140A00207047C36A13F0807FB0
:1031F0000DD100207047C36AB3F1C07F09D0002011
:10320000704701207047012070470120704701205E
:10321000704701207047012070470020704701204F
:103220007047000070B5044600F0DEFA002C5BD059
:103230000546022384F83530002384F834302268B0
:10324000136823F00103136023681A6812F0010F5A
:103250000AD000F0C9FA431B052BF5D9202363657A
:10326000032084F8350070BD1A6820491140626857
:10327000A0680243E0680243206902436069024398
:10328000A0690243E0690243206A02430A43616A7B
:1032900004291ED01A602668756925F00705636A3F
:1032A0001D43042B07D1A36A1D43E36A1BB12046CB
:1032B000FFF770FF90B975612046FFF749FFE26D97
:1032C0003F239340836000206065012384F83530FC
:1032D000C9E7E16A206B01430A43DBE740236365EA
:1032E000012084F83500BEE70120BCE73F8010F0E4
:1032F00000282DD038B5054690F83500C0B2022818
:1033000025D02A68136823F0010313602B6800247A
:103310001C602B685C602B689C602B68DC602B68F1
:103320001C612B6821225A612846FFF711FFEC63CC
:103330002C646C64AC64EC642C65EA6D3F239340B0
:1033400083606C6585F8354085F83440204638BD8B
:103350000120704738B50446856D90F83400012887
:103360002BD0012084F8340094F83500C0B2012835
:1033700004D0002384F83430022038BD022084F8C1
:103380003500002060652046FFF7CCFEE26D3F234C
:103390009340AB602268136843F016031360236CFC
:1033A00023B12268136843F008031360226813688E
:1033B00043F0010313600020DFE70220DDE770B572
:1033C0000446866D00F010FA94F83530DBB2022B1B
:1033D00006D080236365002384F83430012070BD5B
:1033E00005462268136823F01603136022685369A8
:1033F00023F080035361236CE3B12268136823F048
:10340000080313602268136823F001031360236824
:103410001B6813F0010F11D000F0E6F9431B052BD8
:10342000F5D920236365032084F83500002384F850
:103430003430D4E7A36C002BDFD1E3E7E26D3F2308
:103440009340B360012384F83530002084F83400C1
:10345000C5E790F83530DBB2022B03D080234365FB
:1034600001207047052380F835300268136823F087
:103470000103136000207047F0B583B004460023B9
:103480000193724B1D68724BA3FB0535AD0A876D26
:103490003E68C26D08239340334210D003681A6817
:1034A00012F0040F0BD01A6822F004021A60C26DE9
:1034B00008239340BB60436D43F001034365E26D15
:1034C00001239340334209D02268526912F0800FE1
:1034D00004D0BB60636D43F002036365E26D0423B7
:1034E0009340334209D02268126812F0020F04D0D0
:1034F000BB60636D43F004036365E26D102393408A
:10350000334224D02268126812F0080F1FD0BB602B
:1035100023681A6812F4802F0DD01B6813F4002F53
:1035200004D1236C9BB12046984710E0A36C73B183
:10353000204698470BE01A6812F4807F03D11A687E
:1035400022F008021A60236C0BB120469847E26D06
:1035500020239340334255D02268126812F0100F96
:1035600050D0BB6094F83530DBB2052B0ED0236809
:103570001A6812F4802F33D01B6813F4002F2AD15D
:10358000636C002B3ED0204698473BE022681368CE
:1035900023F0160313602268536923F080035361FC
:1035A000236CA3B12268136823F008031360E26D53
:1035B0003F239340BB60012384F83530002384F817
:1035C0003430236D002B3FD0204698473CE0A36C5D
:1035D000002BE7D1EBE7E36BA3B12046984711E05E
:1035E0001A6812F4807F09D11A6822F010021A605A
:1035F000012384F83530002384F83430E36B0BB1B9
:1036000020469847636DFBB1636D13F0010F17D02F
:10361000052384F835302268136823F00103136012
:10362000019B01330193AB4204D823681B6813F05C
:10363000010FF5D1012384F83530002384F83430AC
:10364000E36C0BB12046984703B0F0BD08000020A2
:10365000B5814E1B074AD36823F4E0631B041B0C9F
:10366000000200F4E060034343F0BF6343F400331F
:10367000D360704700ED00E000B5194BDB68C3F381
:103680000223C3F1070CBCF1040F28BF4FF0040C58
:1036900003F1040EBEF1060F18D9033B4FF0FF3EB5
:1036A0000EFA0CFC21EA0C0199400EFA03FE22EA04
:1036B0000E020A4300280BDB1201D2B200F1604077
:1036C00000F5614080F800235DF804FB0023E5E786
:1036D00000F00F001201D2B2024B1A54F4E700BFFF
:1036E00000ED00E014ED00E0002807DB00F01F0211
:1036F000400901239340024A42F82030704700BF3E
:1037000000E100E000280CDB00F01F02400901236B
:1037100093402030034A42F82030BFF34F8FBFF36D
:103720006F8F704700E100E00138B0F1807F0BD26D
:103730004FF0E0235861054AF02182F82310002061
:10374000986107221A6170470120704700ED00E080
:1037500010B504460E4B1A784FF47A73B3FBF2F3AC
:103760000C4A1068B0FBF3F0FFF7DEFF68B90F2CCE
:1037700001D901200AE0002221464FF0FF30FFF777
:103780007BFF054B1C60002000E0012010BD00BF46
:1037900000000020080000200400002008B50B4BAA
:1037A0001A6842F400721A601A6842F480621A6061
:1037B0001A6842F480721A600320FFF74BFF0F2053
:1037C000FFF7C6FFFEF712FD002008BD003C0240D7
:1037D000034A1168034B1B780B441360704700BF0A
:1037E000B008002000000020014B1868704700BF9F
:1037F000B008002038B50446FFF7F6FF0546B4F1DF
:10380000FF3F02D0044B1B781C44FFF7EDFF401B29
:10381000A042FAD338BD00BF0000002030B4036AD4
:1038200023F001030362036A4268846924F0730C85
:103830000C6844EA0C0423F0020C8B6843EA0C0386
:10384000114DA84203D005F58065A84205D123F0AB
:103850000803CD682B4323F004030B4DA84203D08B
:1038600005F58065A84207D122F440724D6945EA0A
:10387000020C8A6942EA0C02426084614A6842632F
:10388000036230BC704700BF0000014030B4036ADF
:1038900023F480730362036A4268C46924F0730CE2
:1038A0000C6844EA0C0523F400738C6843EA042393
:1038B000114CA04203D004F58064A04206D123F449
:1038C0000063CC6843EA042323F480630A4CA042DB
:1038D00003D004F58064A04207D122F440524C6921
:1038E00042EA04128C6942EA04124260C5614A68E5
:1038F000C263036230BC70470000014030B4036A09
:1039000023F480530362036A4468C26922F4E642E6
:103910000D6842EA052223F400538D6843EA05331B
:10392000094DA84203D005F58065A84204D124F4CE
:1039300080444D6944EA85144460C2614A68026467
:10394000036230BC704700BF0000014010B4036A3E
:10395000046A24F001040462846924F0F00C4CEA47
:10396000021223F00A030B43826103625DF8044BE9
:10397000704710B4036A23F0100303628469036A7A
:1039800024F4704C4CEA023223F0A00343EA011302
:10399000826103625DF8044B7047836823F0700313
:1039A0000B4343F0070383607047000090F83D30FD
:1039B000DBB2012B37D1022380F83D300268D36897
:1039C00043F00103D3600368194A934220D0B3F156
:1039D000804F1DD0A2F57C42934219D002F580623F
:1039E000934215D002F58062934211D002F57842DD
:1039F00093420DD002F57052934209D0A2F5943251
:103A0000934205D01A6842F001021A600020704704
:103A10009A6802F00702062A07D01A6842F00102EB
:103A20001A6000207047012070470020704700BFD7
:103A30000000014070477047704710B5846B636A9F
:103A400083420ED0A36A834214D0E36A83421AD021
:103A5000236B834220D02046FDF7A8FF0023237765
:103A600010BD01232377C369002BF4D1012384F80F
:103A70003E30F0E702232377C369002BEBD101230B
:103A800084F83F30E7E704232377C369002BE2D1B2
:103A9000012384F84030DEE708232377C369002B35
:103AA000D9D1012384F84130D5E7704710B5846B34
:103AB000636A83420BD0A36A834210D0E36A8342D5
:103AC00010D0236B834204D10823237701E0012324
:103AD00023772046FFF7E9FF0023237710BD022359
:103AE0002377F6E704232377F3E7704710B50446FE
:103AF00003681A6912F0020F11D0DA6812F0020F8F
:103B00000DD06FF002021A610123037703689B69ED
:103B100013F0030F70D0FFF78FFF00232377236884
:103B20001A6912F0040F12D0DA6812F0040F0ED0E6
:103B30006FF004021A610223237723689B6913F450
:103B4000407F5FD02046FFF777FF0023237723686D
:103B50001A6912F0080F12D0DA6812F0080F0ED0AE
:103B60006FF008021A61042323772368DB6913F0DE
:103B7000030F4ED02046FFF75FFF00232377236813
:103B80001A6912F0100F12D0DA6812F0100F0ED06E
:103B90006FF010021A61082323772368DB6913F49E
:103BA000407F3DD02046FFF747FF0023237723685F
:103BB0001A6912F0010F03D0DA6812F0010F36D142
:103BC00023681A6912F0800F03D0DA6812F0800FB0
:103BD00034D123681A6912F0400F03D0DA6812F06A
:103BE000400F32D123681A6912F0200F03D0DA682F
:103BF00012F0200F30D110BDFFF71DFF2046FDF75A
:103C0000D5FE8AE72046FFF716FF2046FDF7CEFED9
:103C10009BE72046FFF70FFF2046FDF7C7FEACE706
:103C20002046FFF708FF2046FDF7C0FEBDE76FF016
:103C300001021A612046FDF7ADFEC1E76FF0800278
:103C40001A61204600F09CFDC3E76FF040021A6144
:103C50002046FFF74AFFC5E76FF020021A612046B1
:103C600000F08DFDC7E7704710B5846B636A83422F
:103C70000CD0A36A834213D0E36A834216D0236B2D
:103C8000834219D0012384F83D3003E001232377D8
:103C900084F83E302046FFF7E6FF0023237710BD6F
:103CA00002232377012384F83F30F3E704232377AB
:103CB000012384F84030EDE708232377012384F8BB
:103CC0004130E7E70368304A904212D0B0F1804FAC
:103CD0000FD0A2F57C4290420BD002F58062904258
:103CE00007D002F58062904203D002F578429042FC
:103CF00003D123F070034A681343234A90422AD029
:103D0000B0F1804F27D0A2F57C42904223D002F53B
:103D1000806290421FD002F5806290421BD002F573
:103D20007842904217D002F57052904213D002F5BB
:103D3000806290420FD002F5806290420BD0A2F5D3
:103D40009832904207D002F58062904203D002F58B
:103D50008062904203D123F44073CA68134323F076
:103D600080034A69134303608B68C3620B688362F4
:103D7000054B984203D003F58063984201D10B694B
:103D800003630123436170470000014040B310B555
:103D9000044690F83D30F3B1022384F83D302146CB
:103DA00051F8040BFFF78EFF012384F8463084F8A6
:103DB0003E3084F83F3084F8403084F8413084F855
:103DC000423084F8433084F8443084F8453084F835
:103DD0003D30002010BD80F83C30FDF757FBDBE79D
:103DE0000120704740B310B5044690F83D30F3B160
:103DF000022384F83D30214651F8040BFFF762FF9F
:103E0000012384F8463084F83E3084F83F3084F84B
:103E1000403084F8413084F8423084F8433084F8EC
:103E2000443084F8453084F83D30002010BD80F8DF
:103E30003C30FFF7FFFDDBE701207047002853D03F
:103E4000F8B50D46044690F83D30002B47D00223CC
:103E500084F83D302268936823F4804323F00703FD
:103E60009360214651F8040BFFF72CFF21688B6803
:103E70008A690E6A2868184322F4407222F003020D
:103E8000AB68AF6943EA0723134323F47C4323F071
:103E9000FC03EA68EF6942EA07221A432B6A1B0314
:103EA0002F6943EA0713134326F0AA066A686D696F
:103EB00042EA05123243886021688B6123681A62E6
:103EC000012384F8463084F83E3084F83F3084F88B
:103ED000423084F8433084F83D300020F8BD80F84B
:103EE0003C30FDF763FAB2E70120704730B4036A53
:103EF00023F010030362036A4468826922F4E642F5
:103F00000D6842EA052223F020038D6843EA051379
:103F1000114DA84203D005F58065A84206D123F0D3
:103F20008003CD6843EA051323F040030A4DA842FD
:103F300003D005F58065A84207D124F440644D699B
:103F400044EA85048D6944EA8504446082614A68D4
:103F50008263036230BC70470000014038B590F8BE
:103F60003C30012B66D004460D46012380F83C30DE
:103F70000C2A5AD8DFE802F0075959591B595959E8
:103F80003059595944000068FFF748FC226893698A
:103F900043F0080393612268936923F0040393615B
:103FA0002268936929690B43936100203EE0006811
:103FB000FFF79CFF2268936943F4006393612268D2
:103FC000936923F48063936122689369296943EAC2
:103FD00001239361002029E00068FFF757FC226865
:103FE000D36943F00803D3612268D36923F0040343
:103FF000D3612268D36929690B43D361002015E09E
:104000000068FFF77BFC2268D36943F40063D36147
:104010002268D36923F48063D3612268D369296954
:1040200043EA0123D361002000E00120002384F84B
:104030003C3038BD0220FCE710B4846824F47F4C87
:1040400042EA03220A4342EA0C0282605DF8044B12
:10405000704790F83C30012B78D010B5044601230E
:1040600080F83C30022380F83D300268936823F4E6
:104070007F4323F0770393600B68602B4CD029D8E3
:10408000402B54D00CD9502B22D1CA684968006803
:10409000FFF75CFC50212068FFF77FFC002005E063
:1040A000202B0DD009D9302B0AD00120012384F810
:1040B0003D30002384F83C3010BD0BB1102B05D1EE
:1040C00019462068FFF769FC0020EFE70120EDE7C3
:1040D0000120EBE7B3F5805F34D0B3F5005F0CD17E
:1040E000CB684A6889680068FFF7A6FF2268936872
:1040F00043F4804393600020D8E7702B24D1CB6831
:104100004A6889680068FFF797FF2268936843F060
:10411000770393600020C9E7CA6849680068FFF721
:1041200028FC60212068FFF738FC0020BEE7CA6841
:1041300049680068FFF70AFC40212068FFF72DFC62
:104140000020B3E70020B1E70120AFE7022070476D
:1041500001F01F014FF0010C0CFA01FC036A23EA85
:104160000C030362036A8A40134303627047000032
:1041700010B504460846002942D194F83E30DBB21F
:10418000013B18BF0123002B6ED1002851D102231F
:1041900084F83E30012201462068FFF7D9FF2368EA
:1041A000334A934203D002F58062934203D15A6CA2
:1041B00042F400425A6423682D4A934249D0B3F135
:1041C000804F46D0A2F57C42934242D002F58062F5
:1041D00093423ED002F5806293423AD002F5784293
:1041E000934236D002F57052934232D0A2F5943207
:1041F00093422ED01A6842F001021A60002032E089
:10420000042908D008290DD094F84130DBB2013BD5
:1042100018BF0123B7E794F83F30DBB2013B18BF6A
:104220000123B0E794F84030DBB2013B18BF012313
:10423000A9E7042805D0082807D0022384F84130D4
:10424000A8E7022384F83F30A4E7022384F8403033
:10425000A0E79A6802F00702062A07D01A6842F01F
:1042600001021A60002010BD0120FCE70020FAE7DF
:104270000000014070B5044616460D4600292ED1B7
:1042800090F83E00C0B2022814BF00200120002890
:1042900040F00D81002D3ED194F83E20D2B2012A8B
:1042A00014BF00220122002A00F00381002E4ED00C
:1042B000002D50D1022284F83E200C2D00F2FB800C
:1042C000DFE815F05900F900F900F900A600F9003F
:1042D000F900F900BD00F900F900F900D400042943
:1042E00009D008290FD090F84100C0B2022814BFAD
:1042F00000200120CBE790F83F00C0B2022814BF95
:1043000000200120C3E790F84000C0B2022814BF8B
:1043100000200120BBE7042D09D0082D0FD094F810
:104320004120D2B2012A14BF00220122BBE794F837
:104330003F20D2B2012A14BF00220122B3E794F831
:104340004020D2B2012A14BF00220122ABE7002B89
:10435000AED00120AEE0042D05D0082D07D00222FA
:1043600084F84120A9E7022284F83F20A5E7022231
:1043700084F84020A1E7626A5549D163626A5549D1
:104380001164626A5449D164226834323146606AE9
:10439000FEF7E0FF002840F090802268D36843F4E5
:1043A0000073D360012229462068FFF7D1FE2368FD
:1043B0004A4A934203D002F58062934203D15A6C79
:1043C00042F400425A642368444A934264D0B3F1F1
:1043D000804F61D0A2F57C4293425DD002F58062AD
:1043E000934259D002F58062934255D002F578424B
:1043F000934251D002F5705293424DD0A2F59432BF
:10440000934249D01A6842F001021A60002051E03C
:10441000A26A2F49D163A26A2E491164A26A2E4969
:10442000D164226838323146A06AFEF793FF002833
:1044300045D12268D36843F48063D360B2E7E26A6F
:104440002349D163E26A23491164E26A2249D164B3
:1044500022683C323146E06AFEF77CFF002830D10A
:104460002268D36843F40063D3609BE7226B18494A
:10447000D163226B17491164226B1749D1642268FA
:1044800040323146206BFEF765FFE0B92268D36801
:1044900043F48053D36085E79A6802F00702062A46
:1044A00013D01A6842F001021A60002002E00220D4
:1044B00000E0012070BD0120FCE70120FAE70120A7
:1044C000F8E70120F6E70120F4E70020F2E700BF5B
:1044D0003B3A0008AD3A0008693C00080000014082
:1044E00038B504460D460C2970D8DFE801F0076F97
:1044F0006F6F326F6F6F3B6F6F6F44000268D368EE
:1045000023F40073D360406AFEF7A3FF002229461C
:104510002068FFF71DFE23682D4A934234D002F530
:104520008062934230D02368196A41F2111211421D
:1045300008D1196A40F24442114203D11A6822F0AC
:1045400001021A60002D2ED1012384F83E30002094
:104550003DE00268D36823F48063D360806AFEF78D
:1045600078FFD3E70268D36823F40063D360C06A9E
:10457000FEF76FFFCAE70268D36823F48053D36065
:10458000006BFEF766FFC1E7196A41F21112114292
:10459000C9D1196A40F244421142C4D15A6C22F482
:1045A00000425A64BFE7042D06D0082D09D001232C
:1045B00084F8413000200AE0012384F83F300020D5
:1045C00005E0012384F84030002000E0012038BDE0
:1045D0000000014038B5044690F83E00C0B294F89F
:1045E0003F3094F84220D2B294F843C00D46B1B99E
:1045F000012849D1012A48D1022384F83E3084F8A9
:1046000042307DB3042D39D0012200212068FFF70C
:104610009FFD012204212068FFF79AFD27E0DBB20D
:104620005FFA8CFC042912D0012833D1012B2CD144
:10463000012A31D1BCF1010F30D1022384F83E3080
:1046400084F83F3084F8423084F84330D9E7012BB6
:104650001CD1BCF1010F1BD1022384F83F3084F838
:104660004330CEE7012200212068FFF771FD226868
:10467000136843F001031360002006E001220421C7
:104680002068FFF765FDF2E7012038BD0120FCE757
:104690001846FAE70120F8E71846F6E71046F4E76F
:1046A00090F83C20012A3DD010B40346012280F846
:1046B0003C20022280F83D2002685068946820F077
:1046C000700C086840EA0C0050601A681648824274
:1046D0001AD0B2F1804F17D0A0F57C40824213D09F
:1046E00000F5806082420FD000F5806082420BD0DE
:1046F00000F57840824207D000F57050824203D026
:10470000A0F59430824204D124F08004496821430A
:104710009160012283F83D20002083F83C005DF881
:10472000044B70470220704700000140024690F899
:104730003C30012B21D0012380F83C30CB6823F49E
:1047400040738868034323F480634868034323F479
:1047500000630868034323F480530869034323F488
:1047600000534869034323F48043C9690B4311682C
:104770004B64002082F83C0070470220704770476D
:104780007047026802F10C0353E8003F23F0C003B6
:104790000C3242E800310029F3D1202380F83D306B
:1047A0007047026802F10C0353E8003F23F4907352
:1047B0000C3242E800310029F3D1026802F11403FF
:1047C00053E8003F23F00103143242E8003100298E
:1047D000F3D1036B012B05D0202380F83E3000235A
:1047E00003637047026802F10C0353E8003F23F0B3
:1047F00010030C3242E800310029F3D1ECE790F8C5
:104800003D30DBB2212B01D0022070478368B3F525
:10481000805F17D0036A5A1C02621A7803685A60D4
:10482000C38C9BB2013B9BB2C3844BB90268D36873
:1048300023F08003D3600268D36843F04003D36061
:10484000002070470369002BE4D1036A1B880268CB
:10485000C3F308035360036A02330362E0E7000016
:1048600010B504460268136923F44053C1680B4332
:104870001361836802691A4343691A43C3691A437F
:104880000168CB6823F4164323F00C031343CB6079
:104890000268536923F4407381690B4353610368D1
:1048A000314A934206D002F58062934202D0FEF76D
:1048B00083FA01E0FEF790FAE369B3F5004F29D0DF
:1048C0000021031849411B1841F10001C90041EAC8
:1048D0005371DB00181863684FEA83024FEA937341
:1048E00041F10001FCF7C0F9204AA2FB003149095F
:1048F000642303FB11031B013233A2FB03235B0977
:1049000003F0F00202EB011203F00F0321681344DD
:104910008B6010BD0023021843EB0301121841F114
:104920000001C90041EA5271D200101841F10001A2
:10493000626892185B41FCF797F90C4AA2FB0031C0
:104940004909642303FB1103DB003233A2FB032379
:104950005B095A0002F4F87202EB011203F007033C
:10496000216813448B60D4E7001001401F85EB5190
:1049700058B310B5044690F83D300BB3242384F8A7
:104980003D302268D36823F40053D3602046FFF7FC
:1049900067FF2268136923F4904313612268536907
:1049A00023F02A0353612268D36843F40053D36091
:1049B00000202064202384F83D3084F83E3010BD70
:1049C00080F83C30FDF78CF8D8E7012070470000F4
:1049D00038B5134690F83D20D2B2202A37D104468C
:1049E000002936D0002B36D090F83C20012A34D054
:1049F000012280F83C2001628384C3840025056481
:104A0000212280F83D20426B1548D063626B154827
:104A10001064626B1448D064626B156522680432BE
:104A2000606BFEF797FC23686FF040021A6084F811
:104A30003C50226802F1140353E8003F43F0800326
:104A4000143242E800310029F3D1002000E00220B6
:104A500038BD0120FCE70120FAE70220F8E700BF9B
:104A60006F4A0008D74A0008E54A0008704708B5B1
:104A70000346806B1B681B6813F4807F1AD10023E8
:104A8000C384026802F1140353E8003F23F080035B
:104A9000143242E800310029F3D1026802F10C031C
:104AA00053E8003F43F040030C3242E80031002954
:104AB000F3D108BDFFF7DAFFFBE708B50168CA6864
:104AC00022F04002CA60202280F83D20FFF7CEFF8E
:104AD000002008BD704708B5806BFFF7FBFF08BDDD
:104AE0007047704710B5846B23685A6994F83D305D
:104AF000DBB2212B10D023685A6902F0400294F8EF
:104B00003E30DBB2222B11D0236C43F01003236420
:104B10002046FFF7E6FF10BD02F08002002AEAD02F
:104B20000023E3842046FFF72CFEE4E7002AEBD0C5
:104B30000023E3852046FFF734FEE5E708B5806BE8
:104B40000023C385C384FFF7CCFF08BD704790F8EE
:104B50003E30DBB2222B67D18368B3F5805F4DD046
:104B6000826AB3F5805F04D0002B54D10369002B17
:104B700051D103685B681370836A01338362C38D0C
:104B80009BB2013B9BB2C385002B4FD100B583B0D4
:104B90000268D36823F02003D3600268D36823F44B
:104BA0008073D3600268536923F0010353612023AB
:104BB00080F83E30036B012B33D10023036302687E
:104BC00002F10C0353E8003F23F010030C3242E8DB
:104BD00000310029F3D103681A6812F0100F06D0D3
:104BE000002201921A6801925B680193019B818DFA
:104BF000FFF7ACFF002003B05DF804FB0269002A58
:104C0000AED1826A03685B68C3F308031380836ACA
:104C100002338362B3E703685B6803F07F031370BA
:104C2000AAE7FDF749FAE5E7022070470020704740
:104C300030B583B0044602681368D068516913F038
:104C40000F0505D113F0200F02D010F0200F19D15D
:104C50002DB111F0010119D110F4907F16D1216B03
:104C600001297DD013F0800F03D010F0800F40F0A9
:104C7000158113F0400F03D010F0400F40F0128167
:104C800003B030BD2046FFF762FFF9E713F0010FD4
:104C900006D010F4807F03D0226C42F0010222641F
:104CA00013F0040F04D019B1226C42F00202226406
:104CB00013F0020F04D019B1226C42F004022264F6
:104CC00013F0080F07D010F0200F00D119B1226C9B
:104CD00042F008022264226C002AD1D013F0200F87
:104CE00002D010F0200F29D123685B6903F0400344
:104CF000226C12F0080F00D163B32046FFF751FD7C
:104D000023685B6913F0400F20D0226802F114037E
:104D100053E8003F23F04003143242E800310029F9
:104D2000F3D1A36B73B1614A1A65A06BFEF791FBD7
:104D30000028A5D0A06B036D9847A1E72046FFF798
:104D400006FFD1E72046FFF7CCFE99E72046FFF7A4
:104D5000C8FE95E72046FFF7C4FE002323648FE7D3
:104D600013F0100F3FF47EAF10F0100F3FF47AAF46
:104D7000002301931368019353680193019B5369C6
:104D800013F0400F50D0A26B13685B689BB2002BEE
:104D90003FF476AFA18D99427FF672AFE385D36978
:104DA000B3F5807F37D0226802F10C0353E8003F4F
:104DB00023F480730C3242E800310029F3D12268D9
:104DC00002F1140353E8003F23F00103143242E8D8
:104DD00000310029F3D1226802F1140353E8003FA7
:104DE00023F04003143242E800310029F3D120239C
:104DF00084F83E3000232363226802F10C0353E859
:104E0000003F23F010030C3242E800310029F3D1B7
:104E1000A06BFEF7D4FAA18DE38D9BB2C91A89B2BB
:104E20002046FFF793FE2BE7A18DE38D9BB2C91AB5
:104E300089B2E38D9BB2002B3FF422AF00293FF4EF
:104E40001FAF226802F10C0353E8003F23F4907374
:104E50000C3242E800300028F3D1226802F114033A
:104E600053E8003F23F00103143242E800300028E9
:104E7000F3D1202384F83E3000232363226802F11B
:104E80000C0353E8003F23F010030C3242E80030DB
:104E90000028F3D12046FFF759FEF1E62046FFF740
:104EA000AEFCEDE62046FFF708FEE9E63D4B0008C4
:104EB00008B5806B036B012B02D0FFF711FE08BD14
:104EC000818D4908FFF742FEF9E708B50346806B7C
:104ED0001B681B6813F4807F2BD10023C3850268F5
:104EE00002F10C0353E8003F23F480730C3242E8D4
:104EF00000310029F3D1026802F1140353E8003FA6
:104F000023F00103143242E800310029F3D1026892
:104F100002F1140353E8003F23F04003143242E847
:104F200000310029F3D1202380F83E30036B012BA0
:104F300005D0036B012B0FD0FDF7BEF808BD02684A
:104F400002F10C0353E8003F23F010030C3242E857
:104F500000310029F3D1ECE7818DFFF7F7FDEDE794
:104F600090F83D3090F83E001843704730B583B05C
:104F7000044613468162828500250564222280F85A
:104F80003E20826B2048D063A26B20481064A26B45
:104F90001F48D064A26B156520680A46011DA06BEE
:104FA000FEF7D8F9019523681A6801925B680193AE
:104FB000019B84F83C5023695BB1226802F10C0329
:104FC00053E8003F43F480730C3242E8003100297B
:104FD000F3D1226802F1140353E8003F43F00103C8
:104FE000143242E800310029F3D1226802F114039F
:104FF00053E8003F43F04003143242E800310029F7
:10500000F3D1002003B030BDCB4E0008B14E0008F4
:10501000E54A000808B590F83E30DBB2202B0DD1F0
:1050200071B17AB190F83C30012B0DD0012380F89A
:105030003C3000230363FFF799FF00E0022008BD26
:105040000120FCE70120FAE70220F8E7034AD2F842
:10505000883043F47003C2F88830704700ED00E0F8
:105060000023A0F80031A0F802317047B0F80031F9
:10507000B0F80221934210D0D11A01290FD011F1BA
:10508000FF0F0ED0991A002901DB88B27047981AD9
:1050900080B200F5807080B2704700207047FF201A
:1050A0007047FF207047F8B506460D46144608467F
:1050B000FFF7DCFFA04222D31CB3B5F8021163183E
:1050C000FF2B0BDC22462944304601F0CBFDB5F81E
:1050D00002311C44A5F80241012011E0C1F580779E
:1050E0003A462944304601F0BDFDE21B2946F0193D
:1050F00001F0B8FDE41BA5F80241012000E000200A
:10510000F8BD0020FCE710B50446FFF7AFFF68B11B
:10511000B4F80231FE2B04D8E05C0133A4F802316C
:1051200005E0E05CFF3BA4F8023100E0002010BD88
:1051300038B505460C46FFF799FFA04205D9B5F8EA
:1051400002312344DBB2E85C38BD0020FCE738B50F
:1051500005460C46FFF78AFFA04210D38CB1B5F884
:105160000231E218FF2A03DCA5F80221012007E042
:10517000C3F58073E41AA5F80241012000E0002085
:1051800038BD0020FCE7B0F80021B0F802319A42A7
:1051900010D0991A01290FD011F1FF0F0ED000295C
:1051A00003DD88B2013880B27047981A80B2FF30B0
:1051B00080B27047FF207047002070470020704782
:1051C000F8B505460E461446FFF7DDFFA04222D390
:1051D0001CB3B5F800012318FF2B0BDC2246314627
:1051E000284401F03FFDB5F800311C44A5F800410A
:1051F000012011E0C0F580773A463146284401F09D
:1052000031FDE21BF119284601F02CFDE41BA5F845
:105210000041012000E00020F8BD0020FCE7F8B5C7
:1052200006460F460846FAF7BDFF054684B23046EB
:10523000FFF71CFFA0420ED30024ABB2A34208DD4F
:10524000A1B23046FFF774FF3B5D984205D10134AF
:10525000F3E7012000E00020F8BD0020FCE72DE985
:10526000F047804689460846FAF79CFF074684B215
:105270004046FFF7FBFE844224D88246002400E02B
:105280000134BDB2AAEB0503A34216DBA6B2314638
:105290004046FFF74DFF99F800309842F0D10127C2
:1052A000BD420CDDF11989B24046FFF741FF19F804
:1052B0000730984203D10137F2E74FF0FF34204620
:1052C000BDE8F0874FF0FF34F9E7000038B5044639
:1052D0000948FFF718FF232802D00025284638BDCB
:1052E00006492046FFF79BFF05460028F6D004211B
:1052F0002046FFF72CFFF1E708050020817C00081D
:1053000010B586B0794B1B78012B64D0022B00F0CE
:1053100085800BB106B010BD7548FFF7D7FF002898
:1053200038D07348FFF7EFFE5F280AD0714B1A6838
:10533000714B1A606F4B1B68C82BEBD900F0A8F9B2
:10534000E8E76E496A48FFF78AFFB0F1FF3FEDD00A
:1053500000230393ADF81030654C05212046FFF77C
:10536000F6FE0522214603A8FFF79DFE644903A827
:10537000FAF70EFF40B95D4B01221A700B2261490A
:105380006148FFF725FBD1E70B2260495E48FFF734
:105390001FFBCBE75648FFF763FE564B1A685C4B82
:1053A000A3FB0213DB094FF4C87101FB1323642B29
:1053B000C0D1584C584B0093584B594A5949204634
:1053C00001F066FC2046FAF7EDFE82B221464E4817
:1053D000FFF7FEFAAEE74648FFF778FFD0B1444842
:1053E000FFF791FE362811D0424B1A68424B1A60E3
:1053F00000F0A0F93F4B1B683F4A12689B1AB3F5B7
:10540000487F87D9394B00221A7083E7374B022235
:105410001A70E9E73648FFF723FEE9E73448FFF75B
:1054200055FFA0B9334B1B6813F0030F4ED000F0AB
:10543000EDF9304B1B68304A12689B1A40F21E325D
:1054400093427FF667AF294B00221A7062E7284823
:10545000FFF759FE372804D0264B1A68264B1A60EE
:10546000E0E7234C30492046FFF7F9FE411D89B2A1
:105470002046FFF76CFE002303930493ADF814302D
:105480000A22214603A8FFF70EFE2046FFF73BFE47
:105490003B28E1D102212046FFF759FE002407E016
:1054A00004221349214800EB8400FFF7FCFD01347E
:1054B000092CD1DC04F118036B4413F80C3C012BCC
:1054C000EED004210A48FFF742FEF0E70E48FFF74E
:1054D00047FD212804D1164A136801331360A6E75B
:1054E0005E2214490848FFF773FAA0E7DC080020A1
:1054F000080500209C1600200C0900206C7C000888
:105500006C000020747C000898070020607C000874
:105510001F85EB51E0080020947C000874000020F7
:10552000887C0008507C0008587C0008B4080020E3
:10553000080900200C0000201E2A2CD870B5044653
:105540000D46164600201BE0635C43FA0CF303F0A3
:10555000010300EB40020A44CCF1070E0EEBC20E31
:105560000E4AD35C25F81E300CF1FF3CBCF1000F55
:10557000EADA0131022902DC4FF0070CF6E70130CC
:10558000864201DD0021F5E706EB460633010022E5
:10559000EA52012070BD0020704700BFA07C0008C7
:1055A0001E2B32D8F0B504460D4616461F46002184
:1055B00020E014F800C04CFA0EFC0CF0010C6B5CFF
:1055C0000CEA030C01EB41020244CEF1070303EBAA
:1055D000C2030F4A12F80C2026F813200EF1FF3EEA
:1055E000BEF1000FE5DA0130022802DC4FF0070EB1
:1055F000F6E701318F4201DD0020F5E707EB4707B1
:105600003B010022F2520120F0BD0020704700BF94
:10561000A07C00088A420CDA002A08DD013903E088
:105620008B1AC35C435401398A42F9DD7047002A62
:105630000CDB7047A3EB020C10F80CC000F803C0A1
:10564000013302EB010C9C45F4DCF2E70023F8E7A0
:105650000023022B1ADC70B509E05642B64512DA77
:10566000ACEB020C85F800C00133022B0DDCC45CEE
:10567000CD1811F803C0A4EB0C0E9645EDDD944453
:1056800001F803C0F0E72C70EEE770BD7047000032
:1056900010B5214B1A68214BA3FB0213DB094FF411
:1056A000C87101FB1323142B13D0C82B18D01C4B2B
:1056B000A3FB021323F0030101EB93039A4202D1EF
:1056C000B2F5D77F12D8144B1B6813F0010F16D018
:1056D00010BD144B5A211970002159709970E6E7DA
:1056E000104B0021197059709970E0E70E4C01229F
:1056F0001E212046FFF78EFF01232370E3E70B4CAA
:10570000012221460748FFF7A3FF1E23084A064946
:105710002046FFF745FFDBE79C1600201F85EB5175
:10572000CDCCCCCC34090020100900203009002059
:10573000400B002010B52D4B1A682D4BA3FB021314
:105740005B094FF4967101FB1323A3B9294B782110
:105750001970002159709970274BA3FB021323F095
:10576000030101EB93039A4217D0204B1B6813F0FF
:10577000010F2DD010BD642B08D0C82BECD11D4BD0
:1057800000211970597078219970E5E7194B0021B3
:1057900019705A2058709970DEE701221E211748AF
:1057A000FFF738FF114B1A68154BA3FB0213DB09F7
:1057B00003EB8303C3EB4313D31A05D0052B03D0AC
:1057C0000E4B00221A70D0E70C4B01221A70CCE766
:1057D0000C4C012221460748FFF73AFF1E230A4AD4
:1057E00006492046FFF7DCFEC4E700BF9C160020F8
:1057F000B5814E1B34090020CDCCCCCC1009002043
:10580000370D68D330090020400B002010B5204B25
:105810001A68204BA3FB0213DB094FF4C87101FB8C
:105820001323142B10D0C82B15D01B4BA3FB021332
:1058300023F0030101EB93039A4212D0144B1B682F
:1058400013F0010F16D010BD144B002119705970C0
:105850005A219970E9E7114B00211970597099701C
:10586000E3E70F4C01221E212046FFF7D3FE012360
:105870002370E3E70B4C012221460848FFF7E8FEBE
:105880001E23094A06492046FFF78AFEDBE700BFD0
:105890009C1600201F85EB51CDCCCCCC34090020C8
:1058A0001009002030090020400B002000000000FB
:1058B0002DE9F04F2DED048B85B0D74BD74A1068FA
:1058C00098659288A3F85C20D54A1168C3F85E10E9
:1058D0009288A3F86220D34A1268526A1A65D24AA3
:1058E0001268526A52425A65D04A03F16404106841
:1058F000516803C411892180D2F80A00D2F80E1031
:10590000C3F86E00C3F87210528AA3F87620C84C10
:10591000D4ED0E7ADFEDC76A67EEA67AB3F964209C
:1059200006EE102AB8EEC66A9FEDC37A26EE076A25
:1059300077EE867A67EEA67AB3F9662006EE102A2D
:10594000B8EEC66A26EE076A77EE867A67EEA67A22
:10595000B3F9682006EE102AB8EEC66A26EE076A8A
:1059600077EE867A67EEA67AB3F96A2006EE102AF9
:10597000B8EEC66A26EE076A77EE867A67EEA67AF2
:10598000B3F96C2006EE102AB8EEC66A26EE076A56
:1059900077EE867AC4ED0E7AD4ED0F7A67EEA67AAA
:1059A000B3F96E2006EE102AB8EEC66A26EE076A34
:1059B00077EE867A67EEA67AB3F9702006EE102AA3
:1059C000B8EEC66A26EE076A77EE867A67EEA67AA2
:1059D000B3F9722006EE102AB8EEC66A26EE076A00
:1059E00077EE867A67EEA67AB3F9742006EE102A6F
:1059F000B8EEC66A26EE076A77EE867A67EEA67A72
:105A0000B3F9762006EE902AF8EEE66A26EE877A5B
:105A100077EE877AC4ED0F7AB3F95CB046F266622E
:105A200002FB0BF2019285499A69C1F80920DA69F3
:105A3000C1F80D200022C1F81120C1F81520C1F8CD
:105A40001920C1F81D20C1F82120C1F82520C1F876
:105A50002920C1F82D20C1F83120C1F83520C1F826
:105A60003920C1F83D20C1F84120C1F84520C1F8D6
:105A70004920C1F84D20C1F85120C1F85520B3F993
:105A800078006F490880B3F97A106E4B19804FF493
:105A900080416D48FDF740FB6C4B6D4A1188927850
:105AA00019809A7094F80841012C69D0604B93F8E2
:105AB00009A1BAF1010F00F0D9805D4BD3F80021A4
:105AC00001998A1A08EE102A93F80A51012D00F064
:105AD0004E81574B93F80B61012E00F0C4810136C3
