:020000040800F2
:10000000000002200546000801160008031600083B
:100010000516000807160008091600080000000071
:100020000000000000000000000000000B160008A7
:100030000D160008000000000F1600081116000839
:100040005546000855460008554600085546000824
:100050005546000855460008554600085546000814
:100060005546000855460008554600081916000870
:10007000291600085546000839160008554600089C
:1000800055460008554600085546000855460008E4
:1000900055460008554600085546000855460008D4
:1000A00055460008554600085546000855460008C4
:1000B00055460008554600085546000855460008B4
:1000C00055460008554600085546000855460008A4
:1000D00055460008491600085546000861160008F4
:1000E0005546000855460008554600085546000884
:1000F0005546000855460008554600085546000874
:100100005546000855460008554600085546000863
:10011000554600085546000855460008791600085F
:10012000891600085546000899160008554600082B
:100130005546000800000000000000005546000879
:100140005546000855460008554600085546000823
:10015000A916000855460008B916000855460008BB
:100160005546000855460008554600085546000803
:100170005546000855460008000000000000000039
:08018000554600085546000831
:1001880053B94AB9002908BF00281CBF4FF0FF31F6
:100198004FF0FF3000F00CB8ADF1080C6DE904CE5B
:1001A80004F090FADDF804E0DDE9022304B07047BA
:1001B800704700BF0348044B834202D0034B03B18E
:1001C800184770470C0000200C00002000000000B9
:1001D8000548064B1B1AD90F01EBA301491002D0A1
:1001E800034B03B1184770470C0000200C00002097
:1001F8000000000010B5064C237843B9FFF7DAFF7A
:10020800044B13B10448AFF300800123237010BDE1
:100218000C000020000000009449000808B5054BB8
:100228001BB105490548AFF30080BDE80840FFF75A
:10023800CFBF00BF00000000100000209449000854
:1002480030B58BB00024059406940794089409945B
:100258000094274B1A6B42F004021A631A6B02F0DF
:1002680004020092009A01941A6B42F080021A6309
:100278001A6B02F080020192019A02941A6B42F002
:1002880001021A631A6B02F001020292029A0394A5
:100298001A6B42F002021A631A6B02F0020203920E
:1002A800039A04941A6B42F008021A631B6B03F05A
:1002B80008030493049B0F4D22464FF480412846BF
:1002C80002F094F94FF4005305930694079405A996
:1002D800284601F0FBFF4FF4804305930123069362
:1002E8000794089405A9284601F0F0FF0BB030BD2B
:1002F800003802400008024000B585B00023009392
:100308000193029303931748174A02604FF480320F
:10031800426083600361037680F820304FF080529A
:10032800C2624FF000628262C3600123C36180F839
:100338003030436101F07AFA68B90A230093012347
:100348000193032302936946064801F0B5FB28B9D7
:1003580005B05DF804FB04F031F8EEE704F02EF880
:10036800F6E700BF400000200020014000B585B03E
:10037800002300930193029303931748174A0260DE
:100388004FF48032426083600361037680F8203046
:100398004FF08052C2624FF060628262C3600123F4
:1003A800C36180F83030436101F040FA68B90B232B
:1003B800009301230193032302936946064801F041
:1003C8007BFB28B905B05DF804FB03F0F7FFEEE707
:1003D80003F0F4FFF6E700BF880000200021014089
:1003E80030B58BB004460023059306930793089312
:1003F80009930368404A934204D0404A93423DD04F
:100408000BB030BD002501953D4B5A6C42F480720B
:100418005A645A6C02F480720192019A02951A6B1E
:1004280042F004021A631B6B03F004030293029B5D
:10043800052305930323069305A9324801F046FFD7
:100448003148324B036045608560C5604FF4806376
:1004580003614FF4006343614FF4005383614FF429
:100468008073C3610562456202F050F918B9264BE2
:10047800A3639C63C4E703F0A1FFF8E70025039595
:100488001F4B5A6C42F400725A645A6C02F40072A0
:100498000392039A04951A6B42F004021A631B6BC9
:1004A80003F004030493049B022305930323069398
:1004B80005A9144801F00AFF1548164B03604FF0D0
:1004C800007343608560C5604FF4806303614FF437
:1004D800006343614FF4005383614FF48073C36139
:1004E8000562456202F012F918B9094BA3639C63CF
:1004F80086E703F063FFF8E7002001400021014090
:100508000038024000080240D00000201064024079
:10051800300100204064024010B504460368114AC7
:10052800934203D0104A93420ED010BD02F58C328C
:10053800536C23F48073536405210C4801F0BCFF0D
:10054800A06B02F049F9F0E7094A536C23F40073F1
:1005580053640221054801F0AFFFA06B02F03CF99B
:10056800E3E700BF002001400021014000080240ED
:10057800003802400368384A1268934204D0374A68
:100588001268934231D07047354BB3F90030002BD5
:100598000FDB4FF0010C334B1B685B6A9BB2324A8E
:1005A800138013889BB2B3F5167F05D30120002270
:1005B80014E04FF6FF7CEEE70020F8E700EB42017D
:1005C8002A4B33F811309BB22949B1F900105B1A54
:1005D80013FB0CF3274921F812300132042AEDDD10
:1005E800254A136801331360704700B5234BB3F9EC
:1005F8000030002B10DB4FF0010E214B1B685B6AAB
:100608009BB2204A138013889BB2B3F5167F06D39A
:100618004FF0010C002216E04FF6FF7EEDE74FF099
:10062800000CF7E70CEB4201174B33F811309BB283
:100638000F49B1F902105B1A501D13FB0EF30D4957
:1006480021F810300132042AECDD0B4A53680133DB
:1006580053605DF804FB00BF4000002088000020C4
:100668006C080020A4020020980100203C0800200B
:100678003C00002028000020900100207408002081
:10068800C40300209A0100205008002000B5002172
:1006980008468E460FE0174A32F913C0604403F14A
:1006A800050C32F91C2011440133042BF3DD0EF143
:1006B800010E1FFA8EFEBEF5FA6F0CD20E4B1B68A8
:1006C800002BFBD00C4B5B68002BF7D00A4A0023A9
:1006D80013605360E9E7094AA2FB000343F34F3371
:1006E80007480380A2FB012343F34F3343805DF89F
:1006F80004FB00BF28000020900100205917B7D143
:100708003C00002010B582B000240094264B1A6BE0
:1007180042F400121A631A6B02F400120092009A53
:1007280001941A6B42F480021A631B6B03F4800372
:100738000193019B224621460B2002F011FA0B205F
:1007480002F046FA224621460C2002F009FA0C2053
:1007580002F03EFA224621460E2002F001FA0E204F
:1007680002F036FA22462146382002F0F9F93820FC
:1007780002F02EFA224621463A2002F0F1F93A20F8
:1007880002F026FA22462146442002F0E9F94420E4
:1007980002F01EFA22462146462002F0E1F94620E0
:1007A80002F016FA02B010BD0038024000B58DB054
:1007B8002422002103A803F07DFF00230193029364
:1007C80012484FF080420260436083604FF0FF326E
:1007D800C260036183610323039301230593099393
:1007E80003A902F0D3FC50B900230193029301A995
:1007F800064802F0C7FF28B90DB05DF804FB03F006
:10080800DDFDF1E703F0DAFDF6E700BF5C0200204A
:1008180000B58DB02422002103A803F04BFF00236C
:10082800019302931148124A0260436083604FF0BB
:10083800FF32C2600361836103230393012305939D
:10084800099303A902F0A2FC50B900230193029373
:1008580001A9064802F096FF28B90DB05DF804FB1F
:1008680003F0ACFDF1E703F0A9FDF6E7340300203F
:10087800000C004000B583B00023009301930F489B
:100888000F4A026053224260836041F28732C2609D
:10089800836102F023FC50B9002300930193694659
:1008A800064802F06FFF28B903B05DF804FB03F0B7
:1008B80085FDF1E703F082FDF6E700BF7C03002029
:1008C8000014004070B58AB000230593069307937F
:1008D800089309930368B3F1804F04D02D4A9342DB
:1008E80038D00AB070BD0024009403F50E331A6C9A
:1008F80042F001021A641A6C02F001020092009A96
:1009080001941A6B42F001021A631A6B02F0010299
:100918000192019A02941A6B42F002021A631B6B4D
:1009280003F002030293029B4FF40043059302264F
:1009380006960125099505A9174801F0C7FC082363
:100948000593069607940894099505A9134801F09C
:10095800BDFCC6E700210391114B1A6C42F0080256
:100968001A641A6C02F008020392039A04911A6B33
:1009780042F001021A631B6B03F001030493049B0A
:100988000323059302230693099305A9024801F05E
:100998009DFCA6E7000C0040000002400004024055
:1009A8000038024010B584B00368444A93420BD023
:1009B8000446434A934214D0424A93425CD0424A86
:1009C80093426DD004B010BD002300933F4B1A6CC6
:1009D80042F002021A641B6C03F002030093009BAE
:1009E800F0E70023019302F50C32116C41F0040189
:1009F8001164126C02F004020192019A3448354ADB
:100A080002604FF08062426040228260C3604FF40F
:100A1800806202614FF4006242614FF400528261C9
:100A2800C3610362436201F071FEF8B9284B636247
:100A38009C632948294B03604FF08063436040233F
:100A480083600023C3604FF4806202614FF4006248
:100A580042614FF400528261C3610362436201F054
:100A680055FE30B91C4BA3629C63ABE703F0A6FCB0
:100A7800DCE703F0A3FCF5E700210291134B1A6CA5
:100A880042F020021A641B6C03F020030293029BBD
:100A98000A46372002F064F8372002F099F891E707
:100AA80000230393094B5A6C42F002025A645B6CB0
:100AB80003F002030393039B84E700BF0004004094
:100AC80000080040001400400004014000380240C3
:100AD8009C01002010600240FC0100205860024088
:100AE80000B589B0002303930493059306930793F5
:100AF8000368274A934208D0264A93421BD0264AC5
:100B080093422ED009B05DF804FB00230093234BD9
:100B18001A6B42F001021A631B6B03F00103009386
:100B2800009BC023039302230493079303A91C4843
:100B380001F0CCFBE6E700230193184B1A6B42F057
:100B480002021A631B6B03F002030193019BC0238B
:100B5800039302230493079303A9124801F0B6FBF9
:100B6800D0E7002302930D4B1A6B42F004021A637C
:100B78001B6B03F004030293029BC023039302231D
:100B880004930323079303A9074801F09FFBB9E7E0
:100B98000004004000080040000401400038024002
:100BA80000000240000402400008024000B58FB077
:100BB80000230A930B930C930D93089309930193C5
:100BC8000293039304930593069307932648274AB1
:100BD800026043602022826041F26702C2600361C2
:100BE800836102F07BFA60BB4FF480530A930AA931
:100BF8001D4802F0D6FB38BB1B4802F09BFA30BBFD
:100C0800202308930023099308A9174802F0BAFD86
:100C180000BB60230193002202920392059201A96E
:100C2800114802F043FBC0B904220DEB02010E4843
:100C380002F03CFBA0B90C48FFF752FF0FB05DF87B
:100C480004FB03F0BBFBCFE703F0B8FBD4E703F0EA
:100C5800B5FBD5E703F0B2FBDBE703F0AFFBE3E757
:100C680003F0ACFBE7E700BFA4020020000400404B
:100C780000B58FB000230A930B930C930D93089340
:100C8800099301930293039304930593069307939F
:100C98002548264A02600322426083601922C26006
:100CA8000361836102F01AFA60BB4FF480530A9320
:100CB8000AA91D4802F075FB38BB1B4802F03AFA36
:100CC80030BB00230893099308A9174802F05AFD7E
:100CD80008BB602301930623029300220392059226
:100CE80001A9114802F0E2FAC0B904220DEB020191
:100CF8000D4802F0DBFAA0B90B48FFF7F1FE0FB080
:100D08005DF804FB03F05AFBCFE703F057FBD4E789
:100D180003F054FBD5E703F051FBDAE703F04EFB91
:100D2800E3E703F04BFBE7E7EC0200200008004094
:100D380030B597B000241294139414941594109419
:100D4800119409940A940B940C940D940E940F9496
:100D580020252A46214601A803F0ACFC3248334B33
:100D6800036001234360856041F26703C360046147
:100D78004461846102F0B2F900283FD14FF48053F6
:100D8800129312A9284802F00CFB002839D12648F2
:100D980002F0D0F9002837D12023109300231193B3
:100DA80010A9214802F0EEFC002830D160230993F5
:100DB80000220A920B920C920D920E920F9209A9A0
:100DC800194802F073FA28BB042209A9164802F050
:100DD8006DFA10BB002301930293039304930593C8
:100DE8004FF400520692089301A90F4802F010FD33
:100DF800B0B90D48FFF774FE17B030BD03F0DEFA46
:100E0800BCE703F0DBFAC2E703F0D8FAC4E703F063
:100E1800D5FACBE703F0D2FAD6E703F0CFFAD9E751
:100E280003F0CCFAE5E700BFC4030020000401404A
:100E380003681A4A93420BD010B50446184A9342E5
:100E48000DD0184A934217D0174A93421ED010BDAE
:100E580002F50D32136C23F002031364704702F598
:100E68000C32136C23F004031364406A01F0B4FCE1
:100E7800A06A01F0B1FCEAE702F50932136C23F02D
:100E880020031364372001F0B1FEE0E702F59A323F
:100E9800536C23F002035364D9E700BF00040040F9
:100EA80000080040001400400004014008B5026832
:100EB800034B1B689A4200D008BD03F0E7F9FBE733
:100EC8007C03002008B5037F012B02D0022B04D03D
:100ED80008BD002102F076FBFAE7042102F072FB5C
:100EE800F6E710B50446084611462388002210E0AC
:100EF80073460CF1010CBCF1070F09D84FEA430EF9
:100F080013F4004FF4D08EF4815383F00103F0E71B
:100F180001328A4206D210F802C083EA0C234FF04D
:100F2800000CE8E7238010BD08B50A480A4B0360A7
:100F38004FF46123436000238360C36003610C2284
:100F480042618361C36102F085FD00B908BD03F009
:100F580035FAFBE744070020004C004008B50A4872
:100F68000A4B03604FF46123436000238360C3602E
:100F780003610C2242618361C36102F06BFD00B919
:100F880008BD03F01BFAFBE788070020005000406B
:100F980008B50A480A4B03604FF4612343600023F5
:100FA8008360C36003610C2242618361C36102F004
:100FB80051FD00B908BD03F001FAFBE7BC060020AB
:100FC8000010014008B50A480A4B03604FF461233A
:100FD800436000238360C36003610C224261836124
:100FE800C36102F037FD00B908BD03F0E7F9FBE77C
:100FF8000007002000480040F0B58FB00023099397
:101008000A930B930C930D930368944A93420CD064
:101018000446934A93422CD0924A934261D0924A12
:10102800934200F0C9800FB0F0BD002100918F4BB2
:101038001A6C42F400221A641A6C02F4002200921C
:10104800009A01911A6B42F004021A631B6B03F0B9
:1010580004030193019B4FF44063099302230A930D
:1010680003230C9308230D9309A9814801F02EF955
:10107800D9E7002402947D4B1A6C42F480121A645A
:101088001A6C02F480120292029A03941A6B42F0CC
:1010980004021A631A6B02F004020392039A04947E
:1010A8001A6B42F008021A631B6B03F008030493DF
:1010B800049B4FF48053099302270A9703260C9642
:1010C80008250D9509A96A4801F000F90423099338
:1010D8000A970B940C960D9509A9664801F0F6F845
:1010E800A1E700250595614B5A6C42F010025A643D
:1010F8005A6C02F010020592059A06951A6B42F096
:1011080001021A631B6B03F001030693069B4FF45D
:10111800C063099302230A9303230C9307230D93B7
:1011280009A9554801F0D2F85448554B03604FF0CF
:10113800006343608560C5604FF480630361456167
:101148008561C5610562456201F0E0FA00282DD18C
:101158004A4BA3639C634B484B4B03604FF00063BF
:101168004360402383600023C3604FF480620261C0
:1011780043618361C3610362436201F0C7FAC0B986
:10118800404B63639C6300221146252001F0E8FC74
:10119800252001F01DFD3D480268D36843F0100387
:1011A800D36064223A4902F069FF3CE703F006F98C
:1011B800CEE703F003F9E3E7002507952B4B1A6CFC
:1011C80042F480221A641A6C02F480220792079A69
:1011D80008951A6B42F002021A631B6B03F00203B4
:1011E8000893089B4FF44063099302230A9303234F
:1011F8000C9307230D9309A9264801F067F82648A0
:10120800264B03604FF0006343608560C5604FF470
:101218008063036145618561C5614FF48033036272
:10122800456201F073FAA8B91B4BA3639C630022C3
:101238001146272001F094FC272001F0C9FC18482A
:101248000268D36843F01003D3603222154902F0D4
:1012580015FFE8E603F0B2F8E6E700BF004C0040EF
:101268000050004000100140004800400038024093
:1012780000080240000C0240000002409C050020CB
:1012880088640240FC050020B8640240BC060020C7
:1012980038050020000402405C0600202860024057
:1012A800000700200808002010B50368284A934268
:1012B8000AD00446274A934212D0274A93421FD0A5
:1012C800264A934231D010BD02F5F632136C23F44E
:1012D800002313644FF44061214801F0EDF8F2E770
:1012E80002F5F432136C23F4801313644FF4805125
:1012F8001B4801F0E1F804211A4801F0DDF8E2E7A3
:1013080002F59432536C23F0100353644FF4C06118
:10131800154801F0D1F8A06B01F05EFA606B01F09E
:101328005BFA252001F062FCCDE702F5F832136C78
:1013380023F4802313644FF440610C4801F0BCF897
:10134800A06B01F049FA272001F050FCBBE700BF71
:10135800004C004000500040001001400048004090
:1013680000080240000C0240000002400004024055
:101378002DE9F047044600785A285ED10F461646F4
:101388001D466378A52B01D0002057E0A378E278AA
:1013980043EA0223DFF8A890A9F80030237962799C
:1013A80043EA0223DFF89CA0AAF80030DFF898800F
:1013B8000023A8F80030042221464046FFF791FD9B
:1013C800B9F80020A11D4046FFF78BFDB8F80020B2
:1013D800BAF800309A422CD000202FE023185A780F
:1013E800997842EA01222A80DA78197942EA0122B8
:1013F8006A805A799B7942EA0323AB800130BB1F8C
:10140800834218DD0346225CB02AE7D0D02AF5D102
:1014180023445A78997842EA01223280DA78197995
:1014280042EA012272805A799B7942EA0323B38007
:10143800E4E70620E3E7012000E00020BDE8F087AC
:1014480026040020240400201E04002000B583B0D8
:1014580003683A4A1268934206D0394A126893429E
:1014680038D003B05DF804FB1A6812F0100FF8D0FA
:101478001A685A68002200921A6800925B68009302
:10148800009B304B1B685B689BB22F4A1380312B43
:10149800E7D802F00EFB2C4B1988C1F1320189B252
:1014A8002A4B1980142905D032222949234802F0F1
:1014B800E5FDD6E7274B284A2548FFF759FF20B90D
:1014C800264A138801331380EEE7254A138801332F
:1014D8001380E9E71A6812F0100FC2D000220192B7
:1014E8001A6801925B680193019B1E4B1B685B683D
:1014F8009BB21D4A1380632BB3D802F0DAFA1A4B59
:101508001A88C2F1640292B218494A800B7843F0F3
:10151800010301F8043B164802F0F3FD28B16422E8
:101528001449074802F0AAFD9BE74FF4804100F1F7
:10153800804000F5023001F05FF8F0E70007002076
:10154800BC0600205C0600200C040020CC0700200C
:10155800080800201804002010040020200400209F
:10156800220400209C0500202804002034050020C7
:101578002C0400203805002038B50368184A126882
:10158800934204D0174A1268934206D038BD3222DB
:101598001549134802F072FDF8E7144B1B685B68A5
:1015A800C3F16403124D6B802B7843F001032C4682
:1015B80004F8043B642221460A4802F05FFD6A8869
:1015C80021460C4802F09DFD0028DFD14FF48041F0
:1015D80000F1804000F5023001F00EF8D6E700BFB8
:1015E80000070020BC060020080800209C050020F9
:1015F800340500202C040020FEE7FEE7FEE7FEE7A6
:10160800FEE770477047704708B501F055FB08BD05
:1016180008B5024801F0A4F908BD00BF9C010020EC
:1016280008B5024801F09CF908BD00BF5C0600201F
:1016380008B5024801F094F908BD00BFFC0100207C
:1016480010B5044C204602F02DFB2046FFF7FEFEA5
:1016580010BD00BFBC06002010B5044C204602F0A7
:1016680021FB2046FFF7F2FE10BD00BF0007002057
:1016780008B5024801F011FC08BD00BF7C0300203A
:1016880008B5024801F06CF908BD00BFD000002081
:1016980008B5024801F064F908BD00BF3001002018
:1016A80008B5024801F05CF908BD00BF9C050020A0
:1016B80008B5024801F054F908BD00BFFC05002038
:1016C80082B0002100910B4B5A6C42F480425A645C
:1016D8005A6C02F480420092009A01911A6C42F00E
:1016E80080521A641B6C03F080530193019B02B073
:1016F800704700BF003802404A4B5A6822F4403213
:101708005A605A6841680A435A600268536823F469
:101718008073536002685368016943EA0123536088
:101728000268536823F04073536002685368816805
:101738000B4353600268936823F400639360026864
:101748009368C1680B439360826A374B9A4257D0BB
:101758000268936823F07063936002689368816AF3
:101768000B4393600268936823F0405393600268C8
:101778009368C16A0B4393600268936823F002037D
:10178800936002689368017E43EA4103936090F88E
:101798002030002B3FD00268536843F40063536045
:1017A8000268536823F46043536001684B68426AD7
:1017B800013A43EA42334B600268D36A23F4700368
:1017C800D3620168CB6AC269013A43EA0253CB6229
:1017D8000268936823F4007393600268936890F832
:1017E800301043EA412393600268936823F48063CE
:1017F800936002689368416943EA81239360704764
:101808000268936823F0706393600268936823F01A
:1018180040539360B0E70268536823F40063536051
:10182800CAE700BF002301400100000F38B310B51C
:101838000446036C43B1236C13F0100F0BD0012046
:10184800002384F83C3010BDFEF7CAFD0023636412
:1018580084F83C30EFE7236C23F4885323F0020329
:1018680043F0020323642046FFF746FF002060642C
:10187800236C23F0030343F001032364E0E7012012
:101888007047000010B582B013460022019290F80C
:101898003C20012A00F0AE800446012280F83C205A
:1018A8000268906810F0010F13D1906840F00100B1
:1018B8009060534A1068534AA2FB0020800C00EB4A
:1018C8004000019002E00198013801900198002839
:1018D800F9D12268906810F4807F03D0906820F4D2
:1018E800807090602268906810F0010F77D0206CAB
:1018F80020F4E06020F0010040F480702064526819
:1019080012F4806F05D0226C22F4405242F48052C7
:101918002264226C12F4805F36D0626C22F00602D8
:101928006264002284F83C20A26B3748D063A26B23
:1019380036481064A26B3648D06422686FF02200E3
:1019480010602068426842F08062426020688268C5
:1019580042F48072826020680A4600F14C01A06B54
:1019680000F06CFF2B4B5B6813F01F0F27D1236827
:10197800294A934211D002F58072934207D0274A30
:10198800934214D0002033E000226264C9E702F5D4
:101998000072526812F01F0FF1D19A6812F0405F7E
:1019A8002AD19A6842F080429A60002020E002F52D
:1019B8008072526812F0100FEFD0002018E02368F0
:1019C800154A934201D0002012E09A6812F0405F55
:1019D80014D19A6842F080429A60002008E0236C93
:1019E80043F010032364636C43F001036364002035
:1019F80002B010BD0220FBE70020F9E70020F7E75E
:101A08000800002083DE1B434D1A00082B1A00082B
:101A1800371A00080023014000200140002201403D
:101A2800704708B5806BFFF7FBFF08BD704708B526
:101A3800806B40230364436C43F004034364FFF763
:101A4800F5FF08BD08B50346806B026C12F0500F15
:101A580025D1036C43F40073036403689A6812F099
:101A6800405F19D1027EBAB9DA6A12F4700F03D056
:101A78009A6812F4806F0FD15A6822F020025A60D7
:101A8800036C23F480730364036C13F4805F03D145
:101A9800036C43F001030364FEF76CFD08BD026CA0
:101AA80012F0100F04D1826BD26C18469047F5E7FC
:101AB800FFF7BCFFF2E7000030B482B000220192C9
:101AC80090F83C20012A00F0B6800346012280F8F5
:101AD8003C200A68092A40D90468E06892B202EBFF
:101AE80042021E3A4FF0070C0CFA02F220EA0202F8
:101AF800E2601C68E0680A8802EB42021E3A8D68C0
:101B080005FA02F20243E2604A68062A3CD81C68D9
:101B1800606B02EB8202053A4FF01F0C0CFA02F2DE
:101B280020EA020262631C68606B4A6802EB820268
:101B3800053AB1F800C00CFA02F202436263186871
:101B48003E4A904250D018683C4A904255D00020F6
:101B580083F83C0002B030BC70470468206992B238
:101B680002EB42024FF0070C0CFA02F220EA0202E2
:101B780022611C6820690A8802EB42028D6805FA16
:101B880002F202432261BFE70C2A16D81D68286BAF
:101B980002EB8202233A1F2404FA02F220EA02022C
:101BA8002A631D68286B4A6802EB8202233A0C8874
:101BB80004FA02F202432A63C1E71D68E86A02EBED
:101BC8008202413A1F2404FA02F220EA0202EA627F
:101BD8001D68E86A4A6802EB8202413A0C8804FAF6
:101BE80002F20243EA62AAE70A68122AABD1144851
:101BF800426842F480024260A5E70A68103A012A66
:101C0800A5D80F48426842F4000242600A68102AC8
:101C18009DD10C4A12680C49A1FB0212920C02EBEE
:101C280082025200019202E0019A013A0192019A5D
:101C3800002AF9D18BE702208CE700BF0020014081
:101C4800002301400800002083DE1B43002800F029
:101C5800E08170B582B00446036813F0010F3BD0F1
:101C68009F4B9B6803F00C03042B2CD09C4B9B6868
:101C780003F00C03082B21D06368B3F5803F4FD0E5
:101C8800B3F5A02F52D0964B1A6822F480321A600E
:101C98001A6822F480221A606368002B50D001F081
:101CA80017F805468E4B1B6813F4003F14D101F05A
:101CB8000FF8401B6428F5D90320B1E1884B5B6815
:101CC80013F4800FD8D0864B1B6813F4003F03D061
:101CD8006368002B00F09F81236813F0020F54D033
:101CE8007F4B9B6813F00C0F3ED07D4B9B6803F035
:101CF8000C03082B33D0E368002B68D0794B012202
:101D08001A6000F0E5FF0546754B1B6813F0020FDB
:101D180054D100F0DDFF401B0228F5D903207FE1F4
:101D28006F4A136843F480331360B5E76C4B1A6845
:101D380042F480221A601A6842F480321A60ABE7D3
:101D480000F0C6FF0546664B1B6813F4003FC3D07E
:101D580000F0BEFF401B6428F5D9032060E1604B0A
:101D68005B6813F4800FC6D15D4B1B6813F0020F3C
:101D780003D0E368012B40F05081594A136823F0DF
:101D8800F803216943EAC1031360236813F0080FBD
:101D980042D063696BB3534B0122C3F8802E00F025
:101DA80097FF05464E4B5B6F13F0020F34D100F0DE
:101DB8008FFF401B0228F5D9032031E1484A1368F8
:101DC80023F0F803216943EAC1031360DDE7454BBB
:101DD80000221A6000F07CFF0546414B1B6813F097
:101DE800020FD2D000F074FF401B0228F5D903205F
:101DF80016E13C4B0022C3F8802E00F069FF05462F
:101E0800374B5B6F13F0020F06D000F061FF401BE9
:101E18000228F5D9032003E1236813F0040F77D0D3
:101E28002F4B1B6C13F0805F33D1002301932C4B95
:101E38001A6C42F080521A641B6C03F080530193B1
:101E4800019B0125284B1B6813F4807F23D0A368CE
:101E5800012B34D0052B38D0214B1A6F22F0010208
:101E68001A671A6F22F004021A67A368002B3DD084
:101E780000F02EFF06461A4B1B6F13F0020F46D1D7
:101E880000F026FF801B41F288339842F3D90320E3
:101E9800C6E00025D6E7144A136843F4807313603C
:101EA80000F016FF0646104B1B6813F4807FCED156
:101EB80000F00EFF801B0228F5D90320B0E0084A85
:101EC800136F43F001031367CFE7054B1A6F42F016
:101ED80004021A671A6F42F001021A67C5E700BFC9
:101EE80000380240000047420070004000F0F0FE59
:101EF8000646524B1B6F13F0020F08D000F0E8FEA5
:101F0800801B41F288339842F3D9032088E0EDB969
:101F1800A369002B00F08380484A926802F00C0203
:101F2800082A51D0022B17D0454B00221A6600F020
:101F3800CFFE0446414B1B6813F0007F42D000F0EF
:101F4800C7FE001B0228F5D9032069E03B4A136C41
:101F580023F080531364DBE7394B00221A6600F044
:101F6800B7FE0546354B1B6813F0007F06D000F01E
:101F7800AFFE401B0228F5D9032051E0E369226A2D
:101F88001343626A43EA8213A26A5208013A43EA97
:101F98000243E26A43EA0263284A5360284B01225B
:101FA8001A6600F095FE0446244B1B6813F0007F68
:101FB80006D100F08DFE001B0228F5D903202FE082
:101FC80000202DE000202BE0012B2BD01B4B5B6861
:101FD80003F48001E269914226D103F03F02216AAD
:101FE8008A4223D1616A47F6C0721A40B2EB811F58
:101FF8001ED103F44031A26A5208013AB1EB024FF4
:1020080018D103F07063E26AB3EB026F14D10020B9
:1020180006E001207047012002E0012000E00020D6
:1020280002B070BD0120FBE70120F9E70120F7E7C6
:102038000120F5E70120F3E70120F1E7003802402D
:102048000000474208B5334B9B6803F00C03042B90
:102058005BD0082B5BD12F4B5A6802F03F025B68BC
:1020680013F4800F2CD02B4B5868C0F388104FEA1C
:10207800401CBCEB000C6EEB0E0E4FEA8E1343EACD
:102088009C634FEA8C11B1EB0C0163EB0E03DB0090
:1020980043EA5173C90011EB000C43F100035902E4
:1020A80000234FEA4C2041EADC51FEF769F8194B4E
:1020B8005B68C3F3014301335B00B0FBF3F027E037
:1020C800144B5868C0F388104FEA401CBCEB000C56
:1020D8006EEB0E0E4FEA8E1343EA9C634FEA8C11A7
:1020E800B1EB0C0163EB0E03DB0043EA5173C9004B
:1020F80011EB000C43F10003990200234FEA8C20F6
:1021080041EA9C51FEF73CF8D1E7034800E0034858
:1021180008BD00BF0038024000127A000024F40015
:10212800002800F09B8070B50D4604464F4B1B6895
:1021380003F007038B4208D2CBB24C4A13701368E2
:1021480003F007038B4240F08B80236813F0020FE3
:1021580017D013F0040F04D0454A936843F4E053B2
:102168009360236813F0080F04D0414A936843F43E
:10217800604393603E4A936823F0F003A1680B43E1
:102188009360236813F0010F32D06368012B21D0CC
:102198009A1E012A25D9364A126812F0020F61D018
:1021A80033498A6822F0030213438B6000F090FDE4
:1021B80006462F4B9B6803F00C036268B3EB820F53
:1021C80016D000F085FD801B41F288339842F0D983
:1021D800032042E0264A126812F4003FE0D10120B1
:1021E8003BE0234A126812F0007FD9D1012034E085
:1021F8001E4B1B6803F00703AB4207D9EAB21B4B1F
:102208001A701B6803F00703AB422DD1236813F043
:10221800040F06D0164A936823F4E053E1680B4391
:102228009360236813F0080F07D0114A936823F4CA
:102238006043216943EAC1039360FFF703FF0C4B36
:102248009B68C3F303130B4AD35CD8400A4B18604E
:102258000A4B186800F0F0FC002070BD01207047A0
:102268000120FAE70120F8E70120F6E7003C0240E8
:1022780000380240B449000808000020040000208B
:10228800014B1868704700BF0800002008B5FFF729
:10229800F7FF044B9B68C3F38223034AD35CD840FF
:1022A80008BD00BF00380240C449000808B5FFF760
:1022B800E7FF044B9B68C3F34233034AD35CD8401F
:1022C80008BD00BF00380240C449000800230F2B96
:1022D80000F2E98070B582B065E085684FEA430E88
:1022E800032404FA0EF425EA0405CC6804FA0EF473
:1022F8002C438460446824EA02044A68C2F300124A
:102308009A40224342605CE0DC08083450F82420FC
:1023180003F00705AD004FF00F0E0EFA05FE22EA96
:102328000E0E0A69AA4042EA0E0240F824205CE038
:10233800072200E0002202FA0EF22A4302345A4D24
:1023480045F82420594A94686FEA0C0224EA0C05DF
:102358004E6816F4801F01D04CEA0405534CA56062
:10236800E46802EA04054E6816F4001F01D04CEA3E
:1023780004054E4CE560646802EA04054E6816F4EC
:10238800003F01D04CEA0405484C656024682240AF
:102398004D6815F4803F01D04CEA0402434C22609A
:1023A80001330F2B7DD801229A400C6804EA020CF5
:1023B80032EA0404F4D14C6804F00304013C012C13
:1023C8008BD94A6802F00302032A09D0C4685D0069
:1023D8000322AA4024EA02048A68AA402243C2606F
:1023E8004A6802F00302022A8ED004684FEA430EBC
:1023F800032202FA0EF224EA02044A6802F00302F7
:1024080002FA0EF2224302604A6812F4403FC7D033
:1024180000220192264A546C44F480445464526C5D
:1024280002F480420192019A9C08A51C1E4A52F8A7
:10243800255003F0030E4FEA8E0E0F2202FA0EF219
:1024480025EA02051B4A90423FF474AF02F5806208
:1024580090421AD002F58062904218D002F580624C
:10246800904216D002F58062904214D002F5806244
:10247800904212D002F58062904210D002F580623C
:1024880090423FF455AF082255E7012253E7022254
:1024980051E703224FE704224DE705224BE70622C6
:1024A80049E702B070BD704700380140003C014068
:1024B800003802400000024000230F2B00F28F80FA
:1024C800F0B52DE0072500E0002505FA0CF5A5423A
:1024D80069D004685D004FF0030C0CFA05FC24EA8F
:1024E8000C0404604FEAD30E0EF1080E50F82E408B
:1024F80003F00706B6000F25B54024EA050440F8A6
:102508002E40C46824EA0C04C460446824EA020229
:102518004260826822EA0C02826001330F2B5DD888
:1025280001229A4002EA010632EA0104F5D14FEA93
:10253800930E0EF102052A4C54F8254003F0030CC3
:102548004FEA8C0C0F2505FA0CF73C40254DA842A4
:10255800BAD005F58065A84219D005F58065A8426E
:1025680017D005F58065A84215D005F58065A84205
:1025780013D005F58065A84211D005F58065A842FD
:102588000FD005F58065A8429CD008259DE7012558
:102598009BE7022599E7032597E7042595E7052595
:1025A80093E7062591E7104C256825EA060525607E
:1025B800656825EA06056560E56825EA0605E560BB
:1025C800A56825EA0605A560054E0EF1020456F831
:1025D800245025EA070546F824507AE7F0BD7047ED
:1025E8000038014000000240003C01400AB181610E
:1025F8007047090481617047436901EA030221EACF
:10260800030141EA02418161704730B405682C68D2
:1026180024F480242C60046863608368402B05D010
:10262800036899600368DA6030BC704703689A6091
:102638000368D960F8E7000010B40368D9B210390C
:102648000C4AA2FB014212090B4CA25CC2655F292D
:1026580009D923F47F7323F0030304338365806D62
:102668005DF8044B704723F47F7323F003038365FD
:10267800F5E700BFABAAAAAAAC490008836A826939
:1026880092B9012B0AD0022B02D00BB1002070475F
:10269800C36A13F0807F28D100207047C36AB3F162
:1026A800C07F24D000207047B2F5005F09D0022B0C
:1026B80025D9032B25D1C36A13F0807F23D10020AD
:1026C8007047032B03D8DFE803F01404140A002032
:1026D8007047C36A13F0807F0DD100207047C36A2A
:1026E800B3F1C07F09D00020704701207047012056
:1026F8007047012070470120704701207047012072
:1027080070470020704701207047000070B50446EC
:1027180000F0DEFA002C5BD00546022384F8353041
:10272800002384F834302268136823F0010313600F
:1027380023681A6812F0010F0AD000F0C9FA431B87
:10274800052BF5D920236365032084F8350070BD77
:102758001A68204911406268A0680243E068024391
:102768002069024360690243A0690243E0690243A9
:10277800206A02430A43616A04291ED01A60266847
:10278800756925F00705636A1D43042B07D1A36A01
:102798001D43E36A1BB12046FFF770FF90B97561CE
:1027A8002046FFF749FFE26D3F23934083600020F6
:1027B8006065012384F83530C9E7E16A206B01437D
:1027C8000A43DBE740236365012084F83500BEE750
:1027D8000120BCE73F8010F000282DD038B5054611
:1027E80090F83500C0B2022825D02A68136823F073
:1027F800010313602B6800241C602B685C602B6845
:102808009C602B68DC602B681C612B6821225A6154
:102818002846FFF711FFEC632C646C64AC64EC642D
:102828002C65EA6D3F23934083606C6585F83540DD
:1028380085F83440204638BD0120704738B5044635
:10284800856D90F8340001282BD0012084F83400DD
:1028580094F83500C0B2012804D0002384F834303D
:10286800022038BD022084F835000020606520462B
:10287800FFF7CBFEE26D3F239340AB6022681368FD
:1028880043F016031360236C23B12268136843F0E6
:10289800080313602268136843F0010313600020E3
:1028A800DFE70220DDE770B50446866D00F010FA18
:1028B80094F83530DBB2022B06D080236365002301
:1028C80084F83430012070BD05462268136823F06F
:1028D800160313602268536923F080035361236C45
:1028E800E3B12268136823F00803136022681368B1
:1028F80023F00103136023681B6813F0010F11D044
:1029080000F0E6F9431B052BF5D920236365032066
:1029180084F83500002384F83430D4E7A36C002B06
:10292800DFD1E3E7E26D3F239340B360012384F8EE
:102938003530002084F83400C5E790F83530DBB234
:10294800022B03D08023436501207047052380F8BC
:1029580035300268136823F00103136000207047C4
:10296800F0B583B0044600230193724B1D68724B87
:10297800A3FB0535AD0A876D3E68C26D08239340F9
:10298800334210D003681A6812F0040F0BD01A688B
:1029980022F004021A60C26D08239340BB60436DA5
:1029A80043F001034365E26D01239340334209D0AC
:1029B8002268526912F0800F04D0BB60636D43F047
:1029C80002036365E26D04239340334209D0226811
:1029D800126812F0020F04D0BB60636D43F0040369
:1029E8006365E26D10239340334224D02268126855
:1029F80012F0080F1FD0BB6023681A6812F4802FEA
:102A08000DD01B6813F4002F04D1236C9BB1204612
:102A1800984710E0A36C73B1204698470BE01A68FA
:102A280012F4807F03D11A6822F008021A60236C1E
:102A38000BB120469847E26D20239340334255D08E
:102A48002268126812F0100F50D0BB6094F835302D
:102A5800DBB2052B0ED023681A6812F4802F33D00E
:102A68001B6813F4002F2AD1636C002B3ED020463C
:102A780098473BE02268136823F016031360226826
:102A8800536923F080035361236CA3B12268136850
:102A980023F008031360E26D3F239340BB600123DA
:102AA80084F83530002384F83430236D002B3FD070
:102AB800204698473CE0A36C002BE7D1EBE7E36B9B
:102AC800A3B12046984711E01A6812F4807F09D113
:102AD8001A6822F010021A60012384F835300023A6
:102AE80084F83430E36B0BB120469847636DFBB133
:102AF800636D13F0010F17D0052384F83530226871
:102B0800136823F001031360019B01330193AB4267
:102B180004D823681B6813F0010FF5D1012384F84A
:102B28003530002384F83430E36C0BB120469847E5
:102B380003B0F0BD08000020B5814E1B074AD368DA
:102B480023F4E0631B041B0C000200F4E060034361
:102B580043F0BF6343F40033D360704700ED00E0F7
:102B680000B5194BDB68C3F30223C3F1070CBCF1B2
:102B7800040F28BF4FF0040C03F1040EBEF1060F3A
:102B880018D9033B4FF0FF3E0EFA0CFC21EA0C016A
:102B980099400EFA03FE22EA0E020A4300280BDBD4
:102BA8001201D2B200F1604000F5614080F80023C4
:102BB8005DF804FB0023E5E700F00F001201D2B234
:102BC800024B1A54F4E700BF00ED00E014ED00E0FA
:102BD800002807DB00F01F02400901239340024A46
:102BE80042F82030704700BF00E100E000280CDB0D
:102BF80000F01F024009012393402030034A42F8A5
:102C08002030BFF34F8FBFF36F8F704700E100E0B4
:102C18000138B0F1807F0BD24FF0E0235861054AAC
:102C2800F02182F823100020986107221A6170476A
:102C38000120704700ED00E010B504460E4B1A78ED
:102C48004FF47A73B3FBF2F30C4A1068B0FBF3F05D
:102C5800FFF7DEFF68B90F2C01D901200AE0002236
:102C680021464FF0FF30FFF77BFF054B1C6000202B
:102C780000E0012010BD00BF000000200800002077
:102C88000400002008B50B4B1A6842F400721A6061
:102C98001A6842F480621A601A6842F480721A60F4
:102CA8000320FFF74BFF0F20FFF7C6FFFEF708FDD5
:102CB800002008BD003C0240034A1168034B1B7802
:102CC8000B441360704700BFD007002000000020AD
:102CD800014B1868704700BFD007002038B504467C
:102CE800FFF7F6FF0546B4F1FF3F02D0044B1B780F
:102CF8001C44FFF7EDFF401BA042FAD338BD00BFCC
:102D08000000002030B4036A23F001030362036A61
:102D18004268846924F0730C0C6844EA0C0423F0BC
:102D2800020C8B6843EA0C03114DA84203D005F549
:102D38008065A84205D123F00803CD682B4323F012
:102D480004030B4DA84203D005F58065A84207D1BE
:102D580022F440724D6945EA020C8A6942EA0C0283
:102D6800426084614A684263036230BC704700BFB6
:102D78000000014030B4036A23F480730362036ADD
:102D88004268C46924F0730C0C6844EA0C0523F407
:102D980000738C6843EA0423114CA04203D004F565
:102DA8008064A04206D123F40063CC6843EA04237C
:102DB80023F480630A4CA04203D004F58064A04247
:102DC80007D122F440524C6942EA04128C6942EA63
:102DD80004124260C5614A68C263036230BC70472E
:102DE8000000014030B4036A23F480530362036A8D
:102DF8004468C26922F4E6420D6842EA052223F4D7
:102E080000538D6843EA0533094DA84203D005F500
:102E18008065A84204D124F480444D6944EA8514AD
:102E28004460C2614A680264036230BC704700BFF4
:102E38000000014010B4036A046A24F0010404622B
:102E4800846924F0F00C4CEA021223F00A030B43C5
:102E5800826103625DF8044B704710B4036A23F083
:102E6800100303628469036A24F4704C4CEA02324A
:102E780023F0A00343EA0113826103625DF8044B67
:102E88007047836823F070030B4343F007038360A4
:102E98007047704770477047704710B5044603681D
:102EA8001A6912F0020F11D0DA6812F0020F0DD071
:102EB8006FF002021A610123037703689B6913F01C
:102EC800030F70D0FFF7E7FF0023237723681A6901
:102ED80012F0040F12D0DA6812F0040F0ED06FF05F
:102EE80004021A610223237723689B6913F4407F45
:102EF8005FD02046FFF7CFFF0023237723681A69A6
:102F080012F0080F12D0DA6812F0080F0ED06FF026
:102F180008021A61042323772368DB6913F0030F7F
:102F28004ED02046FFF7B7FF0023237723681A699E
:102F380012F0100F12D0DA6812F0100F0ED06FF0E6
:102F480010021A61082323772368DB6913F4407F92
:102F58003DD02046FFF79FFF0023237723681A6997
:102F680012F0010F03D0DA6812F0010F36D123688E
:102F78001A6912F0800F03D0DA6812F0800F34D18A
:102F880023681A6912F0400F03D0DA6812F0400F74
:102F980032D123681A6912F0200F03D0DA6812F0D0
:102FA800200F30D110BDFFF775FF2046FDF78AFFCF
:102FB8008AE72046FFF76EFF2046FDF783FF9BE771
:102FC8002046FFF767FF2046FDF77CFFACE7204669
:102FD800FFF760FF2046FDF775FFBDE76FF00102C0
:102FE8001A612046FDF762FFC1E76FF080021A619F
:102FF800204600F037FCC3E76FF040021A61204614
:10300800FFF74AFFC5E76FF020021A61204600F07B
:1030180028FCC7E70368304A904212D0B0F1804FCD
:103028000FD0A2F57C4290420BD002F5806290420C
:1030380007D002F58062904203D002F578429042B0
:1030480003D123F070034A681343234A90422AD0DD
:10305800B0F1804F27D0A2F57C42904223D002F5F0
:10306800806290421FD002F5806290421BD002F528
:103078007842904217D002F57052904213D002F570
:10308800806290420FD002F5806290420BD0A2F588
:103098009832904207D002F58062904203D002F540
:1030A8008062904203D123F44073CA68134323F02B
:1030B80080034A69134303608B68C3620B688362A9
:1030C800054B984203D003F58063984201D10B6900
:1030D80003630123436170470000014040B310B50A
:1030E800044690F83D30F3B1022384F83D30214680
:1030F80051F8040BFFF78EFF012384F8463084F85B
:103108003E3084F83F3084F8403084F8413084F809
:10311800423084F8433084F8443084F8453084F8E9
:103128003D30002010BD80F83C30FDF73BFCDBE76C
:103138000120704740B310B5044690F83D30F3B114
:10314800022384F83D30214651F8040BFFF762FF53
:10315800012384F8463084F83E3084F83F3084F800
:10316800403084F8413084F8423084F8433084F8A1
:10317800443084F8453084F83D30002010BD80F894
:103188003C30FFF786FEDBE701207047002853D06C
:10319800F8B50D46044690F83D30002B47D0022381
:1031A80084F83D302268936823F4804323F00703B2
:1031B8009360214651F8040BFFF72CFF21688B68B8
:1031C8008A690E6A2868184322F4407222F00302C2
:1031D800AB68AF6943EA0723134323F47C4323F026
:1031E800FC03EA68EF6942EA07221A432B6A1B03C9
:1031F8002F6943EA0713134326F0AA066A686D6924
:1032080042EA05123243886021688B6123681A629A
:10321800012384F8463084F83E3084F83F3084F83F
:10322800423084F8433084F83D300020F8BD80F8FF
:103238003C30FDF747FBB2E70120704730B4036A22
:1032480023F010030362036A4468826922F4E642A9
:103258000D6842EA052223F020038D6843EA05132E
:10326800114DA84203D005F58065A84206D123F088
:103278008003CD6843EA051323F040030A4DA842B2
:1032880003D005F58065A84207D124F440644D6950
:1032980044EA85048D6944EA8504446082614A6889
:1032A8008263036230BC70470000014038B590F873
:1032B8003C30012B66D004460D46012380F83C3093
:1032C8000C2A5AD8DFE802F0075959591B5959599D
:1032D8003059595944000068FFF714FD2268936972
:1032E80043F0080393612268936923F00403936110
:1032F8002268936929690B43936100203EE00068C6
:10330800FFF79CFF2268936943F400639361226886
:10331800936923F48063936122689369296943EA76
:1033280001239361002029E00068FFF723FD22684C
:10333800D36943F00803D3612268D36923F00403F7
:10334800D3612268D36929690B43D361002015E052
:103358000068FFF747FD2268D36943F40063D3612F
:103368002268D36923F48063D3612268D369296909
:1033780043EA0123D361002000E00120002384F800
:103388003C3038BD0220FCE710B4846824F47F4C3C
:1033980042EA03220A4342EA0C0282605DF8044BC7
:1033A800704790F83C30012B78D010B504460123C3
:1033B80080F83C30022380F83D300268936823F49B
:1033C8007F4323F0770393600B68602B4CD029D898
:1033D800402B54D00CD9502B22D1CA6849680068B8
:1033E800FFF728FD50212068FFF74BFD002005E07E
:1033F800202B0DD009D9302B0AD00120012384F8C5
:103408003D30002384F83C3010BD0BB1102B05D1A2
:1034180019462068FFF735FD0020EFE70120EDE7AA
:103428000120EBE7B3F5805F34D0B3F5005F0CD132
:10343800CB684A6889680068FFF7A6FF2268936826
:1034480043F4804393600020D8E7702B24D1CB68E5
:103458004A6889680068FFF797FF2268936843F015
:10346800770393600020C9E7CA6849680068FFF7D6
:10347800F4FC60212068FFF704FD0020BEE7CA685D
:1034880049680068FFF7D6FC40212068FFF7F9FC7F
:103498000020B3E70020B1E70120AFE70220704722
:1034A80001F01F014FF0010C0CFA01FC036A23EA3A
:1034B8000C030362036A8A401343036270470000E7
:1034C80010B504460846002942D194F83E30DBB2D4
:1034D800013B18BF0123002B6ED1002851D10223D4
:1034E80084F83E30012201462068FFF7D9FF23689F
:1034F800334A934203D002F58062934203D15A6C57
:1035080042F400425A6423682D4A934249D0B3F1E9
:10351800804F46D0A2F57C42934242D002F58062A9
:1035280093423ED002F5806293423AD002F5784247
:10353800934236D002F57052934232D0A2F59432BB
:1035480093422ED01A6842F001021A60002032E03D
:10355800042908D008290DD094F84130DBB2013B8A
:1035680018BF0123B7E794F83F30DBB2013B18BF1F
:103578000123B0E794F84030DBB2013B18BF0123C8
:10358800A9E7042805D0082807D0022384F8413089
:10359800A8E7022384F83F30A4E7022384F84030E8
:1035A800A0E79A6802F00702062A07D01A6842F0D4
:1035B80001021A60002010BD0120FCE70020FAE794
:1035C8000000014038B504460D460C2970D8DFE8E4
:1035D80001F0076F6F6F326F6F6F3B6F6F6F440053
:1035E8000268D36823F40073D360406AFFF7A5F933
:1035F800002229462068FFF753FF23682D4A93428B
:1036080034D002F58062934230D02368196A41F2BF
:103618001112114208D1196A40F24442114203D1F1
:103628001A6822F001021A60002D2ED1012384F8B5
:103638003E3000203DE00268D36823F48063D36005
:10364800806AFFF77AF9D3E70268D36823F4006346
:10365800D360C06AFFF771F9CAE70268D36823F438
:103668008053D360006BFFF768F9C1E7196A41F22C
:1036780011121142C9D1196A40F244421142C4D10F
:103688005A6C22F400425A64BFE7042D06D0082D74
:1036980009D0012384F8413000200AE0012384F88E
:1036A8003F30002005E0012384F84030002000E08E
:1036B800012038BD0000014038B5044690F83E00AE
:1036C800C0B294F83F3094F84220D2B294F843C084
:1036D8000D46B1B9012849D1012A48D1022384F8FD
:1036E8003E3084F842307DB3042D39D001220021C8
:1036F8002068FFF7D5FE012204212068FFF7D0FEDD
:1037080027E0DBB25FFA8CFC042912D0012833D100
:10371800012B2CD1012A31D1BCF1010F30D1022368
:1037280084F83E3084F83F3084F8423084F84330DF
:10373800D9E7012B1CD1BCF1010F1BD1022384F85E
:103748003F3084F84330CEE7012200212068FFF79C
:10375800A7FE2268136843F001031360002006E007
:10376800012204212068FFF79BFEF2E7012038BD03
:103778000120FCE71846FAE70120F8E71846F6E7C3
:103788001046F4E790F83C20012A3DD010B40346D7
:10379800012280F83C20022280F83D20026850680F
:1037A800946820F0700C086840EA0C0050601A68B1
:1037B800164882421AD0B2F1804F17D0A0F57C404B
:1037C800824213D000F5806082420FD000F58060FD
:1037D80082420BD000F57840824207D000F5705045
:1037E800824203D0A0F59430824204D124F08004B0
:1037F800496821439160012283F83D20002083F825
:103808003C005DF8044B70470220704700000140FF
:10381800024690F83C30012B21D0012380F83C303F
:10382800CB6823F440738868034323F480634868B3
:10383800034323F400630868034323F480530869AF
:10384800034323F400534869034323F48043C969BD
:103858000B4311684B64002082F83C00704702203B
:10386800704770477047026802F10C0353E8003F45
:1038780023F0C0030C3242E800310029F3D12023A1
:1038880080F83D307047026802F10C0353E8003FAE
:1038980023F490730C3242E800310029F3D1026816
:1038A80002F1140353E8003F23F00103143242E805
:1038B80000310029F3D1036B012B05D0202380F8B8
:1038C8003E30002303637047026802F10C0353E89B
:1038D800003F23F010030C3242E800310029F3D1F5
:1038E800ECE790F83D30DBB2212B01D00220704785
:1038F8008368B3F5805F17D0036A5A1C02621A788E
:1039080003685A60C38C9BB2013B9BB2C3844BB91A
:103918000268D36823F08003D3600268D36843F059
:103928004003D360002070470369002BE4D1036A89
:103938001B880268C3F308035360036A02330362F7
:10394800E0E7000010B504460268136923F4405309
:10395800C1680B431361836802691A4343691A43B8
:10396800C3691A430168CB6823F4164323F00C0398
:103978001343CB600268536923F4407381690B4396
:1039880053610368314A934206D002F5806293423C
:1039980002D0FEF77BFC01E0FEF788FCE369B3F593
:1039A800004F29D00021031849411B1841F100019B
:1039B800C90041EA5371DB00181863684FEA8302B3
:1039C8004FEA937341F10001FCF7DAFB204AA2FBAE
:1039D80000314909642303FB11031B013233A2FBA5
:1039E80003235B0903F0F00202EB011203F00F035B
:1039F800216813448B6010BD0023021843EB0301B8
:103A0800121841F10001C90041EA5271D2001018A0
:103A180041F10001626892185B41FCF7B1FB0C4A66
:103A2800A2FB00314909642303FB1103DB00323395
:103A3800A2FB03235B095A0002F4F87202EB01129D
:103A480003F00703216813448B60D4E7001001409A
:103A58001F85EB5158B310B5044690F83D300BB3B1
:103A6800242384F83D302268D36823F40053D360BC
:103A78002046FFF767FF2268136923F49043136118
:103A88002268536923F02A0353612268D36843F4F8
:103A98000053D36000202064202384F83D3084F84C
:103AA8003E3010BD80F83C30FDF7A6FAD8E701207B
:103AB800704710B5044603685A6990F83D30DBB288
:103AC800212B0AD023685A6902F0400294F83E304C
:103AD800DBB2222B19D0002010BD02F08002002A90
:103AE800F0D0226802F1140353E8003F23F080036A
:103AF800143242E800310029F3D1606B08B1FEF7B7
:103B0800D2FE2046FFF7AFFEDCE7002AE3D02268AA
:103B180002F1140353E8003F23F04003143242E853
:103B280000310029F3D1A06B08B1FEF7BCFE204696
:103B3800FFF7A9FECFE7704708B50168CA6822F009
:103B48004002CA60202280F83D20FFF7F4FF0020E1
:103B580008BD7047704710B5846B23685A6994F89C
:103B68003D30DBB2212B10D023685A6902F04002A5
:103B780094F83E30DBB2222B11D0236C43F01003B3
:103B880023642046FFF7E6FF10BD02F08002002AFA
:103B9800EAD00023E3842046FFF765FEE4E7002A25
:103BA800EBD00023E3852046FFF76DFEE5E708B577
:103BB800806B0023C385C384FFF7CCFF08BD704723
:103BC80090F83E30DBB2222B67D18368B3F5805F73
:103BD8004DD0826AB3F5805F04D0002B54D10369BD
:103BE800002B51D103685B681370836A01338362C9
:103BF800C38D9BB2013B9BB2C385002B4FD100B54F
:103C080083B00268D36823F02003D3600268D368C6
:103C180023F48073D3600268536923F0010353616E
:103C2800202380F83E30036B012B33D1002303633C
:103C3800026802F10C0353E8003F23F010030C3232
:103C480042E800310029F3D103681A6812F0100F16
:103C580006D0002201921A6801925B680193019BC9
:103C6800818DFFF7ACFF002003B05DF804FB02690B
:103C7800002AAED1826A03685B68C3F30803138025
:103C8800836A02338362B3E703685B6803F07F03E8
:103C98001370AAE7FDF770FCE5E7022070470020E3
:103CA8007047000030B583B0044602681368D068D6
:103CB800516913F00F0505D113F0200F02D010F051
:103CC800200F19D12DB111F0010119D110F4907FF5
:103CD80016D1216B01297DD013F0800F03D010F08D
:103CE800800F40F0158113F0400F03D010F0400F03
:103CF80040F0128103B030BD2046FFF761FFF9E7BD
:103D080013F0010F06D010F4807F03D0226C42F02C
:103D18000102226413F0040F04D019B1226C42F09E
:103D28000202226413F0020F04D019B1226C42F08F
:103D38000402226413F0080F07D010F0200F00D1FE
:103D480019B1226C42F008022264226C002AD1D0F8
:103D580013F0200F02D010F0200F29D123685B69DF
:103D680003F04003226C12F0080F00D163B3204621
:103D7800FFF789FD23685B6913F0400F20D02268A4
:103D880002F1140353E8003F23F04003143242E8E1
:103D980000310029F3D1A36B73B1614A1A65A06B96
:103DA800FEF7CBFD0028A5D0A06B036D9847A1E7CF
:103DB8002046FFF705FFD1E72046FFF7CBFE99E73E
:103DC8002046FFF7C7FE95E72046FFF7C3FE00230E
:103DD80023648FE713F0100F3FF47EAF10F0100F3D
:103DE8003FF47AAF0023019313680193536801935A
:103DF800019B536913F0400F50D0A26B13685B68A6
:103E08009BB2002B3FF476AFA18D99427FF672AF3B
:103E1800E385D369B3F5807F37D0226802F10C03BC
:103E280053E8003F23F480730C3242E80031002944
:103E3800F3D1226802F1140353E8003F23F0010391
:103E4800143242E800310029F3D1226802F1140348
:103E580053E8003F23F04003143242E800310029C0
:103E6800F3D1202384F83E3000232363226802F133
:103E78000C0353E8003F23F010030C3242E80031F2
:103E88000029F3D1A06BFEF70EFDA18DE38D9BB247
:103E9800C91A89B22046FFF792FE2BE7A18DE38D60
:103EA8009BB2C91A89B2E38D9BB2002B3FF422AFB3
:103EB80000293FF41FAF226802F10C0353E8003FCA
:103EC80023F490730C3242E800300028F3D12268C2
:103ED80002F1140353E8003F23F00103143242E8CF
:103EE80000300028F3D1202384F83E3000232363D8
:103EF800226802F10C0353E8003F23F010030C3250
:103F080042E800300028F3D12046FFF758FEF1E6DA
:103F18002046FFF7E6FCEDE62046FFF70DFEE9E652
:103F2800B73B000808B5806B036B012B02D0FFF785
:103F380010FE08BD818D4908FFF741FEF9E708B575
:103F48000346806B1B681B6813F4807F2BD100230A
:103F5800C385026802F10C0353E8003F23F4807321
:103F68000C3242E800310029F3D1026802F114034F
:103F780053E8003F23F00103143242E800310029DE
:103F8800F3D1026802F1140353E8003F23F0400321
:103F9800143242E800310029F3D1202380F83E3062
:103FA800036B012B05D0036B012B0FD0FDF7E4FA4F
:103FB80008BD026802F10C0353E8003F23F0100328
:103FC8000C3242E800310029F3D1ECE7818DFFF78C
:103FD800F6FDEDE730B583B004461346816282856D
:103FE80000250564222280F83E20826B2048D06399
:103FF800A26B20481064A26B1F48D064A26B1565A1
:1040080020680A46011DA06BFEF718FC019523687D
:104018001A6801925B680193019B84F83C502369FC
:104028005BB1226802F10C0353E8003F43F480734C
:104038000C3242E800310029F3D1226802F114035E
:1040480053E8003F43F00103143242E800310029ED
:10405800F3D1226802F1140353E8003F43F0400310
:10406800143242E800310029F3D1002003B030BDFA
:10407800473F00082D3F00085F3B000808B590F84F
:104088003E30DBB2202B0DD171B17AB190F83C30C3
:10409800012B0DD0012380F83C3000230363FFF788
:1040A80099FF00E0022008BD0120FCE70120FAE7A3
:1040B8000220F8E7034AD2F8883043F47003C2F8C4
:1040C8008830704700ED00E0B0F80021B0F8023108
:1040D8009A4210D0991A01290FD011F1FF0F0ED072
:1040E800002903DD88B2013880B27047981A80B27F
:1040F800FF3080B27047FF207047002070470020D3
:104108007047F8B505460E461446FFF7DDFFA04296
:1041180022D31CB3B5F800012318FF2B0BDC224671
:104128003146284400F0B8FAB5F800311C44A5F827
:104138000041012011E0C0F580773A463146284415
:1041480000F0AAFAE21BF119284600F0A5FAE41BD0
:10415800A5F80041012000E00020F8BD0020FCE7A0
:1041680008B53D4B3D4A1068986092889A813C4A50
:104178001168C3F80E1092885A823A4A1268526A35
:104188001A60394A1268526A52425A60374A03F131
:10419800140C10685168ACE803001189ACF80010E1
:1041A800D2F80A00D2F80E10C3F81E00C3F8221085
:1041B800528ADA84B3F90A30002B3ADB40F6B83277
:1041C80093423ADD2A4B9B78C82B14BF0023012366
:1041D80043B1274AD378B3FA83F35B091E4981F8C0
:1041E8002830D370224B1B8801339BB2B3F5FA7F7A
:1041F8002BD91F4B00221A801D4B9B780133DBB251
:10420800C82B25D91A4B00229A700023194A13800B
:10421800194A1380104B93F828204FF4804117480F
:10422800FEF7E4F9164B174A1188927819809A70AC
:1042380008BD9BB25B421BB2C0E70D4B1B88B3F5B0
:10424800FA7F14BF00230123C2E7094A1380D3E78A
:10425800074A9370D9E700BFD40700201004002054
:10426800180400205C0200203403002028000020ED
:10427800000800206C080020740800200008024094
:1042880094080020CC4900087047000030B41D4B4A
:104298001A6801321A601C4BA3FB02139B094FF4E6
:1042A8007A7101FB13236BB9184B18681849086019
:1042B80058684860002119605960164B1C881648D8
:1042C80004801980154BA3FB0213DB0803EB83035F
:1042D80059008A4213D1124B1B685A6A114B1A6053
:1042E80011490968486A114908604C68041B104D57
:1042F8002C605C68141B0F4D2C6048605A6030BC01
:10430800704700BF90080020D34D62109001002034
:10431800640800202204002004080020CDCCCCCC66
:104328005C02002080080020340300208808002058
:10433800700800207808002008B51448FCF778FDBC
:104348001348FCF775FD1348FCF772FD1248FCF79B
:104358006FFD1248FCF76CFD1148FCF769FD114828
:10436800FCF7DAF81048FCF7D7F81048FCF79CFF80
:104378000F48FCF799FF0F48FCF796FF0E48FCF72B
:1043880093FF4FF4FA70FEF7A9FC08BD5C02002009
:10439800A4020020EC020020340300207C0300204B
:1043A800C40300204000002088000020BC06002034
:1043B80000070020440700208807002072B6FEE7A7
:1043C80000B595B03022002108A800F073F9002349
:1043D800039304930593069307930193204A116C62
:1043E80041F080511164126C02F080520192019ADE
:1043F80002931C4B1A6842F480421A601B6803F44B
:1044080080430293029B012308934FF4803309935E
:1044180002220E924FF480030F9304231093A821D5
:1044280011911292139308A8FDF710FC98B90F2365
:10443800039302230493002305934FF4A053069398
:104448004FF480530793052103A8FDF769FE20B9AF
:1044580015B05DF804FBFFF7B1FFFFF7AFFF00BF32
:10446800003802400070004008B5FEF70BFCFFF76B
:10447800A7FFFFF761FFFBF7E3FEFCF743F9FCF743
:104488006DFDFCF79FFDFCF791F9FCF78FFBFCF73E
:10449800BFF9FCF74DFCFCF7EBFBFCF779FDFCF7EB
:1044A80043FDFCF7E7F9FBF727FFFBF75FFF464CF7
:1044B80000212046FFF704F804212046FFF700F802
:1044C800236800245C639C63404D21462846FEF720
:1044D800F7FF04212846FEF7F3FF2B685C639C6313
:1044E8000A223B493B48FDF7CDF90A223A493B48A5
:1044F800FDF7C8F93C213A48FFF7DEF83C21394876
:10450800FFF7DAF80A20FEF7E9FBFCF7BFF8FFF738
:10451800BBFE13E0344B5B68012B1BD81EE02A4A14
:10452800126841F2680151630B44936333E0274AF0
:10453800126841F2680151630B4493632A4B1B686C
:10454800002BFBD0284B5B68002BF7D0264B1B6851
:10455800012BDFD9254A136801331360224B00224F
:104568001A605A60FFF7FCFD214AB2F9003041F2A7
:1045780068018B42A8BF0B4613801E498B42B8BF07
:104588000B461380002BCADD0F4A116841F26802FE
:104598008A63D21A4A63184AB2F9003041F26801B4
:1045A8008B42A8BF0B46138012498B42B8BF0B46FB
:1045B8001380002BBBDD054A116841F268028A634B
:1045C800D21A4A63BAE700BFA4020020C40300203D
:1045D8003C080020400000205008002088000020EF
:1045E8005C02002034030020900100207C08002099
:1045F8006C08002098EFFFFF74080020DFF834D023
:104608000D480E490E4A002302E0D458C450043322
:10461800C4188C42F9D30B4A0B4C002301E01360F9
:104628000432A242FBD3FFF745FD00F011F8FFF773
:104638001BFF704700000220000000200C00002033
:10464800E04900080C00002098080020FEE7000060
:1046580070B50D4D0D4C641BA4100026A64209D15F
:104668000B4D0C4C00F092F9641BA4100026A642D6
:1046780005D170BD55F8043B98470136EEE755F86B
:10468800043B98470136F2E7D8490008D8490008A2
:10469800D8490008DC4900080A44914200F1FF3378
:1046A80000D1704710B511F8014B03F8014F914242
:1046B800F9D110BD02440346934200D1704703F874
:1046C800011BF9E72DE9F047089E0D4604460F4601
:1046D800002B4AD18A42944665D9B2FA82F343B193
:1046E80002FA03FCC3F120029F4020FA02F21743AA
:1046F8009C404FEA1C4E1FFA8CF5B7FBFEF1220CCA
:104708000EFB117742EA074201FB05F090420AD9F5
:104718001CEB020201F1FF3780F01C81904240F24D
:10472800198102396244121AA4B2B2FBFEF00EFBE0
:10473800102244EA024400FB05F5A5420AD91CEB05
:10474800040400F1FF3280F00781A54240F20481A1
:104758006444023840EA0140641B00211EB1DC4079
:104768000023C6E90043BDE8F0878B4208D9002E34
:1047780000F0ED800021C6E900050846BDE8F08795
:10478800B3FA83F1002949D1AB4202D3824200F245
:10479800F880841A65EB030201201746002EE2D048
:1047A800C6E90047DFE702B9FFDEB2FA82F3002B61
:1047B80040F090808A1A4FEA1C471FFA8CFE0121AC
:1047C800B2FBF7F507FB1520220C42EA00420EFB6C
:1047D80005F0904208D91CEB020205F1FF3802D21D
:1047E800904200F2CB804546121AA4B2B2FBF7F011
:1047F80007FB102244EA02440EFB00FEA64508D936
:104808001CEB040400F1FF3202D2A64500F2BB8083
:104818001046A4EB0E0440EA05409FE7C1F12007CB
:104828008B4022FA07FC4CEA030C05FA01F420FA43
:1048380007F3FD404FEA1C492343B5FBF9F81FFA7B
:104848008CFE09FB18551C0C44EA054408FB0EF5C0
:10485800A54202FA01F200FA01F00BD91CEB04049C
:1048680008F1FF3A80F08880A54240F28580A8F1DF
:1048780002086444641B9DB2B4FBF9F309FB1344BA
:1048880045EA044403FB0EFEA64508D91CEB0404C4
:1048980003F1FF356CD2A6456AD9023B644443EA6A
:1048A8000843A3FB0295A4EB0E04AC42C846AE46EF
:1048B80056D353D056B1B0EB080264EB0E0404FA99
:1048C80007F7CA40CC401743C6E9007418460021D0
:1048D800BDE8F087C3F1200102FA03FC20FA01F2D7
:1048E80025FA01F19D402A434FEA1C471FFA8CFE26
:1048F800B1FBF7F007FB1015110C41EA054100FB6D
:104908000EF58D4204FA03F408D91CEB010100F1FD
:10491800FF382FD28D422DD902386144491B92B2FB
:10492800B1FBF7F507FB151142EA014205FB0EF151
:10493800914208D91CEB020205F1FF3816D29142C8
:1049480014D9023D6244521A45EA004138E731461B
:10495800304608E73946E6E61046FBE64845A9D260
:10496800B9EB020865EB0C0E013BA3E74546EAE705
:104978002B4694E74046D1E7D0467BE7023D6244A8
:1049880032E708460AE76444023842E7F8B500BF50
:10499800F8BC08BC9E467047F8B500BFF8BC08BC18
:0449A8009E46704770
:1049AC0000061016000610160000000000000000A3
:1049BC0001020304060708090000000001020304B9
:0449CC0000000000E7
:0849D000FCFCFF7F0100000068
:0449D80025020008AC
:0449DC00FD010008D1
:0C49E00001000000100000000024F400A2
:0400000508004605A4
:00000001FF
