:020000040800F2
:10000000681F00207102000805470008393D0008FC
:10001000014700088109000889610008000000000C
:1000200000000000000000000000000095480008EB
:100030005F0B0008000000004347000879520008E9
:100040008B0200088B0200088B0200088B0200085C
:100050008B0200088B0200088B0200088B0200084C
:100060008B0200088B0200088B020008C5090008FB
:10007000D5090008E5090008F5090008050A000887
:100080008B0200088B0200088B0200088B0200081C
:100090008B0200088B0200088B0200088B0200080C
:1000A0008B0200088B0200088B0200088B020008FC
:1000B0008B0200088B0200088B0200088B020008EC
:1000C0008B0200088B0200088B0200088B020008DC
:1000D0008B0200083D5E00088B020008515E00089C
:1000E0008B0200088B0200088B0200088B020008BC
:1000F0008B0200088B0200088B0200088B020008AC
:100100008B0200088B0200088B0200088B0200089B
:10011000895700088B0200088B0200084953000829
:10012000150A00088B020008250A00088B02000847
:100130008B02000800000000000000008B02000895
:100140008B0200088B0200088B0200088B0200085B
:10015000350A00088B020008450A00088B020008D7
:100160008B0200088B0200088B0200088B0200083B
:100170008B0200088B020008000000000000000055
:100180008B0200088B02000800F002F800F061F812
:100190000AA090E8000C82448344AAF10107DA45E2
:1001A00001D100F056F8AFF2090EBAE80F0013F0D3
:1001B000010F18BFFB1A43F001031847A86C000099
:1001C000C86C00000A444FF0000C10F8013B13F01B
:1001D000070408BF10F8014B1D1108BF10F8015BA0
:1001E000641E05D010F8016B641E01F8016BF9D193
:1001F00013F0080F1EBF10F8014BAD1C0C1B09D1EA
:100200006D1E58BF01F801CBFAD505E014F8016B5B
:1002100001F8016B6D1EF9D59142D6D370470000ED
:100220000023002400250026103A28BF78C1FBD8FF
:10023000520728BF30C148BF0B607047732900F0D8
:100240002882002070471FB506F049FD1FBD10B57C
:1002500010BD00F05DFA1146FFF7F5FF06F026F934
:1002600000F07BFA03B4FFF7F2FF03BC00F07EFA64
:100270000948804709480047FEE7FEE7FEE7FEE73A
:10028000FEE7FEE7FEE7FEE7FEE7FEE70448054976
:10029000054A064B704700003553000889010008E5
:1002A00068190020681F0020681B0020681B0020C0
:1002B00053EA020C00F069802DE9F04B4FF0000684
:1002C000002B1FBFB3FA83F503FA05F424FA05F6F1
:1002D0005E4012BF1643B2FA82F502FA05F4C5F188
:1002E00020051EBF22FA05FC44EA0C04203556EA1C
:1002F000044C4FEA144418BF641C4FF000084FF040
:100300000009904271EB030C39D3002919BFB1FAEF
:1003100081F701FA07F6B0FA80F700FA07F6C7F19D
:1003200020071EBF20FA07FC46EA0C062037B6FB62
:10033000F4FCA7EB0507103F07F01F0BCBF12006DD
:100340000CFA0BFB2CFA06F644BFB3460026202F0E
:10035000A4BF5E464FF0000B5BEA060C08BF4FF0EF
:10036000010B19EB0B09ABFB027C48EB0608C01B29
:1003700006FB02CC0BFB03CC71EB0C01C1E70B4677
:10038000024641464846BDE8F08B13B54FF00000E9
:100390004FF00001AFF30080BDE81C407047000043
:1003A0000FB41CB5074B06AA7B446946009005981C
:1003B00000F045F90020694600F054F91CBC5DF8D6
:1003C00014FB0000B90200002DE9F0410E4604467E
:1003D000002020622046E168884730B3252805D0F8
:1003E000D4E901219047206A401CF2E7E1682046E9
:1003F00000278847050018D0A5F14100192802D828
:1004000020354FF400673246294620462760FFF723
:1004100015FF40B1012804D0F61D26F00706083666
:10042000D8E7361DD6E72846DAE7206ABDE8F0812E
:1004300070B50C460546012A05D02878800600D5FF
:10044000EA69002302E0012305E05B1C934202D22B
:10045000E05C0028F9D1A869E618C01AA861286AEA
:10046000184428622846AFF3008004E0D5E9012152
:1004700014F8010B9047B442F8D32846AFF300803C
:1004800070BD10B5431C02E010F8011B71B181076B
:10049000FAD14FF0013202C88C1A8C4314EAC2110F
:1004A000F9D0C01A0A0603D0C01E10BDC01A10BD74
:1004B0000A0401D0801E10BD0902FCD0401E10BDF0
:1004C000032A40F2308010F0030C00F0158011F880
:1004D000013BBCF1020F624498BF11F801CB00F858
:1004E000013B38BF11F8013BA2F1040298BF00F8AC
:1004F00001CB38BF00F8013B11F0030300F0CD80C1
:10050000083AC0F0088051F8043B083A51F804CB8F
:10051000A0E80810F5E7121D5CBF51F8043B40F855
:10052000043BAFF30080D20724BF11F8013B11F860
:1005300001CB48BF11F8012B24BF00F8013B00F8A4
:1005400001CB48BF00F8012B70474FF0000200B507
:10055000134694469646203922BFA0E80C50A0E8E6
:100560000C50B1F12001BFF4F7AF090728BFA0E894
:100570000C5048BF0CC05DF804EB890028BF40F860
:10058000042B08BF704748BF20F8022B11F0804FA2
:1005900018BF00F8012B70474FF0013C50F8042BB6
:1005A00051F8043B9A4221D1A2EB0C03934313EA86
:1005B000CC1317D150F8042B51F8043B9A4215D1B3
:1005C000A2EB0C03934313EACC130BD150F8042B8A
:1005D00051F8043B9A4209D1A2EB0C03934313EA6E
:1005E000CC13DBD04FF00000704700BFD01A01BA27
:1005F000B1FA81F101F0180122FA01F0CB40C1F10A
:100600002001DBB2C0B2C01A2CFA01F3D11A914317
:1006100011EAC311E6D1704770477047704710B5B3
:1006200000F06EF8006810BD10B5044600F068F8E0
:10063000046010BD01694A1C02610878704700B56A
:100640008FB0CDE901310021059105497944CDE90B
:10065000031011466846FFF7B7FE0FB000BD00005B
:10066000E5FFFFFF0A6802F8010B0A60704710B54A
:10067000436913B1AFF3008001E0FFF7D9FE012019
:1006800010BD127800F124010A7000224A70012284
:10069000EDE711684FF0FF32E9E710B5203AC0F0FE
:1006A0000B80B1E81850203AA0E81850B1E8185073
:1006B000A0E81850BFF4F5AF5FEA027C24BFB1E8B0
:1006C0001850A0E8185044BF18C918C0BDE8104021
:1006D0005FEA827C24BF51F8043B40F8043B08BF2A
:1006E0007047D20728BF31F8023B48BF11F8012BF1
:1006F00028BF20F8023B48BF00F8012B70470000DC
:100700000048704708190020004870470819002069
:100710007546FFF7F9FFAE4605006946534620F0DF
:100720000700854618B020B5FFF7B0FDBDE82040B2
:100730004FF000064FF000074FF000084FF0000B9D
:1007400021F00701AC46ACE8C009ACE8C009ACE850
:10075000C009ACE8C0098D46704710B50446AFF338
:1007600000802046BDE81040FFF77CBD01491820FD
:10077000ABBEFEE726000200704770B50546AC6BC5
:10078000206C00F0500050BB206C40F400702064DE
:100790002068806800F04050E8B9207ED8B9206811
:1007A000C06A00F4700020B12068806800F48060A6
:1007B00088B92068406820F0200021684860206CDB
:1007C00020F480702064206C00F4805018B9206CF4
:1007D00040F001002064204600F064FB0BE0206C38
:1007E00000F0100018B1204600F0E1FB03E0A06B20
:1007F000C16C2846884770BD70B50546AC6B40207B
:100800002064606C40F004006064204600F0CFFB80
:1008100070BD70B50446A56B284600F0C7FB70BDDF
:1008200055494A6822F440324A604A6843681A438C
:100830004A600268526822F4807203685A60026853
:100840005368026943EA022203685A6002685268E8
:1008500022F0407203685A600268526883681A4343
:1008600003685A600268926822F4006203689A6022
:1008700002689268C3681A4303689A603F4B826AB1
:100880009A4218D00268926822F0706203689A60F7
:1008900002689268836A1A4303689A6002689268E1
:1008A00022F0405203689A6002689268C36A1A4351
:1008B00003689A600BE00268926822F07062036835
:1008C0009A600268926822F0405203689A60026857
:1008D000926822F0020203689A6002689368027EBE
:1008E00043EA420203689A602022125CA2B10268C5
:1008F000526842F4006203685A600268526822F447
:10090000604203685A6002685368426A521E43EAB2
:10091000423203685A6005E00268526822F40062BD
:1009200003685A600268D26A22F470020368DA62CD
:100930000268D36A828B521E43EA02520368DA626B
:100940000268926822F4007203689A6002689368F1
:1009500090F8302043EA422203689A600268926865
:1009600022F4806203689A6002689368426943EAED
:10097000822203689A607047002301400100000F43
:1009800000BFFEE72DE9F04107460D462846FFF778
:1009900078FD86B2384600F02DF9B04202DA002028
:1009A000BDE8F081002409E0A1B2384603F0CAFE98
:1009B000295D884201D00020F2E7641CB442F3DBD9
:1009C0000120EDE710B5024800F022FD10BD000047
:1009D0008C12002010B5024800F01AFD10BD000076
:1009E0004C17002010B5024800F012FD10BD0000A9
:1009F000CC15002010B5024800F00AFD10BD000023
:100A0000EC12002010B5024800F002FD10BD0000FD
:100A10002C16002010B5024800F0FAFC10BD0000B2
:100A20000810002010B5024800F0F2FC10BD0000D4
:100A30006810002010B5024800F0EAFC10BD00006C
:100A40008C16002010B5024800F0E2FC10BD00003A
:100A5000EC1600200146087810381823B0FBF3F29A
:100A60000848805CC865032A05D908686FF3090047
:100A7000001D886503E008686FF309008865886DCC
:100A8000704700003E6E0008014600208A6A8B69AC
:100A9000CBB932B1012A0DD0022A03D0032A10D1DA
:100AA0000EE000BFCB6A03F08073B3F1807F00D10A
:100AB000012007E0CB6AB3F1C07F00D1012001E043
:100AC00000E000BF34E08B69B3F5005F1AD132B1AA
:100AD000012A07D0022A03D0032A11D10AE000BF5D
:100AE00001200EE0CB6A03F08073B3F1807F00D168
:100AF000012006E0CB6AB3F1C07F00D1012000E005
:100B000000BF15E032B1012A05D0022A04D0032A21
:100B10000CD103E000BF00BF012008E0CB6A03F066
:100B20008073B3F1807F00D1012000E000BF00BFDF
:100B3000704730B50468246824F4802405682C606C
:100B4000046863608468402C04D10468A26004686F
:100B5000E16003E00468A1600468E26030BD7047B2
:100B60000021A0F80011A0F80211704710B503464B
:100B70000C46184600F03EF8A04214DB002C12DDB3
:100B8000B3F802012044FF2805DCB3F80201204439
:100B9000A3F8020109E0B3F80211C1F58070211A2F
:100BA000A3F8021101E0002010BD0120FCE772B69D
:100BB00000BFFEE770B504460C4803F00DFE0C497B
:100BC0000978884210D10A49491C2046FFF7DAFE0D
:100BD00050B10748401CFFF754FC85B22946204617
:100BE000FFF7C4FF012070BD0020FCE7B413002014
:100BF000DC6D00080146B1F80001B1F80221904215
:100C000001D100207047B1F80201B1F80021801A2B
:100C1000012806D0B1F80201B1F80021801AFF3096
:100C200008B9FF20EEE7B1F80001B1F80221801AFF
:100C300005D4B1F80001B1F80221801A06E0B1F83C
:100C40000001B1F80221801A00F5807080B2D9E766
:100C50000146B1F80001B1F80221904201D1FF2014
:100C60007047B1F80201B1F80021801A012806D0BE
:100C7000B1F80201B1F80021801AFF3008B9002054
:100C8000EEE7B1F80201B1F80021801A401E0028F9
:100C900006D4B1F80201B1F80021801A401E05E027
:100CA000B1F80201B1F80021801AFF3080B2D7E715
:100CB0002DE9F04781460D462846FFF7E2FB87B253
:100CC0004846FFF797FF8046474503DD4FF0FF306A
:100CD000BDE8F087002418E0A1B2484603F032FDD9
:100CE0002978884210D1012609E0A01981B248462E
:100CF00003F028FDA95D884200D002E0761CBE42C8
:100D0000F3DB00BF2046E3E7641CA8EB0700A0422A
:100D1000E2DA4FF0FF30DBE738B502460020009002
:100D200000BF92F83C00012801D1022038BD01200B
:100D300082F83C0000BF0868092816D91068C0680E
:100D40000C780A3C04EB44050724AC40A04314682B
:100D5000E0600C780A3C04EB44048868A040146806
:100D6000E46820431468E06013E0106800690C78C0
:100D700004EB44050724AC40A043146820610C78C0
:100D800004EB44048868A040146824692043146874
:100D900020614868072817D21068406B0C79641EE0
:100DA00004EB84051F24AC40A043146860630888EA
:100DB00080B20C79641E04EB8404A0401468646B58
:100DC00020431468606331E048680D2817D210682A
:100DD000006B0C79E41F04EB84051F24AC40A04396
:100DE00014682063088880B20C79E41F04EB840443
:100DF000A0401468246B20431468206316E0106838
:100E0000C06A0C790D3C04EB84051F24AC40A04360
:100E10001468E062088880B20C790D3C04EB84040D
:100E2000A0401468E46A20431468E062194B1A4C2D
:100E30001068A04206D10868122803D1586840F40F
:100E400080005860144C1068A0421CD1086810281B
:100E500002D00868112816D1586840F40000586084
:100E6000086810280FD10D4800680D4CB0FBF4F055
:100E700000EB80004000009002E00098401E0090CF
:100E800000980028F9D100BF002082F83C0000BF84
:100E900000BF4BE700230140002001400C0300206D
:100EA00040420F0030B50146334A0868126890424C
:100EB0002CD101233148B0F90000002801DA981E36
:100EC00000E0012082B22E480068406A2D4C20804C
:100ED00020460088B0F5167F00DA002300200DE0E0
:100EE00003EB4004284D35F81440284D2D88641B31
:100EF000544324B2264D25F81040401C0528EFDB52
:100F000024480068401C234C206033E0224A0868D3
:100F1000126890422ED12148B0F90000002802DA70
:100F20004FF0FF3000E0012082B201231C4800682E
:100F3000406A1C4C208020460088B0F5167F00DAFD
:100F4000002300200EE003EB4004174D35F8144059
:100F50000E4D6D88641B544325B20D4C0A3424F8A1
:100F60001050401C0528EEDB0A484068401C094C24
:100F7000606000BF30BD0000780F0020A40000209A
:100F800024110020B8000020A6030020C400002087
:100F9000C8100020BC000020C00F0020A6000020C8
:100FA00044120020BA000020BA03002070477047A6
:100FB00070B5044600250CB9012070BD1549A06A22
:100FC000884200D000BF206C30B9204600F024F8E1
:100FD0000020606484F83C00206C00F0100088B9A8
:100FE000206C20F4885040F0020020642046FFF777
:100FF00017FC00206064206C20F0020040F001002B
:10100000206400E0012500BF002084F83C0000BF00
:101010002846D2E70100000F10B586B0044614211F
:1010200001A8FFF792FA5149206888424AD100BFCF
:10103000002000904E48006840F480704C490860E1
:101040000846006800F48070009000BF00BF00BF39
:101050000020009046481438006840F004004449DD
:10106000143908600846006800F00400009000BFD2
:1010700000BF05200190032002900020039001A9E9
:101080003C4800F0B9FB3C483C49086000204860FF
:1010900000213A488160C1604FF4806101614900DC
:1010A0004161890081614911C16100210162416290
:1010B00000F0CEFA08B1FFF77AFD00BF2F48A06319
:1010C000846350E02E49206888424CD100BF002044
:1010D00000902748006840F40070254908600846E1
:1010E000006800F40070009000BF00BF00BF002047
:1010F00000901F481438006840F004001C4914395F
:1011000008600846006800F00400009000BF00BFBF
:1011100002200190032002900020039001A91548AD
:1011200000F06AFB14483030164908604FF0007038
:101130004860002113488160C1604FF48061016103
:1011400049004161890081614911C1610021016249
:10115000416200F07DFA08B1FFF729FD00BF0948A0
:10116000A063846300BF06B010BD000000200140F2
:101170004438024000080240106402400810002079
:101180000021014068100020F8B504460D461646BF
:101190000020009000BF94F83C00012801D10220FB
:1011A000F8BD012084F83C0000BF2068806800F092
:1011B0000100A0B92068806840F0010021688860C3
:1011C000554800685549B0FBF1F000EB4000009035
:1011D00002E00098401E009000980028F9D1206895
:1011E000806800F48070B0F5807F05D12068806849
:1011F00020F48070216888602068806800F0010019
:1012000000287ED0206C40F20161884340F4807059
:1012100020642068406800F4806028B1206C20F4CD
:10122000005040F480502064206C00F48050B0F5F1
:10123000805F04D1606C20F00600606401E0002053
:10124000606400BF002084F83C0000BF344F354884
:10125000A16BC8633448A16B08643448A16BC864AF
:101260006FF02200216808602068406840F08060CC
:10127000216848602068806840F480702168886038
:10128000226802F14C0133462A46A06B00F056FA60
:10129000786800F01F0018BB25492068884213D0E9
:1012A00024492068884204D1381D006800F01F00DE
:1012B00050B12149206888422BD11948001D00688F
:1012C00000F01F00102824D22068806800F04050F1
:1012D000F8B92068806840F080402168886018E094
:1012E00013492068884214D12068806800F040507B
:1012F00078B92068806840F080402168886008E004
:10130000FFE7206C40F010002064606C40F00100AA
:101310006064002044E700000C03002040420F00FE
:10132000002301407B07000813080008F9070008A4
:1013300000200140002101400022014070B5044618
:10134000A56D00F059FB064694F83500022808D038
:101350008020606500BF002084F8340000BF0120B9
:1013600070BD2068006820F01600216808602068C1
:10137000406920F0800021684861206C08B9A06CA9
:1013800028B12068006820F0080021680860206803
:10139000006820F001002168086010E000F02CFBDC
:1013A000801B05280BD920206065032084F83500B8
:1013B00000BF002084F8340000BF0320D0E720687D
:1013C000006800F001000028E8D194F85C103F208C
:1013D0008840A860012084F8350000BF002084F810
:1013E000340000BF00BFBBE7014691F8350002287A
:1013F00003D08020486501207047052081F8350022
:101400000868006820F001000A6810600020F3E717
:10141000F8B50446002000908C4800684FF416513F
:10142000B0FBF1F7A56D2E6894F85C100820884099
:10143000304098B12068006800F0040070B1206866
:10144000006820F004002168086094F85C1008200F
:101450008840A860606D40F00100606594F85C1001
:1014600001208840304068B12068406900F0800069
:1014700040B194F85C1001208840A860606D40F095
:101480000200606594F85C1004208840304068B128
:101490002068006800F0020040B194F85C1004205D
:1014A0008840A860606D40F00400606594F85C10AE
:1014B00010208840304078B32068006800F00800B1
:1014C00050B394F85C1010208840A8602068006831
:1014D00000F4802080B12068006800F4002028B962
:1014E000206CC8B12046216C884715E0A06C98B1EB
:1014F0002046A16C88470FE02068006800F48070E7
:1015000028B92068006820F0080021680860206C75
:1015100010B12046216C884794F85C102020884048
:101520003040002865D02068006800F010000028D6
:101530005FD094F85C1020208840A86094F83500B3
:10154000052828D12068006820F01600216808606E
:101550002068406920F0800021684861206C08B94B
:10156000A06C28B12068006820F00800216808609D
:1015700094F85C103F208840A860012084F8350072
:1015800000BF002084F8340000BF206D10B1204659
:10159000216D8847F8BD2068006800F4802080B184
:1015A0002068006800F4002028B9606C10B1204663
:1015B000616C88471DE0E06BD8B12046E16B88473D
:1015C00017E02068006800F4807068B9206800683F
:1015D00020F0100021680860012084F8350000BF69
:1015E000002084F8340000BFE06B10B12046E16BAE
:1015F0008847606D38B3606D00F00100F0B10520E0
:1016000084F835002068006820F001002168086037
:1016100000BF0098401C0090B84200D905E0206847
:10162000006800F001000028F3D100BF012084F819
:10163000350000BF002084F8340000BFE06C10B11A
:101640002046E16C884700BFA4E700000C0300209F
:101650002DE9F0410446002500F0CEF9074614B903
:101660000120BDE8F081606A00B100BF022084F86B
:10167000350000BF002084F8340000BF20680068F7
:1016800020F00100216808600AE000F0B5F9C01BF5
:10169000052805D920206065032084F83500E0E79F
:1016A0002068006800F001000028EED1206805687D
:1016B00021480540D4E901010843E1680843216954
:1016C000084361690843A1690843E1690843216A45
:1016D00008430543606A042803D1D4E90B01084399
:1016E0000543206805602068456925F00705606AA4
:1016F0000543606A04280DD1A06A0543E06A48B139
:101700002046FFF7C1F928B140206065012084F828
:101710003500A6E7206845612046FFF79BF906469D
:1017200094F85C103F208840B06000206065012084
:1017300084F83500002094E73F8010F02DE9F04751
:1017400004460D4616461F464FF00008D4F8589040
:1017500000BF94F83400012802D10220BDE8F087D0
:10176000012084F8340000BF94F83500012825D109
:10177000022084F83500002060653B463246294649
:101780002046FFF7D6F994F85C103F208840C9F84E
:1017900008002068006840F0160021680860206C8E
:1017A00028B12068006840F00800216808602068BF
:1017B000006840F001002168086006E000BF0020DA
:1017C00084F8340000BF4FF002084046C6E700002E
:1017D00070B5044600F010F906462546681C10B1A5
:1017E00004480078054400BF00F006F9801BA842B9
:1017F000FAD370BD08030020F8B502460B46002559
:10180000002400200021D6E0012606FA01F51E681A
:1018100006EA0504AC4274D11E7906F00306012ED7
:1018200004D01E7906F00306022E13D190684F00F3
:101830000326BE40B0434F00DE68BE403043906098
:10184000506801268E40B0431E79C6F300168E40C4
:10185000304350601E7906F00306032E09D0D0688D
:101860004F000326BE40B0434F009E68BE40304349
:10187000D0601E7906F00306022E13D1CF0802F1C4
:10188000200656F827004E07F70E0F26BE40B0433D
:101890004F07FF0E1E69BE403043CF0802F12006FD
:1018A00046F8270010684F000326BE40B0431E795B
:1018B00006F003064F00BE40304310605E6806F439
:1018C0004036002E76D000BF002600963C4E36688B
:1018D00046F480463A4F3E603E46366806F48046FF
:1018E000009600BF00BF374E8F0856F827008E07BE
:1018F000370F0F26BE40B043334EB24202D100260E
:1019000024E057E0314EB24201D101261EE0304EB4
:10191000B24201D1022619E02E4EB24201D1032675
:1019200014E02D4EB24201D104260FE02B4EB242FC
:1019300001D105260AE02A4EB24201D1062605E071
:10194000284EB24201D1072600E008268F073F0F3C
:10195000BE4030431B4E8F0846F82700224E3068A9
:10196000A0435E6806F4801606B120431E4E306028
:10197000361D3068A0435E6806F4001606B12043A9
:10198000194E361D3060184E361F3068A0435E6811
:1019900006F4003606B12043134E361F3060361F62
:1019A0003068A0435E6806F4803606B120430E4ED0
:1019B000083E3060491C1029FFF426AFF8BD000036
:1019C0004438024008380140000002400004024050
:1019D00000080240000C02400010024000140240C7
:1019E00000180240001C0240083C01400AB181611D
:1019F00001E00B04836170470148006870470000F4
:101A0000000300200348006803490978084401499D
:101A100008607047000300200803002010B50D483F
:101A2000006840F400700B4908600846006840F404
:101A3000806008600846006840F4807008600320F9
:101A400000F0A2F80F2000F007F800F02BF80020BB
:101A500010BD0000003C024070B504460E480078FE
:101A60004FF47A71B1FBF0F00C490968B1FBF0F565
:101A7000284600F02BFC08B1012070BD102C07D2C5
:101A800000222146501E00F041F80548046001E0A4
:101A90000120F2E70020F0E7080300200C030020FB
:101AA0000403002008B500BF002000900E48006825
:101AB00040F480400C4908600846006800F480400B
:101AC000009000BF00BF00BF00200090081F00680A
:101AD00040F08050091F08600846006800F0805000
:101AE000009000BF00BF08BD4438024001460846D0
:101AF000002809DB00F01F0301229A4043099B00E4
:101B000003F1E023C3F8002100BF70472DE9F05F27
:101B100080460D461646002704F038FB0746394636
:101B20002A46334601F00700C0F1070ABAF1040F54
:101B300002D94FF0040A01E0C0F1070AD14600F1D2
:101B4000040ABAF1070F02D24FF0000A01E0A0F137
:101B5000030AD4464FF0010A0AFA09FAAAF1010A67
:101B60000AEA020A0AFA0CFA4FF0010B0BFA0CFB14
:101B7000ABF1010B0BEA030B4AEA0B04214640468A
:101B800004F00CFBBDE8F09F00BF00F00702064B1D
:101B900019684FF6FF031940044B0B4343EA022137
:101BA000014B196000BF70470CED00E00000FA0522
:101BB00070B504460D460CB9012070BD5848006848
:101BC00000F00700A84209D255490D700846006888
:101BD00000F00700A84201D00120EEE7207800F0D5
:101BE000020002281DD1207800F00400042805D14D
:101BF0004C48006840F4E0504A490860207800F002
:101C00000800082805D14748006840F4604045496D
:101C100008604448006820F0F000A168084341498A
:101C20000860207800F00100A8B36068012807D19F
:101C30003C4808380068C0F34040B8B90120BCE710
:101C40006068022802D06068032807D13548083848
:101C50000068C0F3406048B90120AEE73148083859
:101C60000068C0F3400008B90120A6E72D480068CD
:101C700020F00300616808432A490860FFF7BCFEB2
:101C8000064609E0FFF7B8FE801B41F28831884222
:101C900002D9032091E707E02248006800F00C0019
:101CA0006168B0EB810FEDD11D48006800F00700BE
:101CB000A84209D91A490D700846006800F00700CB
:101CC000A84201D0012078E7207800F00400042821
:101CD00007D11448006820F4E050E1680843114936
:101CE0000860207800F00800082808D10D48006836
:101CF00020F46040216940EAC1000A49086000F010
:101D00003FF808490968C1F30311074A515CC8400C
:101D10000649086006480068FFF79EFE00204CE771
:101D2000003C024008380240466E00080C030020C8
:101D30000403002001480068704700000C030020E5
:101D400000B5FFF7F7FF04490968C1F38221034A90
:101D5000515CC84000BD000008380240566E0008C3
:101D600000B5FFF7E7FF04490968C1F34231034AB0
:101D7000515CC84000BD000008380240566E0008A3
:101D80002DE9F047002400250026A14625480068DB
:101D900000F00C0020B1042805D008283AD105E055
:101DA000DFF8849039E0DFF8849036E01D48001FAA
:101DB000006800F03F041B48001F006800F480002A
:101DC00078B11A481749091F0968C1F38811A0FBA7
:101DD00001700146224600233846FEF769FA05469F
:101DE0000EE011480F49091F0968C1F38811A0FBD3
:101DF00001700146224600233846FEF759FA05468F
:101E00000848001F0068C0F30140401C4600B5FBB5
:101E1000F6F902E0DFF8109000BF00BF4846BDE8C9
:101E2000F0870000083802400024F40000127A0015
:101E3000F8B504460CB90120F8BD207800F0010087
:101E4000002874D0F948006800F00C0004280DD078
:101E5000F648006800F00C00082813D1F348001F72
:101E6000006800F48000B0F5800F0BD1EF4808380F
:101E70000068C0F34040002859D06068002856D15F
:101E80000120D9E700BF6068B0F5803F08D1E7487E
:101E90000838006840F48030E449083908601EE0E2
:101EA0006068B0F5A02F0DD1E0480838006840F414
:101EB0008020DE49083908600846006840F4803018
:101EC00008600CE0D9480838006820F48030D74911
:101ED000083908600846006820F48020086000BFC8
:101EE000606890B1FFF788FD054606E0FFF784FDC6
:101EF000401B642801D903209EE7CC4808380068BD
:101F0000C0F340400028F1D011E0FFF775FD054611
:101F100006E0FFF771FD401B642801D903208BE721
:101F2000C24808380068C0F340400028F1D120784A
:101F300000F0020002285FD1BC48006800F00C00ED
:101F400058B1BA48006800F00C0008281CD1B74806
:101F5000001F006800F48000B0B9B4480838006879
:101F6000C0F3400020B1E068012801D0012063E700
:101F7000AE480838006820F0F800216940EAC10046
:101F8000AA490839086037E0E06800B30120A84991
:101F90000860FFF731FD054606E0FFF72DFD401B09
:101FA000022801D9032047E7A04808380068C0F399
:101FB00040000028F1D09D480838006820F0F80063
:101FC000216940EAC10099490839086014E00020FD
:101FD00097490860FFF710FD054606E0FFF70CFD86
:101FE000401B022801D9032026E7904808380068E2
:101FF000C0F340000028F1D1207800F00800082844
:102000002CD16069A8B101208A490860FFF7F4FC6F
:10201000054606E0FFF7F0FC401B022801D903202B
:102020000AE782486C300068C0F340000028F1D015
:1020300014E000207F490860FFF7DEFC054606E05B
:10204000FFF7DAFC401B022801D90320F4E67748A9
:102050006C300068C0F340000028F1D1207800F017
:102060000400042870D1002770483830006800F060
:10207000805090B900BF002000906C483830006854
:1020800040F080506949383108600846006800F027
:102090008050009000BF00BF01276748006800F42F
:1020A0008070B0B96448006840F48070624908608C
:1020B000FFF7A2FC054606E0FFF79EFC401B022846
:1020C00001D90320B8E65C48006800F4807000285D
:1020D000F2D000BFA068012808D1544868300068D9
:1020E00040F001005149683108601DE0A0680528F2
:1020F0000DD14E486830006840F004004B4968310B
:1021000008600846006840F0010008600CE047489D
:102110006830006820F001004449683108600846D2
:10212000006820F00400086000BFA068A8B1FFF7B5
:1021300063FC054609E0FFF75FFC401B41F2883174
:10214000884202D9032077E626E0384868300068E4
:10215000C0F340000028EED013E0FFF74DFC054629
:1021600008E0FFF749FC401B41F28831884201D961
:10217000032061E62D4868300068C0F34000002865
:10218000EFD1012F07D129483830006820F0805066
:1021900026493831086000BFA069002845D023488F
:1021A000006800F00C0008285DD0A069022845D125
:1021B00000201F490866FFF71FFC054606E0FFF7F1
:1021C0001BFC401B022801D9032035E617480838BC
:1021D0000068C0F340600028F1D1D4E9070108434A
:1021E000616A40EA81110122A06AC2EB500041EA13
:1021F00000412C20005D41EA00600C49091F086085
:1022000001200B490866FFF7F7FB054606E0FFF7DC
:10221000F3FB401B022801D903200DE603480838D0
:102220000068C0F340600028F1D049E0083802405F
:1022300000004742800E47420070004000202149C4
:102240000866FFF7D9FB054606E0FFF7D5FB401B04
:10225000022801D90320EFE51B480068C0F3406065
:102260000028F2D12CE0A069012800D1E4E516484D
:10227000001D0668A069012820D006F48001E069ED
:1022800081421BD106F03F01206A814216D147F6F8
:10229000C0703040616AB0EB811F0FD106F440314D
:1022A0000122A06AC2EB5000B1EB004F06D106F04C
:1022B00070612C20005DB1EB006F01D00120BBE507
:1022C0000020B9E5000047420038024070B50446DE
:1022D0002546681EB0F1807F01D301200FE0681E03
:1022E0004FF0E02148610F214FF0FF3003F056FF1F
:1022F00000204FF0E021886107200861002070BDB8
:102300007047704710B50346002200BF93F83C00A9
:10231000012801D1022010BD012083F83C0000BF3C
:1023200022F0FF00CC6840EA040222F440708C687E
:1023300040EA040222F480604C6840EA040222F47D
:1023400000600C6840EA040222F480500C6940EA04
:10235000040222F400504C6940EA040222F4804056
:10236000CC6940EA04021868426400BF002083F888
:102370003C0000BF00BFCEE730B502460B4600BFB1
:1023800092F83C00012801D1022030BD012082F8E2
:102390003C0000BF022082F83D00106844681068CD
:1023A000816824F070041868044310684460184D74
:1023B0001068A8421BD01068B0F1804F17D0154D9F
:1023C0001068A84213D0144D1068A8420FD0134DC6
:1023D0001068A8420BD0124D1068A84207D0114DCA
:1023E0001068A84203D0104D1068A84205D121F012
:1023F00080015868014310688160012082F83D0027
:1024000000BF002082F83C0000BF00BFBDE7000015
:10241000000001400004004000080040000C0040A3
:1024200000040140004001400018004010B504467F
:102430000CB9012010BD94F83D0028B9002084F8A3
:102440003C00204600F026F8022084F83D00211DC3
:10245000206802F081FF012084F8460000BF84F864
:102460003E0001213F2001554020015541200155EA
:1024700000BF00BF012084F84200432001554420E2
:1024800001554520015500BF012084F83D00002082
:10249000D0E7000038B504464E49206888420FD185
:1024A00000BF002000904C48006840F002004A49FC
:1024B00008600846006800F00200009000BF88E055
:1024C00046492068884251D100BF00200090424810
:1024D000006840F00400404908600846006800F0C9
:1024E0000400009000BF00BF3D483E4908608005E1
:1024F000486040213B4881600021C1604FF4806109
:10250000016149004161890081610021C16101626D
:102510004162FFF79DF808B1FEF749FB00BF314962
:1025200061620846846300BF2D4848302E49086028
:102530004FF08060486040212B4881600021C160DD
:102540004FF480610161490041618900816100218E
:10255000C16101624162FFF77BF808B1FEF727FB1A
:1025600000BF2149A1620846846332E01F49206808
:10257000884218D100BF002000901748006840F042
:102580002000154908600846006800F0200000900F
:1025900000BF00BF002211463720FFF7B7FA3720EF
:1025A000FFF7A4FA15E012492068884211D100BF54
:1025B000002000900848001D006840F00200064915
:1025C000091D08600846006800F00200009000BF86
:1025D00000BF38BD00040040403802400008004001
:1025E000106002408C120020EC1200200014004009
:1025F00000040140014691F83D00012801D001206E
:102600007047022081F83D000868C06840F0010072
:102610000B68D8601A4B086898421BD00868B0F164
:10262000804F17D0174B0868984213D0164B086894
:1026300098420FD0154B086898420BD0144B08688D
:10264000984207D0134B0868984203D0124B086891
:1026500098420CD10868806800F00702062A0CD066
:102660000868006840F001000B68186005E0086821
:10267000006840F001000B6818600020C0E700000F
:10268000000001400004004000080040000C004031
:102690000004014000400140001800402DE9F041D5
:1026A00004460D46002700BF94F83C00012802D1E3
:1026B0000220BDE8F081012084F83C0000BF022028
:1026C00084F83D002068866826F0770626F47F4669
:1026D000206886602868502833D00CDC202850D031
:1026E00004DC00284BD0102851D149E0302849D0D3
:1026F00040284CD139E060282DD0702807D0B0F5A3
:10270000805F03D0B0F5005F41D10DE041E0D5E935
:1027100002136A68206802F01FFF2068866846F08E
:1027200077062068866034E0D5E902136A6820687D
:1027300002F012FF2068806840F4804021688860C1
:1027400027E0EA686968206802F0F6FF50212068F7
:1027500002F00DFF1DE0EA686968206802F0FFFFE3
:102760006021206802F003FF13E0EA6869682068CE
:1027700002F0E2FF4021206802F0F9FE09E000BF0C
:1027800000BF00BF2968206802F0F1FE01E00127C8
:1027900000BF00BF012084F83D0000BF002084F886
:1027A0003C0000BF384684E72DE9F04104460D4661
:1027B00014B90120BDE8F08194F83D0028B900204B
:1027C00084F83C00204600F053F8022084F83D00D5
:1027D0002068806844F20701884321688860211DD1
:1027E000206802F0B9FD2068D0F80880206886696A
:1027F0002068076A286840EA080840F203308643E8
:10280000A969A86840EA0120064340F60C408643C7
:102810004FF2F0008643E969E86840EA0120064388
:1028200028690001296A40EA0130064327F022079F
:1028300027F088076969686840EA01100743206843
:10284000C0F808802068866120680762012084F84B
:10285000460084F83E0001213F200155012084F804
:10286000420043200155012084F83D000020A1E7EB
:1028700010B586B00446142101A8FDF766FE206855
:10288000B0F1804F4CD100BF002000903F4800685D
:1028900040F001003D4908600846006800F0010072
:1028A000009000BF00BF00BF0020009037481038E4
:1028B000006840F00100354910390860084600689A
:1028C00000F00100009000BF00BF00BF002000909A
:1028D0000846006840F0020008600846006800F002
:1028E0000200009000BF00BF4FF4004001900220A2
:1028F00002900020039004900120059001A9244833
:10290000FEF77AFF08200190022002900020039039
:1029100004900120059001A91E48FEF76DFF32E0EA
:102920001D49206888422ED100BF00200090174822
:10293000006840F00800154908600846006800F08B
:102940000800009000BF00BF00BF002000900F48AB
:102950001038006840F001000C4910390860084642
:10296000006800F00100009000BF00BF032001904C
:10297000022002900020039004900220059001A9FB
:102980000348FEF739FF06B010BD00004038024092
:102990000000024000040240000C00402DE9F0431A
:1029A00004460D4694F83E603F20075D94F842804F
:1029B000432010F804906DB9012E02D1B8F1010F37
:1029C00002D00120BDE8F083022084F83E0084F8A4
:1029D000420025E0042D0CD1012F02D1B9F1010FE5
:1029E00001D00120EEE702213F200155432001558F
:1029F00016E0012E07D1012F05D1B8F1010F02D148
:102A0000B9F1010F01D00120DCE7022084F83E007B
:102A100002213F200155022084F842004320015545
:102A200015B1042D0CD105E001220021206802F02F
:102A3000FFFC10E001220421206802F0F9FC0AE00A
:102A400001220021206802F0F3FC01220421206809
:102A500002F0EEFC00BF00BF2068006840F00100FB
:102A6000216808600020ADE77047704710B5044644
:102A700020680069C0F34000D8B12068C068C0F386
:102A80004000B0B16FF0020021680861012020779A
:102A90002068806900F0030018B12046FFF7E5FFC9
:102AA00005E0204600F02AF9204600F0DEF900207B
:102AB000207720680069C0F38000D8B12068C06822
:102AC000C0F38000B0B16FF00400216808610220FB
:102AD00020772068806900F4407018B12046FFF725
:102AE000C4FF05E0204600F009F9204600F0BDF9DA
:102AF0000020207720680069C0F3C000D8B12068AA
:102B0000C068C0F3C000B0B16FF008002168086170
:102B1000042020772068C06900F0030018B1204627
:102B2000FFF7A3FF05E0204600F0E8F8204600F09C
:102B30009CF90020207720680069C0F30010D8B10C
:102B40002068C068C0F30010B0B16FF010002168B9
:102B50000861082020772068C06900F4407018B12F
:102B60002046FFF782FF05E0204600F0C7F8204628
:102B700000F07BF9002020772068006900F0010058
:102B800058B12068C06800F0010030B16FF001005A
:102B900021680861204600F0AFFB20680069C0F39F
:102BA000C01058B12068C068C0F3C01030B16FF0D9
:102BB0008000216808612046FFF7A2FB20680069B9
:102BC000C0F3801058B12068C068C0F3801030B1E5
:102BD0006FF0400021680861204600F099FB2068F2
:102BE0000069C0F3401058B12068C068C0F34010BD
:102BF00030B16FF02000216808612046FFF781FBAB
:102C000010BD000010B586B00446142101A8FDF7E0
:102C10009CFC3349206888421DD100BF00200090F1
:102C20003048006840F001002E49086008460068FE
:102C300000F00100009000BF00BFC0200190022002
:102C400002900020039004900220059001A92648DC
:102C5000FEF7D2FD42E02549206888421DD100BF21
:102C6000002000901F48006840F002001D490860E5
:102C70000846006800F00200009000BF00BFC020BE
:102C80000190022002900020039004900220059001
:102C900001A91748FEF7B0FD20E0164920688842D8
:102CA0001CD100BF002000900E48006840F00400D6
:102CB0000C4908600846006800F00400009000BF5E
:102CC00000BFC020019002200290002003900490D9
:102CD0000320059001A90848FEF78EFD06B010BD3F
:102CE000000400403038024000000240000800406C
:102CF00000040240000401400008024070472DE932
:102D0000F04104460D461646002700BF94F83C00EB
:102D1000012802D10220BDE8F081012084F83C00A6
:102D200000BF36B1042E1BD0082E31D00C2E5ED140
:102D300045E02946206802F023FC2068806940F0C5
:102D40000800216888612068806920F004002168FB
:102D5000886120688069296908432168886148E0A2
:102D60002946206802F044FC2068806940F4006035
:102D7000216888612068806920F48060216888610A
:102D800020688069296940EA01202168886130E073
:102D90002946206802F06AFC2068C06940F00800FB
:102DA0002168C8612068C06920F004002168C861FA
:102DB0002068C069296908432168C86119E029466B
:102DC000206802F08FFC2068C06940F40060216830
:102DD000C8612068C06920F480602168C8612068EB
:102DE000C069296940EA01202168C86101E0012722
:102DF00000BF00BF00BF002084F83C0000BF384681
:102E000089E710B504460CB9012010BD94F83D00C7
:102E100028B9002084F83C00204600F025F8022064
:102E200084F83D00211D206802F096FA012084F804
:102E3000460000BF84F83E0001213F20015540209C
:102E400001554120015500BF00BF012084F8420018
:102E500043200155442001554520015500BF012064
:102E600084F83D000020D0E7704710B50446207F6D
:102E7000012804D10021204600F0B4F906E0207FAB
:102E8000022803D10421204600F0ACF910BD7047A0
:102E900070B504460D4615B994F83E000BE0042DBC
:102EA00002D13F20005D06E0082D02D14020005DE8
:102EB00001E04120005D012801D0012070BD1DB955
:102EC000022084F83E000EE0042D03D102213F20B1
:102ED000015508E0082D03D102214020015502E0F0
:102EE00002214120015501222946206802F0A0FA62
:102EF00023492068884203D022492068884201D1B2
:102F0000012000E0002028B12068406C40F400401F
:102F1000216848641A49206888421BD02068B0F1B3
:102F2000804F17D018492068884213D0174920686D
:102F300088420FD01649206888420BD0114920687A
:102F4000884207D013492068884203D0124920687C
:102F500088420CD12068806800F00706062E0CD04D
:102F60002068006840F001002168086005E02068E2
:102F7000006840F001002168086000209EE7000022
:102F8000000001400004014000040040000800402F
:102F9000000C004000400140001800402DE9F047BF
:102FA00004460D4616461F464FF0000815B994F822
:102FB0003E000BE0042D02D13F20005D06E0082D0D
:102FC00002D14020005D01E04120005D022801D1D6
:102FD000BDE8F08715B994F83E000BE0042D02D14E
:102FE0003F20005D06E0082D02D14020005D01E099
:102FF0004120005D012817D10EB907B1E8E71DB9DE
:10300000022084F83E0011E0042D03D102213F206C
:1030100001550BE0082D03D102214020015505E0A8
:1030200002214120015501E00120D1E735B1042DF5
:103030001FD0082D38D00C2D6CD150E05F49606A4C
:10304000C1635F49606A01645E49606AC164216866
:1030500001F134023B463146606AFEF76FFB08B16E
:103060000120B5E72068C06840F400702168C8609E
:1030700053E05249A06AC1635149A06A01645149B1
:10308000A06AC164216801F138023B463146A06A5A
:10309000FEF754FB08B101209AE72068C06840F4AD
:1030A00080602168C86038E04449E06AC1634449EF
:1030B000E06A01644349E06AC164216801F13C02AD
:1030C0003B463146E06AFEF739FB08B101207FE755
:1030D0002068C06840F400602168C8601DE037497E
:1030E000206BC1633649206B01643649206BC16493
:1030F000216801F140023B463146206BFEF71EFB82
:1031000008B1012064E72068C06840F4805021685D
:10311000C86002E04FF0010800BF00BFB8F1000F27
:103120004AD101222946206802F082F92649206806
:10313000884203D025492068884201D1012000E05F
:10314000002028B12068406C40F4004021684864A9
:103150001D49206888421BD02068B0F1804F17D0ED
:103160001B492068884213D01A49206888420FD032
:103170001949206888420BD014492068884207D03A
:1031800016492068884203D01549206888420DD12D
:103190002068806800F00709B9F1060F0CD020689C
:1031A000006840F001002168086005E020680068C0
:1031B00040F0010021680860404609E753540008C8
:1031C000BB540008FB54000800000140000401400B
:1031D0000004004000080040000C00400040014096
:1031E0000018004070B504460D46002635B1042D88
:1031F0000ED0082D16D00C2D28D11DE02068C068F7
:1032000020F400702168C860606AFEF7EDF81FE0E6
:103210002068C06820F480602168C860A06AFEF75A
:10322000E3F815E02068C06820F400602168C860F9
:10323000E06AFEF7D9F80BE02068C06820F48050FF
:103240002168C860206BFEF7CFF801E0012600BFBF
:1032500000BF002E4AD100222946206802F0E8F87B
:1032600023492068884203D022492068884201D13E
:10327000012000E0002090B100BF2068006A41F208
:103280001111084050B92068006A8910084028B917
:103290002068406C20F400402168486400BF00BFF3
:1032A0002068006A41F21111084050B92068006A94
:1032B0008910084028B92068006820F001002168C2
:1032C000086000BF1DB9012084F83E000EE0042D07
:1032D00003D101213F20015508E0082D03D1012130
:1032E0004020015502E0012141200155304670BDCA
:1032F000000001400004014010B504460349206865
:103300000968884201D103F099FB10BDFC1100202F
:103310007047704770B50446002520684069C0F3C7
:10332000801594F83E0022284AD1002D48D000BFD5
:1033300000BF2168143151E8001F21F040002168CE
:10334000143141E80002002AF3D100BFA06B10B194
:10335000A06BFDF7F3FF00BF00BF21680C3151E8FF
:10336000001F21F4907021680C3141E80002002A0E
:10337000F3D100BF00BF00BF2168143151E8001F26
:1033800021F001002168143141E80002002AF3D144
:1033900000BF206B01280ED100BF00BF21680C3197
:1033A00051E8001F21F0100021680C3141E80002B3
:1033B000002AF3D100BF202084F83E0000202063C3
:1033C000002070BD704701460022002391F83D2087
:1033D00091F83E3042EA0300704700002DE9F84FB3
:1033E0000446206805682068C668206847694FF071
:1033F0000009CA4605F00F09B9F1000F0AD105F01E
:10340000200038B106F0200020B1204602F0ECFA8E
:10341000BDE8F88FB9F1000F7CD007F0010018B9B2
:1034200006F49070002875D005F0010030B106F464
:10343000807018B1206C40F00100206405F0040099
:1034400030B107F0010018B1206C40F00200206498
:1034500005F0020030B107F0010018B1206C40F017
:103460000400206405F0080048B106F0200010B9FF
:1034700007F0010018B1206C40F008002064206CB7
:10348000002846D005F0200028B106F0200010B139
:10349000204602F0A9FA20684069C0F3801A206C27
:1034A00000F0080010B9BAF1000F2DD0204602F04C
:1034B00042FA2068406900F04000402820D100BF57
:1034C00000BF2168143151E8001F21F0400021683D
:1034D000143141E80002002AF3D100BFA06B50B1C3
:1034E0007548A16B0865A06BFDF77EFF88B1A06BE6
:1034F000016D88470DE02046FFF764FF09E009E011
:103500002046FFF75FFF04E02046FFF75BFF002047
:1035100020647DE7206B012876D105F0100000289B
:1035200072D006F010000028FAD000BF00200090F2
:1035300020680068009020684068009000BF00BFCD
:103540002068406900F0400040285ED1A06B006810
:1035500040681FFA80F8B8F1000F54D0A08D4045A4
:1035600051DDA4F82E80A06BC069B0F5807F43D0F8
:1035700000BF00BF21680C3151E8001F21F48070AA
:1035800021680C3141E80002002AF3D100BF00BFDE
:1035900000BF2168143151E8001F21F001002168AB
:1035A000143141E80002002AF3D100BF00BF00BF80
:1035B0002168143151E8001F21F0400021681431C6
:1035C00041E80002002AF3D100BF202084F83E0029
:1035D0000020206300BF00BF21680C3151E8001FAC
:1035E00021F0100021680C3141E80002002AF3D1DB
:1035F00000BFA06BFDF7A2FEA08DE28D801A81B204
:103600002046FFF786FE03E740E0A08DE18D401ADB
:103610001FFA80F8E08DC0B3B8F1000F35D000BFBD
:1036200000BF21680C3151E8001F21F4907021681F
:103630000C3141E80002002AF3D100BF00BF00BFF7
:103640002168143151E8001F21F001002168143174
:1036500041E80002002AF3D100BF202084F83E0098
:103660000020206300BF00BF21680C3151E8001F1B
:1036700021F0100021680C3141E80002002AF3D14A
:1036800000BF41462046FFF744FEC1E605F080003A
:1036900030B106F0800018B1204602F09FFBB7E67B
:1036A00005F0400030B106F0400018B1204602F0AD
:1036B00078F9ADE600BFABE69D57000810B50446AB
:1036C0000CB9012010BDA06900B100E000BF94F862
:1036D0003D0028B9002084F83C00204600F028F87E
:1036E000242084F83D002068C06820F40050216840
:1036F000C860204602F0F4F92068006920F4904088
:10370000216808612068406920F02A00216848612A
:103710002068C06840F400502168C8600020206420
:10372000202084F83D0084F83E000020CAE7000015
:1037300010B586B00446142101A8FCF706FFD44951
:103740002068884275D100BF00200090D1480068F1
:1037500040F40020CF4908600846006800F40020CB
:10376000009000BF00BF00BF00200090C948103883
:10377000006840F00400C749103908600846006836
:1037800000F00400009000BF00BF4FF440600190C3
:10379000022002900020039003200490082005904E
:1037A00001A9BD48FEF728F8BC48BD49086040059E
:1037B00048600021BA488160C1604FF480610161B6
:1037C000002141618161C16101624162FDF740FFF9
:1037D00008B1FDF7ECF900BFB148A063846300BFF6
:1037E000AE483030AF4908604FF00060486040217B
:1037F000AC4881600021C1604FF48061016100210B
:1038000041618161C16101624162FDF721FF08B13F
:10381000FDF7CDF900BFA3486063846300BF0022B9
:1038200011463420FEF772F93420FEF75FF92DE1DE
:10383000FFE79D49206888424DD100BF00200090DD
:103840009448006840F48010924908600846006877
:1038500000F48010009000BF00BF00BF0020009067
:103860008C481038006840F004008A49103908601C
:103870000846006800F00400009000BF00BF00BFD1
:10388000002000900846006840F0080008600846E4
:10389000006800F00800009000BF00BF881401908D
:1038A000022002900020039003200490082005903D
:1038B00001A97948FDF7A0FF0420019002200290A1
:1038C00000200390032004900820059001A9774868
:1038D000FDF792FFDAE076492068884278D100BF90
:1038E000002000906B48001D006840F010006949FE
:1038F000091D08600846006800F01000009000BF35
:1039000000BF00BF0020009062481038006840F0FF
:1039100001006049103908600846006800F00100A5
:10392000009000BF00BF4FF4C060019002200290E1
:1039300000200390032004900720059001A95D4812
:10394000FDF75AFF5C485D4908604FF00060486031
:1039500000215A488160C1604FF4806101610021FB
:1039600041618161C16101624162FDF771FE08B18F
:10397000FDF71DF900BF5148A063846300BF4E48A6
:1039800030304F4908604FF00060486040214C489B
:1039900081600021C1604FF48061016100214161BB
:1039A0008161C16101624162FDF752FE08B1FDF71C
:1039B000FEF800BF42486063846300BF00221146E6
:1039C0002520FEF7A3F82520FEF790F85EE0FFE73C
:1039D0003C492068884259D100BF002000902D4802
:1039E000006840F480202B4908600846006800F415
:1039F0008020009000BF00BF00BF0020009025483D
:103A00001038006840F0020022491039086008466A
:103A1000006800F00200009000BF00BF4FF440605B
:103A200001900220029000200390032004900720C0
:103A3000059001A92448FDF7DFFE184818382349EE
:103A400008604FF000604860002120488160C1603C
:103A50004FF480610161002141618161C1614FF4D6
:103A60008031016200214162FDF7F2FD08B1FDF7EE
:103A70009EF800BF1548A063846300BF0022114672
:103A80002720FEF743F82720FEF730F806B010BDD8
:103A9000004C0040403802400008024040600240B4
:103AA000CC1500202C16002000500040000C0240D5
:103AB0000010014000000240886402408C16002083
:103AC000EC16002000480040000402404C17002083
:103AD00070B504460D46164694F83E00202816D1CF
:103AE00005B10EB9012070BD00BF94F83C0001285B
:103AF00001D10220F7E7012084F83C0000BF00203C
:103B0000206332462946204602F000F9EBE7022006
:103B1000E9E7000010B504461749206809688842A3
:103B200005D1322215491448FFF7D2FF18E0144995
:103B300020680968884213D1124800684068C0F1C3
:103B4000640011494880012008706422091D0C4856
:103B5000FFF7BEFF0C484288011D0C4800F014FA24
:103B60000B4920680968884204D132220949084873
:103B7000FFF7AEFF10BD000088150020CE03002027
:103B8000441500208C1600204C130020B413002094
:103B9000BC1400200004002070470000F7B5044664
:103BA000154694F83D00202846D1019800B10DB982
:103BB0000120FEBD00BF94F83C00012801D1022085
:103BC000F7E7012084F83C0000BF01982062A5843B
:103BD000E58400202064212084F83D001748616BB3
:103BE000C8631748616B08641648616BC86400209D
:103BF000616B086501AE23681A1D31682B46606B46
:103C0000FDF79CFD6FF040002168086000BF0020B8
:103C100084F83C0000BF00BF00BF2168143151E8A8
:103C2000001F41F080002168143141E80002002AA1
:103C3000F3D100BF0020BCE70220BAE7D15800084A
:103C400029590008B1570008704770472DE9F04125
:103C500004460F4615461E4620785A2864D16078DF
:103C6000A52861D1A078E17840EA01202F49088099
:103C70002079617940EA01202D49088000202D49F2
:103C80000880042221462B4802F0F2FB27480288D4
:103C9000A11D284802F0ECFB264800882449098829
:103CA00088423FD1062037E0215CB02918D1411C61
:103CB000625C811C615C42EA012109B23180C11C55
:103CC000625C011D615C42EA012109B27180411D03
:103CD000625C811D615C42EA012109B2B1801AE097
:103CE000215CD02917D1411C625C811C615C42EAD5
:103CF000012109B22980C11C625C011D615C42EA9C
:103D0000012109B26980411D625C811D615C42EA4A
:103D1000012109B2A980401CB91F8142C4DC0120E5
:103D2000BDE8F0810020FBE70020F9E7EE0200206B
:103D3000F0020020F202002000BFFEE7FEB57F483F
:103D4000007820B1012869D0022866D188E07C483B
:103D5000FCF730FF00283CD0794800F03DFD5F289B
:103D600032D178497648FCF7A3FF401C60B30020AD
:103D7000019002907348FCF784FB401C84B22146FA
:103D80006F48FCF7F3FE05226D4901A800F04BFDDA
:103D90006D4901A8FCF700FC60B901206749087073
:103DA0006A48FCF76EFB84B2224668496848FFF710
:103DB000F5FE08E06748FCF764FB84B222466549DB
:103DC0006348FFF7EBFE00BF634800686349086083
:103DD0001DE05B48FCF7C4FE5F4800684FF4C87103
:103DE000B0FBF1F201FB1200642810D15C485D4B7E
:103DF0005D4A5EA100905F48FCF7D2FA5D48FCF78F
:103E000040FB84B222465B495148FFF7C7FE524847
:103E10000068C82801D902F01BFC8CE04848FCF778
:103E2000C9FE60B1464800F0D7FC362802D1022016
:103E300042490870484800684849086002E0404824
:103E4000FCF78EFE02F0A2FA434800684349096875
:103E5000401AB0F5487F02D90020384908706AE05E
:103E60003748FCF7A7FE002841D0354800F0B4FCE5
:103E70000546372D35D140493148FCF719FF064634
:103E80003D48FCF7FEFA304484B221462C48FCF74A
:103E90006DFE00200090019002900A222849684699
:103EA00000F0C1FC264800F097FC3B2818D1022105
:103EB0002348FCF75BFE002410E01DF804000128F5
:103EC00007D12E4901EB840004221D4900F0ABFC10
:103ED00003E004211A48FCF749FE641C0A2CECDBC1
:103EE00000E000BF1C4800681C49086000BF1A4879
:103EF000007800F0030078B91548FFF764FA21282C
:103F000005D05E221E491248FFF748FE04E01D4816
:103F10000068401C1B49086002F0ECF90E4800687C
:103F20000E490968401A40F21E31884202D9002029
:103F30000249087000BF00BFFEBD00000000002065
:103F4000B41300200F6E000810000020146E00084B
:103F500044150020206E0008A000002074000020FE
:103F6000F26D000801000020E76D0008257325733D
:103F700025730000380300202C6E00086003002029
:103F800016000020780000202DE9F04104460F467D
:103F900015462046FCF75CFEA84227DB002D25DDF8
:103FA000B4F800012844FF280CDCB4F8001108190B
:103FB0002A463946FCF784FAB4F800012844A4F8EC
:103FC000000116E0B4F80001C0F58076B4F80011E5
:103FD000081932463946FCF773FAAA1BB91920466C
:103FE000FCF76EFAA81BA4F8000102E00020BDE86F
:103FF000F0810120FBE700001FB500200090019038
:10400000029003901548164908604FF480304860CC
:104010000021134881600161017680F820104FF083
:104020008051C162491081620021C1600121C161DA
:1040300080F830104161FCF7BBFF08B1FCF7B7FD19
:104040000A20009001200190032002906946044854
:10405000FCF762FE08B1FCF7AAFD1FBD002001407D
:10406000780F00201FB5002000900190029003906F
:104070001648174908604FF4803048600021144802
:1040800081600161017680F820104FF08051C1629B
:104090004FF0606181620021C1600121C16180F83F
:1040A00030104161FCF784FF08B1FCF780FD0B2064
:1040B0000090012001900320029069460448FCF71B
:1040C0002BFE08B1FCF773FD1FBD0000002101406D
:1040D000C00F002008B500BF0020009032480068E3
:1040E00040F40010304908600846006800F40010F1
:1040F000009000BF00BF00BF00200090084600688D
:1041000040F4800008600846006800F480000090D9
:1041100000BF00BF002211460B20FDF7F7FC0B206B
:10412000FDF7E4FC002211460C20FDF7EFFC0C200B
:10413000FDF7DCFC002211460D20FDF7E7FC0D2009
:10414000FDF7D4FC002211460E20FDF7DFFC0E2007
:10415000FDF7CCFC002211460F20FDF7D7FC0F2005
:10416000FDF7C4FC002211463820FDF7CFFC3820B3
:10417000FDF7BCFC002211463A20FDF7C7FC3A20AF
:10418000FDF7B4FC002211464420FDF7BFFC44209B
:10419000FDF7ACFC002211464620FDF7B7FC462097
:1041A000FDF7A4FC08BD00003038024000B587B020
:1041B000142102A8FCF7C9F900BF00200190334880
:1041C000006840F00400314908600846006800F0CB
:1041D0000400019000BF00BF00BF0020019008460E
:1041E000006840F0800008600846006800F0800029
:1041F000019000BF00BF00BF00200190084600688A
:1042000040F0010008600846006800F001000190DD
:1042100000BF00BF00BF002001900846006840F0CA
:10422000020008600846006800F00200019000BF2C
:1042300000BF00BF002001900846006840F0080061
:1042400008600846006800F00800019000BF00BF49
:1042500000224FF480410E48FDF7C8FB4FF4005098
:10426000029000200390049002A90948FDF7C4FAC7
:104270004FF48040029001200390002004900590AC
:1042800002A90348FDF7B8FA07B000BD3038024074
:104290000008024000B58BB0242102A8FCF755F9B4
:1042A0000020009001904FF08040174908600020E6
:1042B0004860002114488160491EC16000210161ED
:1042C00081610320029000200390012004900020CF
:1042D00005900690079001200890002009900A9010
:1042E00002A90948FEF760FA08B1FCF760FC00205B
:1042F0000090019069460448FEF73EF808B1FCF7CB
:1043000056FC0BB000BD0000DC10002000B58DB0E5
:10431000002009900A900B900C90079008901C21A7
:104320006846FCF712F924482449086000204860D8
:1043300020212248816041F26701C16000210161B2
:104340008161FEF773F808B1FCF731FC4FF480503F
:10435000099009A91948FEF7A1F908B1FCF727FC53
:104360001648FEF74EFD08B1FCF721FC202007900F
:104370000020089007A91148FDF7FEFF08B1FCF7DF
:1043800016FC602000900020019002900490002212
:1043900069460A48FEF7B3FC08B1FCF708FC0422A2
:1043A00069460648FEF7ABFC08B1FCF700FC034881
:1043B000FEF728FC0DB000BD0004004024110020D1
:1043C00000B58DB0002009900A900B900C900790DA
:1043D00008901C216846FCF7B8F824482449086076
:1043E000032048600021224881601921C16000211A
:1043F00001618161FEF71AF808B1FCF7D8FB4FF4B0
:104400008050099009A91A48FEF748F908B1FCF74D
:10441000CEFB1748FEF7F5FC08B1FCF7C8FB0020FF
:104420000790089007A91248FDF7A6FF08B1FCF70E
:10443000BEFB6020009006200190002002900490B6
:10444000002269460A48FEF75AFC08B1FCF7AFFBA8
:10445000042269460648FEF752FC08B1FCF7A7FBA8
:104460000348FEF7CFFB0DB000BD00000008004080
:104470006C11002000B58BB0242102A8FCF765F870
:1044800000200090019017481749086000204860FC
:10449000002115488160491EC160002101618161D0
:1044A000032002900020039001200490002005903A
:1044B0000690079001200890002009900A9002A918
:1044C0000948FEF771F908B1FCF771FB0020009074
:1044D000019069460448FDF74FFF08B1FCF767FB00
:1044E0000BB000BD000C0040B41100201CB5002032
:1044F000009001900E480F49086053204860002149
:104500000C48816040F2E731C16000218161FDF714
:104510008DFF08B1FCF74BFB00200090019069462D
:104520000448FDF729FF08B1FCF741FB1CBD000062
:1045300000140040FC11002000B595B0002011903F
:104540001290139014900F9010901C2108A8FBF764
:10455000FCFF20216846FBF7F8FF2F482F49086031
:104560000120486020212D48816041F26701C1602F
:104570000021016141618161FDF758FF08B1FCF73D
:1045800016FB4FF48050119011A92448FEF786F8CD
:1045900008B1FCF70CFB2148FEF733FC08B1FCF72F
:1045A00006FB20200F90002010900FA91B48FDF75C
:1045B000E3FE08B1FCF7FBFA6020089000200990A8
:1045C0000A900B900C900D900E90002208A91348B1
:1045D000FEF795FB08B1FCF7EAFA042208A90F4898
:1045E000FEF78DFB08B1FCF7E2FA00200090019085
:1045F0000290039004904FF4005005900020079023
:1046000069460648FDF77EFE08B1FCF7D0FA03487C
:10461000FEF7F8FA15B000BD000401404412002076
:1046200010B50B480B4908604FF461204860002129
:1046300008488160C16001610C21416100218161F4
:10464000C161FFF73BF808B1FCF7B1FA10BD0000FB
:10465000004C0040BC14002010B50B480B4908600A
:104660004FF461204860002108488160C160016109
:104670000C21416100218161C161FFF71FF808B180
:10468000FCF795FA10BD0000005000400015002016
:1046900010B50B480B4908604FF4612048600021B9
:1046A00008488160C16001610C2141610021816184
:1046B000C161FFF703F808B1FCF779FA10BD0000FB
:1046C000001001404415002010B50B480B4908604C
:1046D0004FF461204860002108488160C160016199
:1046E0000C21416100218161C161FEF7E7FF08B142
:1046F000FCF75DFA10BD000000480040881500205E
:1047000000BFFEE700BFFEE730B50346002015E01E
:104710001C5C0D5C641B944203DD0C5C14440C5463
:104720000BE01C5C0D5C641B5542AC4203DA0C5C74
:10473000A41A0C5401E01C5C0C54401C0328E7DB59
:1047400030BD704730B503460C4601251846FCF7CE
:1047500051FA611988420CDB002D0ADDB3F8022101
:104760001019C21700EB12621212A0EB0221585C62
:1047700030BD0020FCE7000070B504460D4616462B
:10478000152D0AD120785A2807D16078A52804D1A0
:104790001022E11C0248FBF793FE012070BD0000CF
:1047A000AC17002010B504465A2009490870A5200E
:1047B000487001208870102221460548C01CFBF774
:1047C0007FFE152202490348FFF7E8F910BD0000FB
:1047D000CC170020BC14002030B503460124184635
:1047E000FCF708FAA0421CDB002C1ADDB3F802012A
:1047F0002044FF2808DCB3F802011D5CB3F8020175
:104800002044A3F802010AE0B3F80211C1F5807058
:10481000B3F802115D5C211AA3F8021100BF28460B
:1048200030BD0020FCE72DE9F04107460C46154657
:104830002046FCF7DFF9A84227DB002D25DDB4F880
:1048400002012844FF280CDCB4F8020101192A46B1
:104850003846FBF735FEB4F802012844A4F80201FB
:1048600016E0B4F80201C0F58076B4F8020101192F
:1048700032463846FBF724FEAA1BB8192146FBF73F
:104880001FFEA81BA4F8020102E00020BDE8F08191
:104890000120FBE77047000010B5082001F0FEFF83
:1048A00021492248006802F0A0F91F490C311F4835
:1048B000006802F09AF91C4918311C48006802F09F
:1048C00094F99FED1B0A18489C3880ED100A9FED63
:1048D000190A80ED110A9FED160A80ED130A9FED6B
:1048E000150A80ED140A9FED140A80ED160A9FED5B
:1048F000120A80ED170A9FED110A80ED180A9FED4C
:10490000100A80ED1A0A9FED0F0A80ED1B0A9FED39
:104910000E0A80ED1C0A9FED0D0A80ED1E0A9FED28
:104920000C0A80ED210A10BDEC180020606E000812
:104930007368AD40CDCCCC3D000048433333333FAA
:104940009A9999BEEC5138BD8FC275BC000048C21F
:104950000000F04210B52DED028B88B0FA48FB49FB
:104960000A6842648988A0F848104A30F8490A6801
:10497000026089888180F7480068406AF249C8630C
:10498000F5480068406A40420864F44802680A65D5
:1049900042684A650089A1F858005A31EF480A3048
:1049A00002680A6042684A6000890881EC4890F811
:1049B000920001287ED1EA48D0ED1E0AE248B0F903
:1049C000460000EE100AB8EEC00A30EEC00AB0EEA3
:1049D000408AE34890ED020AD0ED1F0AB4EEE00AE7
:1049E000F1EE10FA04DD90ED1F0A8DED040A17E0D8
:1049F000DB4890ED020AD0ED1F0AF1EE600AB4EE3A
:104A0000E00AF1EE10FA06D290ED1F0AB1EE400A6C
:104A10008DED040A04E0D24890ED020A8DED040AFF
:104A2000CF48D0ED190A9DED040A00EE880A80ED0A
:104A3000020A90ED030AF6EE000A20EE200AC248B0
:104A4000B0F94A0000EE900AF8EEE00AB6EE001A5D
:104A500001EE200AC24880ED030ABB48C16BC04882
:104A6000D0F88820103050F82200081AB649096C96
:104A70000144BB48D0F88C20243050F82200081A9A
:104A800000EE100AB8EEC00AF6EE000A20EE200A88
:104A90008DED040AB248AC3005AA04ABA0F12C019C
:104AA000CDE9013200910390A0F138030A1D1039BD
:104AB000403800E09FE002F03FF8A348B0F946001C
:104AC000B0F57A6F05DCA048B0F9460010F57A6FB2
:104AD00004DC9FEDA40A8DED040A32E09DED050A89
:104AE000DFEDA10AB4EEE00AF1EE10FA04DD9FED6D
:104AF0009E0A8DED040A11E09DED050ADFED9B0A8B
:104B0000B4EEE00AF1EE10FA04D29FED980A8DEDB2
:104B1000040A03E09DED050A8DED040A904890ED2E
:104B2000020AD0ED180A00EE880AD0ED030A90EDD3
:104B30001A1A00EE810ADDED040A30EE200A8DED2E
:104B4000040A9DED040ADFED8A0AB4EEE00AF1EEF4
:104B500010FA05DD9FED860A7B4880ED0D0A13E013
:104B60009DED040ADFED830AB4EEE00AF1EE10FADF
:104B700005D29FED800A744880ED0D0A04E09DED9A
:104B8000040A714880ED0D0A6F4890ED0D0A80ED22
:104B90000E0AC16B7248D0F88820103040F82210FD
:104BA0001038D0F88800042807D26D48D0F8880063
:104BB000401C6B49C1F8880003E000206849C1F837
:104BC00088006148016C6648D0F88C20243040F899
:104BD00022102438D0F88C00042807D26048D0F87E
:104BE0008C00401C5E49C1F88C0003E000205C4949
:104BF000C1F88C0000BF544880685F49C1F80900C3
:104C000051480068C1F80D004F484068C1F81100D4
:104C10009FED540A10EE100AC1F815009FED510ADD
:104C200010EE100AC1F819009FED4E0A10EE100A9E
:104C3000C1F81D009FED4B0A10EE100AC1F82100CB
:104C40009FED480A10EE100AC1F825009FED450AB5
:104C500010EE100AC1F829009FED420A10EE100A6A
:104C6000C1F82D009FED3F0A10EE100AC1F8310087
:104C70009FED3C0A10EE100AC1F835009FED390A8D
:104C800010EE100AC1F839009FED360A10EE100A36
:104C9000C1F83D002C48C068C1F841002A480069AD
:104CA000C1F8450028484069C1F849002648806994
:104CB000C1F84D002448C069C1F851002248006A7B
:104CC000C1F855002048B0F866002C4908801E48FD
:104CD000B0F864002A4908801B4890F86B204FF414
:104CE00080412848FCF782FE2748174968310A8826
:104CF0000280897881701A48B0F89000642801D148
:104D0000012000E0002004461548B0F89000401C47
:104D100080B2B0F57A7F04DD00201149A1F890003F
:104D200006E00F48B0F89000401C0D49A1F8900033
:104D30000B4890F89200401CC0B2012826DD0020EC
:104D4000074981F8920028E0E4170020E2020020E1
:104D5000E8020020DC100020B4110020C810002060
:104D6000501800200000000000009643000096C389
:104D700000007A4400007AC416000020A40000203D
:104D8000A600002000080240A9000020FE4890F87C
:104D90009200401CFC4981F89200FC4890ED0D0AFD
:104DA000F948D0ED0E0A30EE600A8DED040A9DED53
:104DB000040AF1EE040AB4EEE00AF1EE10FA08DD9E
:104DC00090ED0E0AF1EE040A30EE200A8DED040A91
:104DD00017E09DED040AF9EE040AB4EEE00AF1EEE4
:104DE00010FA09D2E84890ED0E0AF9EE040A30EE06
:104DF000200A8DED040A04E0E44890ED0D0A8DEDE3
:104E0000040A9DED040AE04880ED0E0A90ED000AC8
:104E1000DFEDDF0A20EE200ADC48B0F9500000EE9A
:104E2000900AF8EEE00A9FEDDB1A01EE200ADFEDB2
:104E3000D80A20EE200AD548B0F9520000EE900AB8
:104E4000F8EEE00A9FEDD31A01EE200ADFEDD00A5A
:104E500020EE200ACD48B0F9540000EE900AF8EE9A
:104E6000E00A9FEDCC1A01EE200ADFEDC90A20EE20
:104E7000200AC648B0F9560000EE900AF8EEE00AA3
:104E80009FEDC41A01EE200ADFEDC10A20EE200AD0
:104E9000BE48B0F9580000EE900AF8EEE00A9FED27
:104EA000BD1A01EE200AB94880ED000AB6489430D8
:104EB00007A9B64A04ABCDE90032CDE90210A0F152
:104EC0004C03A0F13C02191F543801F035FE9DED52
:104ED000070A01F077F98DED040A9DED040A01F04F
:104EE000CBFC20B99DED040A01F0AEFC20B11FED12
:104EF000630A8DED040A07E0DFEDA70A9DED040AC1
:104F000001F098F98DED040A9DED040AB5EEC00A92
:104F1000F1EE10FA0AD29DED040AB1EE400ABCEEA1
:104F2000C00A10EE100A404200B206E09DED040AED
:104F3000BCEEC00A10EE100A00B29449A1F8660057
:104F4000084690ED0E0A9048D0ED0F0A30EE600A48
:104F50008DED040A9DED040AF1EE040AB4EEE00AB8
:104F6000F1EE10FA08DD90ED0F0AF1EE040A30EED2
:104F7000200A8DED040A17E09DED040AF9EE040AFB
:104F8000B4EEE00AF1EE10FA09D27F4890ED0F0A74
:104F9000F9EE040A30EE200A8DED040A04E07B48A5
:104FA00090ED0E0A8DED040A9DED040A764880ED21
:104FB0000F0A90ED010ADFED760A20EE200A734811
:104FC000B0F95A0000EE900AF8EEE00A9FED711A6F
:104FD00001EE200ADFED6E0A20EE200A6B48B0F9E0
:104FE0005C0000EE900AF8EEE00A9FED6A1A01EE0E
:104FF000200ADFED670A20EE200A6448B0F95E005F
:1050000000EE900AF8EEE00A9FED621A01EE200A27
:10501000DFED5F0A20EE200A5C48B0F9600000EE88
:10502000900AF8EEE00A9FED5B1A01EE200ADFED30
:10503000580A20EE200A5548B0F9620000EE900AA6
:10504000F8EEE00A9FED531A01EE200A4F4880ED7A
:10505000010A4D48A03006AA4C49091D04ABCDE910
:105060000031CDE90220A0F14C03A0F14402191F48
:10507000543801F061FD9DED060A01F0A3F88DEDB5
:10508000040A9DED040A01F0F7FB20B99DED040A26
:1050900001F0DAFB20B11FEDCD0A8DED040A07E027
:1050A000DFED3D0A9DED040A01F0C4F88DED040A20
:1050B0009DED040AB5EEC00AF1EE10FA0AD29DED9C
:1050C000040AB1EE400ABCEEC00A10EE100A4042DB
:1050D00000B206E09DED040ABCEEC00A10EE100A14
:1050E00000B22A49A1F86400084690ED010AFBEEDF
:1050F0000E0AB4EEE00AF1EE10FA10DD90ED010AAE
:10510000F3EE0E0AB4EEE00AF1EE10FA11DDB0F99A
:10511000640000280DDC0A20A1F8640009E01B48A7
:10512000B0F96400002804DD6FF009001749A1F808
:1051300064001648B0F9640000EE100AB8EEC00A28
:10514000124880ED020AB0F8440045F2EC1110FB61
:1051500001F0C0F347500D4981F868000846B0F8E7
:10516000460045F2EC1110FB01F0C0F3475107482F
:1051700080F86910B0F8480045F2EC1110FB01F01E
:10518000C0F34751014809E050180020E4170020FF
:105190003333733F00CC4C3D0000804780F86A10E9
:1051A000324800683249C8603048406808612F487A
:1051B000806848612D48C06888612C480069C861D2
:1051C0002A48406908622948806948622748C069BE
:1051D00088622648006AC8622448406A08637CB135
:1051E000244890F8930008B9012000E000202049ED
:1051F00081F86B00084690F86B001E4981F8930017
:105200001B4890ED000AFBEE0E0AB4EEE00AF1EE48
:1052100010FA11DD90ED000AF3EE0E0AB4EEE00A8A
:10522000F1EE10FA12DDB0F9660000280EDC0A205B
:105230000F49A1F8660009E00D48B0F966000028A2
:1052400004DD6FF009000A49A1F86600084890EDF6
:10525000000A084880ED000A054890ED010A05485B
:1052600080ED010A08B0BDEC028B10BD6003002088
:10527000E41700205018002010B5FCF7C3FB10BD48
:1052800000B593B0302107A8FBF75FF9142102A8FD
:10529000FBF75BF900BF002001902448006840F054
:1052A0008050224908600846006800F08050019054
:1052B00000BF00BF00BF002001901D48006840F4FF
:1052C00080401B4908600846006800F48040019057
:1052D00000BF00BF012007900004089002200D903D
:1052E00041050E9104210F91A821109102211191E5
:1052F0000421129107A8FCF79BFD08B1FBF757FCAE
:105300000F20029002200390002004904FF4A05040
:1053100005904FF480500690052102A8FCF748FC48
:1053200008B1FBF744FC13B000BD00004038024058
:10533000007000400348006840F4700001490860B4
:105340007047000088ED00E010B50248FDF78EFBC5
:1053500010BD0000FC11002010B50268294B9842D6
:105360000ED0B0F1804F0BD0274B984208D0274B7E
:10537000984205D0264B984202D0264B984203D142
:1053800022F070024B681A431E4B984220D0B0F1B5
:10539000804F1DD01C4B98421AD01C4B984217D0FE
:1053A0001B4B984214D01B4B984211D01A4B984279
:1053B0000ED01A4B98420BD0194B984208D0194B7B
:1053C000984205D0184B984202D0184B984203D10E
:1053D00022F44072CB681A4322F080034C6943EAFE
:1053E000040202608B68C3620B688362054B9842BB
:1053F00002D0084B984201D10B690363012343613A
:1054000010BD000000000140000400400008004002
:10541000000C0040000401400040014000440140F5
:105420000048014000180040001C004000200040DF
:1054300030B501F01F05012404FA05F3046A9C430A
:105440000462046A01F01F0502FA05F52C430462A8
:1054500030BD70B50546AC6B606AA84207D101202B
:105460002077E86918BB012084F83E001FE0A06A9D
:10547000A84207D102202077E869C0B901213F2066
:10548000015514E0E06AA84207D104202077E869BA
:1054900068B901214020015509E0206BA84206D1DE
:1054A00008202077E86910B90121412001552046E4
:1054B000FDF7DBFC0020207770BD70B50546AC6BB6
:1054C000606AA84202D10120207710E0A06AA842B9
:1054D00002D1022020770AE0E06AA84202D104202B
:1054E000207704E0206BA84201D1082020772046D5
:1054F000FDF7CDFC0020207770BD70B50546AC6B84
:10550000606AA84204D10120207784F83E001DE0A3
:10551000A06AA84205D10220207701213F20015531
:1055200014E0E06AA84205D1042020770121402040
:1055300001550BE0206BA84205D1082020770121FE
:105540004120015502E0012084F83D002046FDF78E
:105550008BFA0020207770BD30B50C46816821F4AD
:105560007F4142EA032525432943816030BD0A4635
:10557000816821F0700142F0070319438160704790
:1055800030B5056A25F001050562026A4368846941
:1055900024F0700424F003040D682C4322F002026E
:1055A0008D682A43104DA84200D103E00F4DA84258
:1055B00006D100BF22F00802CD682A4322F004027F
:1055C000094DA84202D0094DA84207D123F48073A7
:1055D00023F400734D692B438D692B434360846131
:1055E0004D684563026230BD000001400004014087
:1055F00030B5056A25F010050562026A43688469C2
:1056000024F4E04424F440740D6844EA052422F0B4
:1056100020028D6842EA0512124DA84200D103E033
:10562000114DA84207D100BF22F08002CD6842EAA6
:10563000051222F040020B4DA84202D00A4DA842AA
:1056400009D123F4806323F400634D6943EA8503A1
:105650008D6943EA8503436084614D688563026216
:1056600030BD0000000001400004014030B5056A73
:1056700025F480750562026A4368C46924F07004E9
:1056800024F003040D682C4322F400728D6842EA72
:105690000522124DA84200D103E0114DA84207D1C6
:1056A00000BF22F40062CD6842EA052222F4806243
:1056B0000A4DA84202D00A4DA84209D123F48053D2
:1056C00023F400534D6943EA05138D6943EA05133A
:1056D0004360C4614D68C563026230BD0000014093
:1056E0000004014030B5056A25F480550562036A5F
:1056F0004468C26922F4E04222F440720D6842EA32
:10570000052223F400538D6843EA0533084DA8426F
:1057100002D0084DA84204D124F480444D6944EAE3
:1057200085144460C2614D680564036230BD0000A9
:10573000000001400004014030B50B461446026AE7
:10574000056A25F001050562816921F0F00141EA51
:10575000041122F00A021A438161026230BD30B5A1
:105760000B461446056A25F0100505628169026A38
:1057700021F4704141EA043122F0A00242EA03120E
:105780008161026230BD000010B50348FDF726FEBE
:10579000014800F0A1FB10BDBC14002070B5054607
:1057A000AC6B0020E085E0842046FDF70BFE70BD69
:1057B00070B506460025B46B20684069C0F3C0157B
:1057C00094F83D00212805D125B10020E084204631
:1057D00000F0F7F820684069C0F3801594F83E00A7
:1057E000222805D125B10020E085204600F0A3F84D
:1057F000206C40F0100020642046FDF7E3FD70BDF2
:1058000070B50546AC6B2868006800F4807000280D
:1058100042D1E08500BF00BF21680C3151E8001F74
:1058200021F4807021680C3141E80002002AF3D194
:1058300000BF00BF00BF2168143151E8001F21F0F4
:1058400001002168143141E80002002AF3D100BFB1
:1058500000BF00BF2168143151E8001F21F0400053
:105860002168143141E80002002AF3D100BF202052
:1058700084F83E00206B01280ED100BF00BF2168D4
:105880000C3151E8001F21F0100021680C3141E873
:105890000002002AF3D100BF206B012804D1A18DA2
:1058A0002046FDF736FD02E02046FEF733F970BDD5
:1058B00070B50546AC6B206B012805D1A08D410861
:1058C0002046FDF726FD02E02046FEF765F970BD93
:1058D00070B50546AC6B2868006800F48070F8B9B4
:1058E0000020E08400BF00BF2168143151E8001F90
:1058F00021F080002168143141E80002002AF3D130
:1059000000BF00BF00BF21680C3151E8001F41F00B
:10591000400021680C3141E80002002AF3D102E086
:105920002046FEF791F970BD70B50446A56B284678
:10593000FEF78BF970BD00BF00BF02680C3252E861
:10594000002F22F4907102680C3242E80013002B01
:10595000F3D100BF00BF00BF0268143252E8002F2D
:1059600022F001010268143242E80013002BF3D147
:1059700000BF016B01290ED100BF00BF02680C32CD
:1059800052E8002F22F0100102680C3242E80013A6
:10599000002BF3D100BF202180F83E1000210163CD
:1059A000704710B504462068C06820F040002168A8
:1059B000C860202084F83D002046FEF745F900200D
:1059C00010BD00BF00BF02680C3252E8002F22F069
:1059D000C00102680C3242E80013002BF3D100BF73
:1059E000202180F83D107047F8B5044694F83E0039
:1059F000222873D1A068B0F5805F0CD1206950B91E
:105A00000025A66A20684068C0F308003080A06ABC
:105A1000801CA06215E0A56A0026A068B0F5805F32
:105A200003D0A06828B9206918B920684068287098
:105A300004E02068406800F07F002870A06A401CE5
:105A4000A062E08D401E80B2E085002844D120682D
:105A5000C06820F020002168C8602068C06820F479
:105A600080702168C8602068406920F001002168CA
:105A70004861202084F83E00206B012826D10020B8
:105A8000206300BF00BF21680C3151E8001F21F0E6
:105A9000100021680C3141E80002002AF3D100BF58
:105AA0002068006800F0100010280AD100BF002014
:105AB000009020680068009020684068009000BF57
:105AC00000BFA18D2046FDF724FC02E02046FEF732
:105AD00021F80020F8BD01E00020FBE70220F9E7F3
